:100000001FC002C238C037C036C035C034C05DC161
:1000100032C031C030C02FC02EC02DC0A4C12BC0F3
:100020002AC029C028C027C026C025C024C023C09C
:1000300022C021C0C0F9A4B0999282D88090FF005C
:1000400011241FBECFEFD4E0DEBFCDBF11E0A0E092
:10005000B1E0EEE0F6E002C005900D92A430B107E9
:10006000D9F721E0A4E0B1E001C01D92A531B207AB
:10007000E1F743D2CAC2C4CFBC0180E49FE1B1D250
:10008000862F603148F07727CB01409797FF02C059
:10009000CB010F97959587958093B800089584EAD2
:1000A0008093BC008091BC0087FFFCCF089584E959
:1000B0008093BC008091BC0084FDFCCF08958093A8
:1000C000BB0084E88093BC008091BC0087FFFCCF1C
:1000D000089520E4829FC001112484689F6F80935B
:1000E000BC008091BC0087FFFCCF8091BB000895CD
:1000F000EF92FF921F93CF93DF9300D000D0CDB744
:10010000DEB7142F2B833C836A838983C8DF898100
:10011000D6DF6A81862FD3DF2B81E22E3C81F32E3E
:10012000120F04C0F70181917F01C9DF1E11FACFC0
:100130000F900F900F900F90DF91CF911F91FF9034
:10014000EF90B5CFEF92FF920F931F93CF93DF9372
:100150001F92CDB7DEB7082F142F790169839FDF77
:10016000802FADDF6981862FAADF99DF802F8F5F17
:10017000A6DF08C081E0111101C080E0AADFF7010D
:1001800081937F011150B0F70F90DF91CF911F91B4
:100190000F91FF90EF908BCFE0EBF0E080818260D9
:1001A0008083E1EBF0E08081876080838EE4809340
:1001B000B300E0E7F0E08081826080830895EF92F1
:1001C000FF920F931F93CF9370910401772311F047
:1001D000761375C0FC0190819623C1E080910501E2
:1001E000992311F0C0E00BC0811109C0C093050133
:1001F00085E090E0909308018093070160C0882318
:1002000009F45DC0CC23A9F08130E9F480910701A5
:1002100090910801892B09F048C082E08093050184
:1002200083E090E0909308018093070160930401BC
:1002300046C08230D0F18430C0F501151105D9F1E6
:10024000F801099538C0823099F4809107019091A6
:100250000801892B51F52115310511F426E930E00B
:1002600083E08093050130930801209307011DC0AE
:10027000833051F48091070190910801892BA9F4F2
:1002800084E08093050111C0843079F480910701E6
:1002900090910801892B49F450930801409307017C
:1002A000E114F10411F0F701099580910501833003
:1002B00030F0C11104C01092050110920401CF91D9
:1002C0001F910F91FF90EF9008951F920F920FB61C
:1002D0000F9211248F939F938091070190910801B1
:1002E000009729F00197909308018093070180916E
:1002F0000B0190910C01009729F0019790930C014C
:1003000080930B018091090190910A01009729F0D7
:10031000019790930A01809309019F918F910F900B
:100320000FBE0F901F90189585B18FEF85B994B1CE
:1003300084B988B18F6088B987B18F6087B98BB174
:1003400088618BB98AB188618AB984B5826084BDBD
:1003500085B5856085BD83E187BDEEE6F0E08081EF
:100360008260808308951F920F920FB60F9211241E
:100370002F938F939F93EF93FF9380910001813090
:1003800039F4E0911001F0E0EC5CFF4FE491E5B945
:1003900080910001823039F4E0910E01F0E0EC5CD4
:1003A000FF4FE491E5B980910001843039F4E09188
:1003B0000F01F0E0EC5CFF4FE491E5B980910001A2
:1003C000883039F4E0910D01F0E0EC5CFF4FE491EE
:1003D000E5B998B120910001822F80958F70907FB0
:1003E000892B88B9822F880F893008F401C081E0F9
:1003F00080930001FF91EF919F918F912F910F902A
:100400000FBE0F901F9018951F920F920FB60F926C
:1004100011248F9381E0809301018F910F900FBE83
:100420000F901F9018956AE0D0D0292F30E1839F5C
:10043000C0011124822B0895982F92959F708F7080
:100440002AE0929F800D11240895CF93DF9380912D
:100450001201F2DF8093060180911301EDDFD82FA6
:1004600080911401E9DFC82F80930301DB3318F476
:100470008D2F8F5F01C080E08093020110921101E7
:1004800010921201D0DF809313018C2FCCDF809368
:10049000140121E131E044E061E082EADF91CF9193
:1004A00027CECF93DF9380911201C6DF80930601A0
:1004B00080911301C1DFD82F809302018091140134
:1004C000BBDF873118F4C82FCF5F01C0C0E0C093F5
:1004D000030110921101109212018D2FA4DF80935D
:1004E00013018C2FA0DF8093140121E131E044E05F
:1004F00061E082EADF91CF91FBCD8091690082605B
:1005000080936900E89A5A9A0FDF46DE84E690E00D
:10051000B3DD8BB183608BB98AB18C7F8AB9789453
:100520008BB1877E8BB9CAE0D8E0209103012A30D5
:1005300020F0822F6C2F49D001C08AE080931001F7
:10054000822F6C2F42D090930E01809102013DD0FA
:1005500080930F0190930D0181E5E82E82E0F82E43
:10056000870124E630E04AE050E061E089E290E073
:1005700026DE95E2E92E92E0F92E870124E630E0AE
:100580004AE050E062E089E290E019DE80910101EA
:10059000882359F221E131E044E061E082EAD2DDD2
:1005A0008091120149DF809306018091130144DF9D
:1005B00080930201809114013FDF809303018BB18E
:1005C0008D278BB910920101B0CF991B79E004C03F
:1005D000991F961708F0961B881F7A95C9F7809582
:1005E0000895AA1BBB1B51E107C0AA1FBB1FA6177A
:1005F000B70710F0A61BB70B881F991F5A95A9F7CC
:0E06000080959095BC01CD010895F894FFCF30
:04060E0001010511D0
:00000001FF
