:100000001FC093C22DC02CC02BC02AC029C028C03D
:1000100027C026C025C0B1C423C022C021C020C033
:100020001FC01EC01DC01CC01BC01AC019C018C0F4
:1000300017C016C041544E454C0041544E454C002B
:1000400011241FBECFEFD4E0DEBFCDBF21E0A0E082
:10005000B1E001C01D92A434B207E1F7DED4BBC504
:10006000CFCF5298219A229A239A2498259A5A9A65
:1000700029982A9A2B982C982D988CB580658CBD40
:100080008DB581608DBD08958EBD0DB407FEFDCF89
:100090008EB508958EBD0DB407FEFDCF0895EF9285
:1000A000FF921F93CF93DF931F92CDB7DEB7182F28
:1000B000E82EF92E06C0F70181917F016983EADFFE
:1000C00069818E2D811B8617B0F30F90DF91CF9140
:1000D0001F91FF90EF900895EF92FF920F931F935F
:1000E000CF93DF9300D0CDB7DEB78C017B010BC07F
:1000F000F70181917F0149836A83C6DFF80181930B
:100100008F016A8149818E2D861B841788F30F9099
:100110000F90DF91CF911F910F91FF90EF90089575
:10012000909303018093020108952A988F71B2DFA2
:100130008FEFAADF2A9A0895CF93DF931F92CDB74E
:10014000DEB72A988F7180626983A4DF6981862F68
:10015000A1DF2A9A0F90DF91CF9108950F931F93FB
:10016000CF93DF931F92CDB7DEB78B012A988F71A3
:10017000498390DF4981B801C801AEDF2A9A0F9008
:10018000DF91CF911F910F9108950F931F93CF93FC
:10019000DF931F92CDB7DEB78B012A988F718062F3
:1001A000498378DF4981B801C80196DF2A9A0F9008
:1001B000DF91CF911F910F910895CF93DF9300D0DE
:1001C00000D01F92CDB7DEB7DE0111969E012A5FE7
:1001D0003F4FFC010196E491ED93A217B307C9F7D5
:1001E00045E0BE016F5F7F4F80E1CFDF0F900F9042
:1001F0000F900F900F90DF91CF910895CF93DF93E1
:1002000000D000D01F92CDB7DEB7803128F48A30FD
:1002100018F08C30A8F401C08AE0DE0111969E012E
:100220002A5F3F4FFB016F5F7F4FE491ED93A21771
:10023000B307C1F745E0BE016F5F7F4FA6DF04C083
:10024000FB016491698378DF0F900F900F900F90FE
:100250000F90DF91CF9108952A988FEF15DF2A9A9A
:10026000807408951F93CF93DF931F92CDB7DEB7AD
:10027000182F80E0698359DF6981113009F404C0C7
:10028000123011F4846001C08B7F613011F48860FA
:1002900003C0623009F4877F682F80E00F90DF9100
:1002A000CF911F9149CF299880E03FDF682F6E7F63
:1002B000626080E041CF299880E037DF682F63607B
:1002C00080E03ADF299A83E091E00197F1F700C0DE
:1002D00000000895FF920F931F93CF93DF938091B7
:1002E0000001813019F4E7DF1092000180912C01A8
:1002F0008823C9F1299810922C0188E091E0082FF9
:100300002A9880E6C7DE8FEFBFDE182F2A9A813247
:1003100050F02A988FEFB8DE2A9A682F606487E041
:100320000BDF299A20C02A9881E6B4DEC8E0D1E02C
:10033000F12EF00E03C08FEFA7DE8993FC12FBCFE6
:100340002A9A87E1F2DEC82F112351F0E0910201D1
:10035000F0910301309721F0612F88E091E0099539
:10036000C0FFCECFD6CFDF91CF911F910F91FF90DD
:100370000895682F6F7785E0DFCE2A9881EE8ADEB8
:100380002A9A08952A9882EE85DE2A9A0895299855
:1003900080E0CBDE682F6C7F80E0CEDEF3DFEDCF38
:1003A0000F931F93CF93DF931F92CDB7DEB7182F14
:1003B000042F82E06983B9DE982F6981613011F4DE
:1003C000912B05C0623019F4812F80959823692FF5
:1003D00082E0B2DE81E0A9DE682F013011F4612BEA
:1003E00004C0023011F41095612381E00F90DF9179
:1003F000CF911F910F91A0CEEF92FF920F931F9379
:10040000CF93DF931F92CDB7DEB7182F80912901CC
:10041000813089F181E08093290180912A01813026
:1004200019F4A0912B0108C0E12FF92FDF010D90E5
:100430000020E9F71197A11B0A2FA03208F00FE165
:10044000998331DFEBE2F1E03197F1F700C0000072
:100450002A9880EA1FDEE12E9981F92E04C0F70167
:1004600081917F0117DE8E2D811B8017C0F380E004
:1004700011DE2A9A299A0F90DF91CF911F910F9147
:10048000FF90EF900895CF93C62F6F7155DE81E0F6
:1004900080932A01C0932B01CF910895682B84E0AB
:1004A0004BCE682B86E048CECF93C62F682F8CE1C9
:1004B00043DE8DE13ADEC13011F4846003C0C23006
:1004C00009F48B7F682F8DE1CF9136CEE89AE9E66B
:1004D000F0E08081826080830895C3DDF7DF84E3EC
:1004E00090E06BDE6AE370E08AE088DE60E080E046
:1004F00023DE48DF42DF61E081E0B4DE84E139DF02
:1005000041E061E081E04CDF6FE084E015DE66E011
:1005100086E012DE61E081E0C7DF81E080932C019C
:100520001092290160E787E007CE1F920F920FB665
:100530000F9211242F933F934F935F936F937F9369
:100540008F939F93AF93BF93CF93EF93FF932A988B
:100550008FEF9ADDC82F2A9A86FF03C081E080932F
:100560002C01C5FF0AC081E080930001C0626C2F9E
:1005700087E0E2DD109229012998C4FF0BC0109298
:1005800029016C2F606387E0D7DD81E08093000153
:10059000F4DE2998FF91EF91CF91BF91AF919F9198
:1005A0008F917F916F915F914F913F912F910F901C
:1005B0000FBE0F901F9018951F93CF93DF931F923C
:1005C000CDB7DEB7182FB7D084EBC5D0812FC3D0FD
:1005D000B2D085EBC0D080E0C8D08983B4D0898107
:1005E0000F90DF91CF911F9108951F93CF93DF93C9
:1005F0001F92CDB7DEB7182F69839DD084EBABD0A7
:10060000812FA9D06981862FA6D00F90DF91CF913D
:100610001F9199C060E083E7E8DF60E084E7E5DFF1
:1006200060E086E7E2DF60E087E7DFDF61E08BE242
:10063000DCDF61E08CE2D9DF60E08DE2D6DF60E0F4
:100640008EE2D3DF61E08FE2D0DF61E080E3CDDFD7
:100650006FE781E3CADF69E082E3C7DF6FE581E42A
:10066000C4DF69E082E4C1DF6FE583E4BEDF69E0F7
:1006700084E4BBDF6FE585E4B8DF69E086E4B5DFDD
:100680006FE587E4B2DF69E088E4AFDF6FE589E416
:10069000ACDF69E08AE4A9DF6FE58BE4A6DF69E0FF
:1006A0008CE4A3DF6FE58DE4A0DF69E08EE49DDFDD
:1006B0006FE58FE49ADF69E080E597DF6FE581E51C
:1006C00094DF69E082E591DF6BE18BE78EDF69EC17
:1006D0008DE78BDF61EA8FE788DF62E88EE785DFF1
:1006E00069E88EE582CF509A519A549A269A279AB1
:1006F000559A569A579A209A3B9A589859985C98C6
:100700002E982F985D985E985F982898439A089540
:10071000BC0180E49FE14BD2862F603148F07727FF
:10072000CB01409797FF02C0CB010F979595879516
:100730008093B800089584EA8093BC008091BC0047
:1007400087FFFCCF089584E98093BC008091BC00B2
:1007500084FDFCCF08958093BB0084E88093BC00A7
:100760008091BC0087FFFCCF089520E4829FC001E8
:10077000112484689F6F8093BC008091BC0087FF28
:10078000FCCF8091BB000895EF92FF921F93CF930F
:10079000DF9300D000D0CDB7DEB7142F2B833C837E
:1007A0006A838983C8DF8981D6DF6A81862FD3DF98
:1007B0002B81E22E3C81F32E120F04C0F7018191B0
:1007C0007F01C9DF1E11FACF0F900F900F900F908D
:1007D000DF91CF911F91FF90EF90B5CFEF92FF92F5
:1007E0000F931F93CF93DF931F92CDB7DEB7082FE0
:1007F000142F790169839FDF802FADDF6981862FF8
:10080000AADF99DF802F8F5FA6DF08C081E011117A
:1008100001C080E0AADFF70181937F011150B0F79A
:100820000F90DF91CF911F910F91FF90EF908BCFA1
:10083000409A419A429A439A449A389839983A98F9
:100840003B983C980895E1E8F0E0808188608083DF
:100850008081856080838EE490E09093890080930E
:100860008800EFE6F0E08081826080830895EF9257
:10087000FF920F931F93CF9370910401772311F090
:10088000761375C0FC0190819623C1E0809105012B
:10089000992311F0C0E00BC0811109C0C09305017C
:1008A00085E090E090932E0180932D0160C0882315
:1008B00009F45DC0CC23A9F08130E9F480912D01C9
:1008C00090912E01892B09F048C082E080930501A8
:1008D00083E090E090932E0180932D0160930401BA
:1008E00046C08230D0F18430C0F501151105D9F130
:1008F000F801099538C0823099F480912D019091CA
:100900002E01892B51F52115310511F426E930E02E
:1009100083E08093050130932E0120932D011DC0AB
:10092000833051F480912D0190912E01892BA9F4EF
:1009300084E08093050111C0843079F480912D0109
:1009400090912E01892B49F450932E0140932D0153
:10095000E114F10411F0F70109958091050183304C
:1009600030F0C11104C01092050110920401CF9122
:100970001F910F91FF90EF9008951F920F920FB665
:100980000F9211248F939F9380912D0190912E01AE
:10099000009729F0019790932E0180932D0180916B
:1009A000310190913201009729F001979093320123
:1009B0008093310180912F0190913001009729F0AF
:1009C00001979093300180932F0180913301909192
:1009D0003401009729F001979093340180933301FB
:1009E0008091350190913601009729F001979093FD
:1009F000360180933501809137019091380100973D
:100A000029F0019790933801809337019F918F913E
:100A10000F900FBE0F901F90189584E690E078DE3F
:100A2000F9DD61DE5ADD0FDF88E090E09093300160
:100A300080932F01909334018093330182E390E0FF
:100A4000909336018093350190933801809337015C
:100A50007894C0E3D1E380E0AFDD8093070181E0CB
:100A6000ABDD809306018091070180FD02C058989C
:100A700001C0589A8091070181FD02C0599801C0B8
:100A8000599A8091070182FD02C05C9801C05C9A6E
:100A90008091070183FD02C02E9801C02E9A80919B
:100AA000070184FD02C02F9801C02F9A8091070191
:100AB00085FD02C05D9801C05D9A8091070186FDA9
:100AC00002C05E9801C05E9A8091070187FD02C056
:100AD0005F9801C05F9A8091060180FD02C028984E
:100AE00001C0289A8091070180FF03C0D09339018B
:100AF00002C0C09339018091070181FF03C0D093E8
:100B00003A0102C0C0933A018091070182FF03C0FD
:100B1000D0933B0102C0C0933B018091070183FF4A
:100B200003C0D0933C0102C0C0933C0180910701F7
:100B300084FF03C0D0933D0102C0C0933D0180916A
:100B4000070185FF03C0D0933E0102C0C0933E0160
:100B50008091070186FF03C0D0933F0102C0C0937C
:100B60003F018091070187FF03C0D093400102C07D
:100B7000C09340018091060180FF03C0D0934101E2
:100B800002C0C093410180910701837371F04398C3
:100B90001092430189E391E02FDCE9E3F1E0119247
:100BA00081E0E334F807D9F756CF439A54CFAA1B14
:100BB000BB1B51E107C0AA1FBB1FA617B70710F048
:100BC000A61BB70B881F991F5A95A9F7809590957A
:0A0BD000BC01CD010895F894FFCF99
:00000001FF
