:1000000019C020C01FC01EC01DC01CC01BC01AC00C
:1000100019C018C017C016C015C014C013C012C034
:1000200011C010C00FC00EC00DC00CC00BC00AC064
:1000300009C008C011241FBECFEFD4E0DEBFCDBF82
:1000400012D170C1DDCF1F93CF93DF931F92CDB735
:10005000DEB7182F8BD084EB99D0812F97D086D024
:1000600085EB94D080E09CD0898388D089810F90E3
:10007000DF91CF911F9108951F93CF93DF931F922C
:10008000CDB7DEB7182F698371D084EB7FD0812F75
:100090007DD06981862F7AD00F90DF91CF911F910B
:1000A0006DC060E083E7E8DF60E084E7E5DF60E003
:1000B00086E7E2DF60E087E7DFDF61E08BE2DCDF3D
:1000C00061E08CE2D9DF60E08DE2D6DF60E08EE2B5
:1000D000D3DF61E08FE2D0DF61E080E3CDDF6FE767
:1000E00081E3CADF69E082E3C7DF6FE081E4C4DF58
:1000F00069E082E4C1DF6FE083E4BEDF69E084E4AD
:10010000BBDF6FE085E4B8DF69E086E4B5DF6FE070
:1001100087E4B2DF69E088E4AFDF6BE18BE7ACDF57
:1001200069EC8DE7A9DF62E88EE7A6DF65EB8FE774
:10013000A3DF64E88EE5A0CF559A569A579A5D984A
:100140005E985F980895BC0180E49FE1D7D0862F28
:10015000603148F07727CB01409797FF02C0CB0171
:100160000F97959587958093B800089584EA8093BA
:10017000BC008091BC0087FFFCCF089584E9809388
:10018000BC008091BC0084FDFCCF08958093BB002F
:1001900084E88093BC008091BC0087FFFCCF089569
:1001A00020E4829FC001112484689F6F8093BC006B
:1001B0008091BC0087FFFCCF8091BB000895EF9237
:1001C000FF921F93CF93DF9300D000D0CDB7DEB75F
:1001D000142F2B833C836A838983C8DF8981D6DF10
:1001E0006A81862FD3DF2B81E22E3C81F32E120F02
:1001F00004C0F70181917F01C9DF1E11FACF0F9072
:100200000F900F900F90DF91CF911F91FF90EF9083
:10021000B5CFEF92FF920F931F93CF93DF931F926F
:10022000CDB7DEB7082F142F790169839FDF802FA8
:10023000ADDF6981862FAADF99DF802F8F5FA6DF70
:1002400008C081E0111101C080E0AADFF7018193AD
:100250007F011150B0F70F90DF91CF911F910F9157
:10026000FF90EF908BCF84E690E06DDF1ADF64DFC4
:10027000789410E0D0E0C0E080E0E5DE80FF10C0C0
:100280002FEF33EF91E0215030409040E1F700C074
:100290000000C11103C05D9AC1E002C05D98C0E0DA
:1002A00081FF10C02FEF33EF91E02150304090409C
:1002B000E1F700C00000D11103C05E9AD1E002C096
:1002C0005E98D0E082FF10C02FEF33EF81E0215025
:1002D00030408040E1F700C00000111103C05F9A78
:1002E00011E002C05F9810E09FEF20E732E09150EC
:1002F00020403040E1F700C00000BECFAA1BBB1B6E
:1003000051E107C0AA1FBB1FA617B70710F0A61B15
:10031000B70B881F991F5A95A9F780959095BC0136
:08032000CD010895F894FFCF10
:00000001FF
