:100000000C9442000C945F000C945F000C945F0011
:100010000C9487020C945F000C945F000C945F00BA
:100020000C945F000C945F000C941B050C945F0013
:100030000C945F000C945F000C945F000C945F00C4
:100040000C945F000C945F000C945F000C945F00B4
:100050000C945F002008150208150220040E1520DC
:1000600020150E042004021F0204202020200E155B
:1000700017110E200E1111110E202020040A0A0A59
:10008000111F1F0E11241FBECFE5D8E0DEBFCDBF6C
:1000900010E0A0E6B0E0E0EAF3E102C005900D92C6
:1000A000A23FB107D9F721E0A2EFB0E001C01D9255
:1000B000AD32B207E1F70E94BC070C94CE090C9454
:1000C000000085B38F6085BB84B3807F84BB0895B7
:1000D000D69AD59AD49AD39A089589B383FB882760
:1000E00080F9CC998260CD998460CE99886008951A
:1000F00080FF02C0DB9A01C0DB9881FF02C0DC9A5E
:1001000001C0DC9882FF02C0DD9A01C0DD9883FF48
:1001100002C0DE9A0895DE980895CF93D698D598B8
:10012000D498D398D99ADA9A0E946D00C82FC295B4
:10013000C07FDA98DA9A0E946D00DA988C2BCF9102
:100140000895D8980C948D00CF93C82F0E94680012
:10015000D998DA9A8C2F82958F700E947800DA985D
:10016000DA9A8C2F0E947800DA980E94A10087FD0D
:10017000FCCFCF910895D8980C94A400D89A0C94F1
:10018000A400982F9058983008F487700C94BE0003
:10019000CF93DF93EC0102C00E94C10089918111CD
:1001A000FBCFDF91CF910895CF93DF93EC0102C095
:1001B0000E94C100FE01219684918111F9CFDF9147
:1001C000CF910895CF93DF93EC0121960E9480098F
:1001D000982F91509E3F20F40E94C100CE01F4CF91
:1001E000DF91CF910895CF93DF93CDB7DEB76197BD
:1001F0000FB6F894DEBF0FBECDBF4AE050E0BE019F
:100200006F5F7F4F0E942B090E94C80061960FB656
:10021000F894DEBF0FBECDBFDF91CF910895CF938D
:10022000DF93CDB7DEB761970FB6F894DEBF0FBE90
:10023000CDBF20E130E0AE014F5F5F4F0E944C091F
:100240000E94C80061960FB6F894DEBF0FBECDBF06
:10025000DF91CF910895CF93DF93CDB7DEB761974C
:100260000FB6F894DEBF0FBECDBF22E030E0AE0186
:100270004F5F5F4F0E944C090E94C80061960FB605
:10028000F894DEBF0FBECDBFDF91CF9108950F93DD
:100290001F93CF93DF93EB018770880F880F880F30
:1002A000805C0E94BB008E01085F1F4F89910E94F5
:1002B000BE00C017D107D1F7DF91CF911F910F91E9
:1002C00008950F931F93CF93DF93EB018770880FEF
:1002D000880F880F805C0E94BB008E01085F1F4F53
:1002E000FE01219684910E94BE00C017D107C1F77C
:1002F000DF91CF911F910F910895EF92FF920F938D
:100300001F93CF93DF93EB018770880F880F880FBF
:10031000805C0E94BB008E01085F1F4F7E018FEF43
:10032000E81AF80ACE010E9480090E94BE00E70187
:10033000E016F10699F7DF91CF911F910F91FF9091
:10034000EF900895813009F480E46058860F0C9492
:10035000BB0081E00C94BB00D79ADF9A0E94680032
:10036000D09AD29AD19AD89ADA9AD99A8FEF91EAFA
:100370000197F1F700C00000DA98D898D998DA9A76
:1003800083E00E947800DA9887E49CE20197F1F715
:1003900000C0DA9A83E00E947800DA9884E191E064
:1003A0000197F1F70000DA9A83E00E947800DA986A
:1003B00084E191E00197F1F70000DA9A82E00E946F
:1003C0007800DA9884E191E00197F1F7000088E283
:1003D0000E94BB0088E00E94BB008CE00E94BB0032
:1003E00086E00E94BB000C94A90185B5886085BD9C
:1003F00085B5876085BD8CE683BD89B7806889BF78
:100400000895EF92FF920F931F93CF937091F20094
:10041000772311F0761375C0FC0190819623C1E01B
:100420008091F300992311F0C0E00BC0811109C045
:10043000C093F30085E090E09093FB008093FA0076
:1004400060C0882309F45DC0CC23A9F08130E9F4B1
:100450008091FA009091FB00892B09F048C082E05E
:100460008093F30083E090E09093FB008093FA0088
:100470006093F20046C08230D0F18430C0F501159F
:100480001105D9F1F801099538C0823099F48091AD
:10049000FA009091FB00892B51F52115310511F4DB
:1004A00026E930E083E08093F3003093FB00209353
:1004B000FA001DC0833051F48091FA009091FB0046
:1004C000892BA9F484E08093F30011C0843079F47F
:1004D0008091FA009091FB00892B49F45093FB0026
:1004E0004093FA00E114F10411F0F70109958091AD
:1004F000F300833030F0C11104C01092F300109269
:10050000F200CF911F910F91FF90EF9008951F92ED
:100510000F920FB60F9211248F939F938091FA0040
:100520009091FB00009729F001979093FB00809336
:10053000FA008091F8009091F900009729F0019756
:100540009093F9008093F8008091FE009091FF0055
:10055000009729F001979093FF008093FE0080910F
:10056000FC009091FD00009729F001979093FD0009
:100570008093FC008091F6009091F700009729F09D
:1005800001979093F7008093F6009F918F910F90C1
:100590000FBE0F901F901895FC01680F791F80E027
:1005A00048E10FC0219198E0322F3827532F517026
:1005B00030FD84278695513009F480682695915046
:1005C00099F7E617F70771F708950F931F93CF93E5
:1005D000DF93CDB7DEB760970FB6F894DEBF0FBEDE
:1005E000CDBF90E1E3E6F0E0DE01119601900D92BF
:1005F0009A95E1F7DB019C911196FC91E0E0E92BE3
:10060000803179F4DF01AE7FE3E0AA0FBB1FEA95EA
:10061000E1F7FB019681ECE0F0E0E91BF109EA0F5C
:10062000FB1FF7FF07C091E0DA019C93F195E1957C
:10063000F10902C0DA011C92883281F4DB011496C0
:100640008C91982F9076903649F086FF02C0EE7F0D
:1006500005C085FF02C0EC7F01C0E87FCF0144E008
:10066000969587954A95E1F7D9018C93EF70FF270E
:10067000EC0FFD1F8181F801808380E060960FB64A
:10068000F894DEBF0FBECDBFDF91CF911F910F91C8
:100690000895882319F0719561957109442319F023
:1006A000319521953109621773074CF081E090E094
:1006B0002617370714F080E090E09C0102C02FEF6E
:1006C0003FEFC90108950F931F93CF93DF93EC0180
:1006D0008B01B80188810E948905888381508D3FF4
:1006E00030F4F8018081883211F0803191F7DF9188
:1006F000CF911F910F910895FF920F931F93CF9366
:10070000DF93CDB7DEB729970FB6F894DEBF0FBEE3
:10071000CDBF8FEF898700E011E0F12C1DC0BE0135
:100720006F5F7F4FCE0109960E94630389858F3FDB
:10073000C9F08E3FB9F0FE01319620E030E08191A2
:10074000D801A20FB31F8C932F5F3F4F2830310584
:10075000B1F7F394085F1F4F8985882319F084E06F
:10076000F812DDCF8F2D29960FB6F894DEBF0FBE9D
:10077000CDBFDF91CF911F910F91FF900895CF933F
:10078000DF93EC010E94470581110FC0BE0184EB8D
:100790000E94D50581E00E946105C82F0E9447058F
:1007A00081E0C11103C080E001C081E0DF91CF9101
:1007B00008951F93CF93DF93182FEB010E944705F5
:1007C00081110DC00E943E05882359F0BE0184E4CA
:1007D0000E94D505113039F00E94410504C081E026
:1007E00003C082E001C080E0DF91CF911F910895A6
:1007F0006F927F928F929F92AF92BF92CF92DF9231
:10080000EF92FF920F931F93CF93DF93CDB7DEB795
:1008100029970FB6F894DEBF0FBECDBF6C015B0108
:100820004A0189010E944705811128C0B6018EEB5B
:100830000E94D505EE24E394F12CEC0EFD1E3E0142
:100840008AE0680E711C0E948605F70181937F0182
:10085000E615F705C1F769E070E0CE0101960E9448
:10086000CC0281110DC09401A501BE016F5F7F4FC5
:10087000F60180810E94E50280E003C081E001C0B2
:1008800083E029960FB6F894DEBF0FBECDBFDF918F
:10089000CF911F910F91FF90EF90DF90CF90BF907D
:1008A000AF909F908F907F906F9008957F928F92DE
:1008B0009F92AF92BF92CF92DF92EF92FF920F93EF
:1008C0001F93CF93DF93CDB7DEB729970FB6F89478
:1008D000DEBF0FBECDBF782E6B015A0189010E9489
:1008E0004705811128C060E070E08EEB0E94D505BD
:1008F000EE24E394F12CEC0EFD1E4E018AE0880EEE
:10090000911C0E948605F70181937F01E815F90586
:10091000C1F769E070E0CE0101960E94CC0281111E
:100920000CC09501A601BE016F5F7F4F872D0E940D
:10093000E50280E003C081E001C083E029960FB6A4
:10094000F894DEBF0FBECDBFDF91CF911F910F9105
:10095000FF90EF90DF90CF90BF90AF909F908F90DF
:100960007F9008958BE490E09093F9008093F800D5
:1009700083B7886083BF83B7856083BF8CE68CBFF5
:1009800089B7826089BF0895CF93DF9300D01F920B
:10099000CDB7DEB70E947C038093220160E070E057
:1009A00081E00E94D9038091F8009091F900892B91
:1009B000B1F49E012D5F3F4FAE014E5F5F4FBE0110
:1009C0006F5F7F4F80E091E00E94F803811101C0CA
:1009D00029C08BE490E09093F9008093F800809117
:1009E00021018823F9F08091200180FD05C060E09D
:1009F00070E081E00E94D9038091200180FF10C047
:100A00009E012D5F3F4FAE014E5F5F4FBE016F5F96
:100A10007F4F80E091E00E94F803811101C002C085
:100A20001092210169817A818B810F900F900F9034
:100A3000DF91CF9108951F920F920FB60F9211245C
:100A40008F938091F4008F5F8093F400843680F060
:100A500081E080932101809120018F5F80932001AC
:100A6000809120018C3310F0109220011092F4003C
:100A70008F910F900FBE0F901F90189586B38270C4
:100A80000895C19AB99A0895C198B9980895C198DE
:100A9000B99A8FE295E00197F1F79FB7F894B9986A
:100AA000E3EFEA95F1F7000086B39FBFE8E7F4E0D3
:100AB0003197F1F700C0B19B02C08270089581E0C8
:100AC00008959FB7F894B99A24E02A95F1F7811117
:100AD000B99827E32A95F1F70000B19B80E026EA58
:100AE0002A95F1F7B9989FBF0895CF93DF93C82F48
:100AF000D8E08C2F81700E946105C6958111C06875
:100B0000D150B9F78C2FDF91CF9108958FEF0C94CE
:100B10007505DF92EF92FF920F931F93CF93DF93B0
:100B2000E82EEB010E944705811131C080EF0E9441
:100B30007505F12C10E498EFD92ED10E81E00E94BA
:100B40006105082F81E00E946105882319F00023C8
:100B500069F020C001110AC01E1530F0888180FFA5
:100B600005C0E11201C002C0F12E01E0802F0E94F9
:100B7000610598819695011101C001C09068988324
:100B800011501D11DBCF21961111D5CF05C0FF24C7
:100B9000FA9402C08EEFF82E8F2DDF91CF911F9126
:100BA0000F91FF90EF90DF900895FF920F931F93A6
:100BB000CF93DF93F82EEB010E944705209769F051
:100BC00085E50E9475058E01085F1F4F89910E947F
:100BD0007505C017D107D1F703C08CEC0E947505CD
:100BE0008F2DDF91CF911F910F91FF900C94750580
:100BF000E1E6F0E080818F5F8083109262000895CB
:100C0000E1E6F0E0808181508083109262000895D7
:100C10000E94A90180916000813011F482E001C03E
:100C200081E080936000089580916000813091F4AC
:100C300080912B018233F8F490912C01953020F4AF
:100C40009B5F90932C01089510922C018F5F8093ED
:100C50002B01089580912801853068F49091290135
:100C6000953020F49B5F90932901089510922901FB
:100C70008F5F809328010895809160008130A9F4EE
:100C800080912B01843138F190912C01992321F02E
:100C9000955090932C0108958431E9F095E090935C
:100CA0002C01815080932B01089580912901882384
:100CB00041F090912801992321F0855080932901DA
:100CC000089580912801882331F095E090932901BF
:100CD00081508093280108950E94A9018091F50018
:100CE000823090F482E08093F50064E080E00E941E
:100CF000A20183E790E00E94C80066E081E00E94C4
:100D0000A2018CE790E010C01092F50064E080E052
:100D10000E94A20183E790E00E94C80065E081E0A4
:100D20000E94A20181E890E00E94C8002FEF8FEBA3
:100D300091E2215080409040E1F700C000000C9407
:100D4000A9010E94A9018091F500833031F084301F
:100D500031F0823041F483E003C084E001C082E0DE
:100D60008093F50008950E94A90187E890E00C9413
:100D7000C8000E94A201809161008A3008F006C07C
:100D800089EB90E00E94C8008091610090E00E9491
:100D9000F30088E990E00E94C800809162008A30E8
:100DA00008F006C080E090E00E94F30080916200AD
:100DB00090E00C94F300109226018CE180932B01BB
:100DC00010922C011092280185E08093290108954A
:100DD00060E081E00E94A2018AE990E00E94C800E0
:100DE00080912B0190E00E94F3008DE990E00E9439
:100DF000C80080912C0190E00E94F3008FE990E000
:100E00000E94C80069E081E00E94A20182EA90E0AD
:100E10000E94C8008091280190E00E94F3008DE9B3
:100E200090E00E94C8008091290190E00E94F300A8
:100E30008FE990E00C94C80060E080E00E94A2017D
:100E400085EA90E00E94C8006AE080E00E94A2016A
:100E500088EA90E00E94C8006BE080E00E94B9063A
:100E60000C94E8060E94A9018091F500811104C04C
:100E700081E08093F50002C01092F5000C941C07ED
:100E8000811109C060E081E00E94A2018AEA90E03D
:100E90000E94C80008C0813011F460E002C068E020
:100EA00081E00E94A20182EB90E00C94C80084B320
:100EB000806E84BB85B3806E85BB0895FF920F93CF
:100EC0001F9390E02AE0729F800D911D112450E045
:100ED0002AE0329F400D511D11242091260121113D
:100EE00007C0841795078CF081E0809326010FC01E
:100EF000481B590B10E08AE0F89E000D111D1124CB
:100F00000417150724F41092260181E001C080E047
:100F10001F910F91FF900895882311F0AE980895C6
:100F2000AE9A08951F93CF93DF93162FD72FC82F14
:100F3000842F622F0E94A201112319F08BEB90E005
:100F400002C089EB90E00E94C8008D2F90E00E94C3
:100F5000F3008DE990E00E94C8008C2F90E00E9481
:100F6000F3008DEB90E00E94C8008FEB90E0DF91E2
:100F7000CF911F910C94C8000E9457070E94AC01AA
:100F80000E94B2040E94F5010E9461000E94DB06EB
:100F900078946CE770E080E80E94610164E770E09B
:100FA00081E80E9461016CE670E082E80E946101C4
:100FB00064E670E083E80E9461016CE570E084E81B
:100FC0000E94610164E570E085E80E94610184E6A9
:100FD00090E09093FF008093FE008EE190E090936C
:100FE000FD008093FC008CE390E09093F7008093E9
:100FF000F600CCE3D0E06EE1C62ED12C7BE3B72E19
:101000008091F5005CE6E52E56E0F52E823018F46E
:1010100002E317E002C001EA16E028EC30E044E603
:1010200050E061E083E390E00E9401028091F500CE
:10103000823009F472C030F4882359F0813009F00D
:1010400001C11CC0833009F4A9C0843009F0FAC082
:10105000F2C0AF98AE9A0E94C404609323017093CB
:1010600024018093250160912301709124018091D6
:10107000250121E040E00E9492074CC00E94C40478
:1010800060932301709324018093250160912301D3
:10109000709124018091250121E040E00E94920797
:1010A0000E941C07E0902701F0902801009129017F
:1010B00020912A0130912B0140912C016091230154
:1010C00070912401809125010E945E070E948C0787
:1010D0008091FE009091FF00892BE1F485B3805848
:1010E00085BB9091610080916200992341F081114C
:1010F00008C0B092620091509093610005C08823AF
:1011000019F081508093620084E690E09093FF0094
:101110008093FE000E941C0773CF60E080E00E9475
:10112000A20182EC90E00E94C80038EFE32E35E087
:10113000F32E870128EC30E04AE050E064E083E3DE
:1011400090E00E94010240E0E42E46E0F42E870188
:1011500028EC30E04AE050E068E083E390E00E9451
:1011600001028091FC009091FD00892B39F480E010
:101170000E944007D092FD00C092FC008091F600D2
:101180009091F700892B09F03BCF66E081E00E9447
:10119000B906D093F700C093F60032CF60E080E04C
:1011A0000E94A20182ED90E00E94C8008091FC00A4
:1011B0009091FD00892B41F4809160000E944007CE
:1011C000D092FD00C092FC008091F6009091F70053
:1011D000892B31F40E94E806D093F700C093F60003
:1011E00088E0E82E86E0F82E870128EC30E04AE01F
:1011F00050E062E083E390E00E94010294E1E92E76
:1012000096E0F92E870128EC30E04AE050E064E0F7
:1012100083E390E00E9401022CE3E22E26E0F22E0E
:10122000870128EC30E04AE050E068E083E390E09A
:101230000E940102E5CE60E080E00E94A20182EE01
:1012400090E006C060E080E00E94A20187E890E0A4
:101250000E94C800D5CEFB019F01E8944230C4F043
:101260004532B4F44A3029F497FB1EF490958195E9
:101270009F4F642F77270E949809805D8A330CF076
:10128000895D8193CB010097A1F716F45DE251933C
:101290001082C9010C948809FA01CF93FF93EF9350
:1012A000223044F1253234F5C22FE894CA3049F493
:1012B00097FB3EF490958095709561957F4F8F4F89
:1012C0009F4F2C2F332744275527FF93EF930E94DE
:1012D000AC09EF91FF91605D6A330CF0695D619339
:1012E000B901CA01605070408040904051F716F437
:1012F000CDE2C19310828F919F91CF910C94880978
:10130000E199FECF9FBB8EBBE09A99278DB30895DC
:10131000DC01FC01672F71917723E1F7329704C05C
:101320007C916D9370836291AE17BF07C8F30895E7
:10133000AA1BBB1B51E107C0AA1FBB1FA617B707FB
:1013400010F0A61BB70B881F991F5A95A9F7809517
:101350009095BC01CD010895A1E21A2EAA1BBB1BDA
:10136000FD010DC0AA1FBB1FEE1FFF1FA217B30771
:10137000E407F50720F0A21BB30BE40BF50B661F87
:10138000771F881F991F1A9469F76095709580954B
:1013900090959B01AC01BD01CF010895F894FFCF5A
:1013A000010A000001010202030404050606070702
:1013B00008090953455454494E4753004D4F44457D
:1013C000005341564544002020202D2D2D455252DA
:1013D0004F522D2D2D2020003A008083002E0081B9
:1013E000430080840080850082002020202020206F
:1013F00020202020202020202020002D00810043BC
:10140000200020202D2D54494D45205345542D2D8D
:10141000200020202D2D54454D50205345542D2D76
:10142000200020202D2D414952205345542D2D20A0
:0214300020009A
:00000001FF
