:100000000C942A000C9451000C9447000C94C902E3
:100010000C9447000C9447000C9447000C94470044
:100020000C9447000C9447000C9447000C94470034
:100030000C9447000C9447000C9447000C94470024
:100040000C9447000C9447000C9447000C94340126
:100050000C94470011241FBECFE5D4E0DEBFCDBF16
:1000600010E0A0E6B0E0E4E0F7E002C005900D92F9
:10007000A236B107D9F720E0A2E6B0E001C01D9298
:10008000A637B207E1F70E94F8020C9480030C94A3
:10009000000085B7836085BF8BB780648BBF929A61
:1000A00008951F920F920FB60F9211248F9381E043
:1000B00080936B008F910F900FBE0F901F9018953B
:1000C0006AE00E946003292F30E1839FC001112460
:1000D000822B0895982F92959F708F702AE0929F9F
:1000E000800D11240895CF93DF93809166000E94C4
:1000F0006A0080936A00809167000E946A00D82F8E
:1001000080936900809168000E946A00873118F42A
:10011000C82FCF5F01C0C0E0C0936400109265009B
:10012000109266008D2F0E946000809367008C2FD4
:100130000E9460008093680025E630E044E061E0C2
:1001400082EADF91CF910C94D701CF93DF93809116
:1001500066000E946A0080936A00809167000E9496
:100160006A00D82F809168000E946A00C82F80938F
:100170006400DB3318F48D2F8F5F01C080E0809323
:10018000690010926500109266000E9460008093E2
:1001900067008C2F0E9460008093680025E630E0A5
:1001A00044E061E082EADF91CF910C94D70185B3FE
:1001B000806C85BB84B38F7384BB08958BB31BBAEB
:1001C00085B3837F85BB82B38F7082BB81B3806F21
:1001D00081BBAC9AA49A83B7886083BF83B78560DC
:1001E00083BF83E18CBF89B7826089BF08951BBA42
:1001F00085B3837F85BB0895CF93DF931F92CDB7DF
:10020000DEB789830E94F70089818430E1F040F4F1
:10021000813099F020F1823091F0833001F511C0E6
:100220008730B9F028F4853081F08630C1F40FC0F2
:10023000883089F0893099F410C0D99A11C0DA9ABF
:100240000FC0DB9A0DC0DC9A0BC0DD9A09C0DE9AA4
:1002500007C0DF9A05C0AA9A03C0AB9A01C0D89A1A
:100260000F90DF91CF9108951F920F920FB60F92CA
:1002700011242F933F934F935F936F937F938F93AB
:100280009F93AF93BF93CF93EF93FF9380916000C1
:10029000803841F480916F000E94FC0082B38F701F
:1002A000806882BB80916000803419F40E94F7005E
:1002B0000AC0803241F480916D000E94FC0082B33C
:1002C0008F70806482BB80916000803119F40E943D
:1002D000F7000AC0883041F480916E000E94FC0053
:1002E00082B38F70806282BB80916000843019F489
:1002F0000E94F7000AC0823041F480916C000E9495
:10030000FC0082B38F70806182BBC0916000C130FD
:1003100011F40E94F700C69519F0C093600003C065
:1003200080E880936000FF91EF91CF91BF91AF91F2
:100330009F918F917F916F915F914F913F912F91FD
:100340000F900FBE0F901F901895BC0180E49FE1A5
:100350000E946C03862F603148F07727CB014097CD
:1003600097FF02C0CB010F979595879580B90895A7
:1003700084EA86BF06B607FEFDCF089584E986BFEE
:1003800006B604FCFDCF089583B984E886BF06B69F
:1003900007FEFDCF089520E4829FC00111248468E8
:1003A0009F6F86BF06B607FEFDCF83B10895EF921B
:1003B000FF921F93CF93DF9300D000D0CDB7DEB76D
:1003C000142F2B833C836A8389830E94B80189811F
:1003D0000E94C4016A81862F0E94C4012B81E22EF3
:1003E0003C81F32E120F05C0F70181917F010E941D
:1003F000C4011E11F9CF0F900F900F900F90DF9155
:10040000CF911F91FF90EF900C94BE01EF92FF925D
:100410000F931F93CF93DF931F92CDB7DEB7082FB3
:10042000142F790169830E94B801802F0E94C401B2
:100430006981862F0E94C4010E94B801802F8F5FBE
:100440000E94C40109C081E0111101C080E00E9436
:10045000CB01F70181937F011150A8F70F90DF9135
:10046000CF911F910F91FF90EF900C94BE0185B535
:10047000886085BD85B5876085BD8EE483BD89B7FD
:10048000806889BF0895EF92FF920F931F93CF93D7
:1004900070916200772311F0761375C0FC01908192
:1004A0009623C1E080916300992311F0C0E00BC056
:1004B000811109C0C093630085E090E090937100C2
:1004C0008093700060C0882309F45DC0CC23A9F03C
:1004D0008130E9F48091700090917100892B09F0CE
:1004E00048C082E08093630083E090E090937100C5
:1004F000809370006093620046C08230D0F18430F7
:10050000C0F501151105D9F1F801099538C08230FF
:1005100099F48091700090917100892B51F521150B
:10052000310511F426E930E083E0809363003093D5
:100530007100209370001DC0833051F480917000D1
:1005400090917100892BA9F484E08093630011C01D
:10055000843079F48091700090917100892B49F476
:100560005093710040937000E114F10411F0F70111
:10057000099580916300833030F0C11104C010925E
:10058000630010926200CF911F910F91FF90EF9046
:1005900008951F920F920FB60F9211248F939F937D
:1005A0008091700090917100009729F001979093CD
:1005B0007100809370008091740090917500009795
:1005C00029F00197909375008093740080917200D8
:1005D00090917300009729F0019790937300809396
:1005E00072009F918F910F900FBE0F901F901895E2
:1005F0000E9449000E94DE000E94D70084E690E03D
:100600000E94A5010E9437027894CAE0D0E12091AF
:1006100064002A3028F0822F6C2F0E94600301C0F2
:1006200080E080936F00822F6C2F0E946003909374
:100630006D00809169000E94600380936E0090932A
:100640006C0083E7E82E80E0F82E870124E630E096
:100650004AE050E060E483E390E00E94430295EAC0
:10066000E92E90E0F92E870124E630E04AE050E0E0
:1006700060E883E390E00E94430280916B0088234E
:1006800031F225E630E044E061E082EA0E940602B1
:10069000809166000E946A0080936A0080916700E2
:1006A0000E946A0080936900809168000E946A003D
:1006B0008093640085B38D2785BB10926B00A7CF14
:1006C000991B79E004C0991F961708F0961B881FA4
:1006D0007A95C9F780950895AA1BBB1B51E107C005
:1006E000AA1FBB1FA617B70710F0A61BB70B881FC2
:1006F000991F5A95A9F780959095BC01CD01089551
:04070000F894FFCF9B
:02070400800073
:00000001FF
