:100000001DC037C036C035C034C033C032C031C067
:1000100030C02FC02EC02DC02CC02BC02AC029C07C
:1000200028C027C026C025C024C023C022C021C0AC
:1000300020C01FC00E1111110E20202011241FBE40
:10004000CFEFD4E0DEBFCDBF11E0A0E0B1E0E0E152
:10005000FDE002C005900D92AA31B107D9F721E069
:10006000AAE1B1E001C01D92A535B207E1F717D5AD
:100070004DC6C6CF569A559A549A539A089589B147
:1000800083FB882780F94C9982604D9984604E9952
:100090008860089580FF02C05B9A01C05B9881FF71
:1000A00002C05C9A01C05C9882FF02C05D9A01C0E8
:1000B0005D9883FF02C05E9A08955E980895CF937D
:1000C0005698559854985398599A5A9AD8DFC82FE9
:1000D000C295C07F5A985A9AD2DF5A988C2BCF91EA
:1000E00008955898ECCFCF93C82FC4DF59985A9AE7
:1000F0008C2F82958F70CEDF5A985A9A8C2FCADF38
:100100005A98EFDF87FDFDCFCF9108955898EBCF38
:10011000589AE9CF982F9058983008F48770F8CF04
:10012000CF93DF93EC0101C0F5DF89918111FCCF02
:10013000DF91CF910895CF93DF93EC0101C0EADF07
:10014000FE01219684918111FACFDF91CF9108951C
:10015000CF93DF93EC012196C1D5982F91509E3F0C
:1001600018F4D8DFCE01F6CFDF91CF910895CF9369
:10017000DF93CDB7DEB761970FB6F894DEBF0FBE41
:10018000CDBF4AE050E0BE016F5F7F4F56D5C8DF5C
:1001900061960FB6F894DEBF0FBECDBFDF91CF9151
:1001A0000895CF93DF93CDB7DEB761970FB6F8947C
:1001B000DEBF0FBECDBF20E130E0AE014F5F5F4F2D
:1001C0005BD5AEDF61960FB6F894DEBF0FBECDBF34
:1001D000DF91CF9108950F931F93CF93DF93EB019E
:1001E0008770880F880F880F805C90DF8E01085F12
:1001F0001F4F89918DDFC017D107D9F7DF91CF91BC
:100200001F910F9108950F931F93CF93DF93EB01ED
:100210008770880F880F880F805C78DF8E01085FF9
:100220001F4FFE012196849173DFC017D107C9F7D4
:10023000DF91CF911F910F910895EF92FF920F934D
:100240001F93CF93DF93EB018770880F880F880F80
:10025000805C5CDF8E01085F1F4F7E018FEFE81A24
:10026000F80ACE013BD554DFE701E016F106A9F705
:10027000DF91CF911F910F91FF90EF900895813002
:1002800009F480E46058860F41CF81E03FCF579A50
:100290005F9AF0DE509A529A519A589A5A9A599AFD
:1002A0008FE295E70197F1F700C000005A9858983F
:1002B00059985A9A83E0EEDE5A9887E090E20197C7
:1002C000F1F700C000005A9A83E0E4DE5A9887EC08
:1002D00090E00197F1F700C000005A9A83E0DADE5F
:1002E0005A9887EC90E00197F1F700C000005A9A05
:1002F00082E0D0DE5A9887EC90E00197F1F700C0D9
:10030000000088E203DF88E001DF8CE0FFDE86E0AA
:10031000FDDEBBCFBC0180E49FE122D4862F60319B
:1003200048F07727CB01409797FF02C0CB010F978A
:10033000959587958093B800089584EA8093BC00D2
:100340008091BC0087FFFCCF089584E98093BC00B6
:100350008091BC0084FDFCCF08958093BB0084E8AD
:100360008093BC008091BC0087FFFCCF089520E4FF
:10037000829FC001112484689F6F8093BC0080918C
:10038000BC0087FFFCCF8091BB000895EF92FF92E5
:100390001F93CF93DF9300D000D0CDB7DEB7142FDB
:1003A0002B833C836A838983C8DF8981D6DF6A8196
:1003B000862FD3DF2B81E22E3C81F32E120F04C057
:1003C000F70181917F01C9DF1E11FACF0F900F90C5
:1003D0000F900F90DF91CF911F91FF90EF90B5CFCD
:1003E000EF92FF920F931F93CF93DF931F92CDB79E
:1003F000DEB7082F142F790169839FDF802FADDFCF
:100400006981862FAADF99DF802F8F5FA6DF08C062
:1004100081E0111101C080E0AADFF70181937F0123
:100420001150B0F70F90DF91CF911F910F91FF9076
:10043000EF908BCF82DF80E890DF8EEF8EDF85CF6D
:100440001F93CF93DF93182FEB0177DF80E885DFD1
:1004500083EE83DF7ADF71DF81E87FDF2FEB87E5D3
:1004600091E0215080409040E1F700C0000006C0BC
:1004700081E0111101C080E07ADF89931150C0F74B
:10048000DF91CF911F9161CF1F93CF93DF93182FEF
:10049000EB0153DF80E861DF85EE5FDF56DF4DDF84
:1004A00081E85BDF2FEB87E591E0215080409040B1
:1004B000E1F700C0000006C081E0111101C080E03A
:1004C00056DF89931150C0F7DF91CF911F913DCF37
:1004D000CF93DF93CDB7DEB766970FB6F894DEBF44
:1004E0000FBECDBF9E012F5F3F4F46E16AEA8EEE01
:1004F00077DF998180E02A81822B90932501809378
:1005000024019B8180E02C81822B90933701809382
:1005100036019D8180E02E81822B9093390180935A
:1005200038019F8180E02885822B9093330180934E
:100530003201998580E02A85822B90932D0180934A
:100540002C019B8580E02C85822B90932701809342
:1005500026019D8580E02E85822B9093410180931A
:1005600040019F8580E02889822B90933B018093F6
:100570003A01998980E02A89822B909335018093F2
:1005800034019B8980E02C89822B909343018093D6
:1005900042019D8980E02E89822B909323018093D4
:1005A000220166960FB6F894DEBF0FBECDBFDF9175
:1005B000CF910895CF93DF9300D01F92CDB7DEB7D0
:1005C0008EE28B839E012D5F3F4F41E064EF8EEE04
:1005D000DDDE8FE097E20197F1F700C000009E0199
:1005E0002F5F3F4F42E066EF8EEEFADE898190E0AA
:1005F000A0E0B0E0BA2FA92F982F88272A81822B5C
:1006000080933C0190933D01A0933E01B0933F0144
:100610000F900F900F90DF91CF910895CF93DF93BC
:1006200000D000D0CDB7DEB784EF8C839E012C5F65
:100630003F4F41E064EF8EEEA9DE8FE19BEC019726
:10064000F1F700C000009E012F5F3F4F43E066EFCF
:100650008EEEC6DE29818A8190E0A0E0B0E0BA2F5C
:10066000A92F982F8827A22B2B81822B45E0B595A7
:10067000A795979587954A95D1F7809328019093F0
:100680002901A0932A01B0932B010F900F900F9096
:100690000F90DF91CF910895CF92DF92EF92FF926A
:1006A0000F931F9387DF809126019091270120915E
:1006B0003C0130913D0140913E0150913F01281B8A
:1006C000390B41095109A0912C01B0912D01A5D2FE
:1006D0006B017C015FE0F594E794D794C7945A9539
:1006E000D1F76091420170914301882777FD809591
:1006F000982FEBE0660F771F881F991FEA95D1F7B7
:100700002091220130912301442737FD4095542F39
:100710002C0D3D1D4E1D5F1D59D22C0D3D1D4E1D36
:100720005F1D20932E0130932F0140933001509391
:10073000310189019A01085F1F4F2F4F3F4FF4E0AD
:100740003595279517950795FA95D1F7B801C90101
:100750001F910F91FF90EF90DF90CF9008954F92EF
:100760005F926F927F928F929F92AF92BF92CF9241
:10077000DF92EF92FF920F931F93CF93DF9300D0FE
:1007800000D0CDB7DEB74ADF80902E0190902F01C8
:10079000A0903001B090310180EA881A8FE0980A69
:1007A000A108B108A5019401C501B401CAD12B016A
:1007B0003C010091240110912501A0913801B091D4
:1007C000390135D26B017C013DE0F594E794D79473
:1007D000C7943A95D1F7A0914001B0914101A3018E
:1007E00092016CE055954795379527956A95D1F715
:1007F0001ED2BB2797FDB095AB2FC80ED91EEA1E9F
:10080000FB1E92E0C90ED11CE11CF11CF2E0F59434
:10081000E794D794C794FA95D1F7A0E8DA0EE11CD3
:10082000F11CA0913201B0913301A7019601F5D1DD
:10083000DC01CB012FE0B695A795979587952A9572
:10084000D1F789839A83AB83BC836801EE24D7FCFC
:10085000E094FE2C32E0CC0CDD1CEE1CFF1C3A9523
:10086000D1F7A0913A01B0913B01A3019201DFD1F0
:100870002B013C0147E175946794579447944A953E
:10088000D1F7A0913601B0913701A5019401CFD1E4
:100890005BE095958795779567955A95D1F7460EC4
:1008A000571E681E791EC40CD51CE61CF71CCC0C08
:1008B000DD1CEE1CFF1C2091280130912901409184
:1008C0002A0150912B012C193D094E095F09AAE616
:1008D000B8E1A3D197FD0CC0660F771F881F991F41
:1008E00029813A814B815C814FD149015A010BC06A
:1008F00029813A814B815C8147D149015A01880C99
:10090000991CAA1CBB1C9927B7FC9A958B2D7A2D94
:10091000692D9B01AC0115D19B01AC01AEEDBBE093
:100920007CD16C01FF24D7FCF094EF2CA3E4B3EE50
:10093000A50194017ED1BB2797FDB095AB2FC80EC2
:10094000D91EEA1EFB1E9FECC90E9EE0D91EE11CBB
:10095000F11C04E0F594E794D794C7940A95D1F775
:10096000C80CD91CEA1CFB1CB601C7010F900F90E4
:100970000F900F90DF91CF911F910F91FF90EF900B
:10098000DF90CF90BF90AF909F908F907F906F90AF
:100990005F904F900895CF92DF92EF92FF9260E0C8
:1009A00080E06DDC80E091E0BBDB609148017091FC
:1009B000490180914A0190914B012AE0C22ED12C2D
:1009C000E12CF12CA701960101D1C901D0DB84E013
:1009D00091E0A6DB609148017091490180914A0144
:1009E00090914B01A7019601F1D0CB01C0DB86E0CD
:1009F00091E096DB88E091E093DB60E081E03FDC12
:100A00008AE091E08DDB60914F01709150018091FF
:100A100051019091520134E6C32ED12CE12CF12CDE
:100A2000A7019601D3D0C901A2DB84E091E078DB75
:100A300060914F017091500180915101909152014C
:100A4000A7019601C3D06A307105810591051CF498
:100A50008EE091E065DB60914F01709150018091D3
:100A600051019091520124E630E040E050E0AED0D8
:100A7000CB017DDB80E191E053DB6AE080E0FFDBCE
:100A800084E191E04DDB80914401909145016FDB61
:100A900088E191E0FF90EF90DF90CF9041CB8FE223
:100AA00095E70197F1F700C00000F1DBEEDB84E68B
:100AB00090E030DC789464E370E080E8A4DB08DD4B
:100AC000B9DCEADD609348017093490180934A01E3
:100AD00090934B0144DE60934F01709350018093DB
:100AE00051019093520157DF6CE471E083E0CCDC5C
:100AF00080914D018695869590914C01D92F20E0EB
:100B0000C22F9E01282B3093540120935301ADE74F
:100B1000B0E077D0AA27BB270697A109B109809337
:100B2000440190934501A0934601B09347018FEF94
:100B300094E32CE0815090402040E1F700C0000099
:100B4000C0CFDB018F939F9368D0BF91AF91A29FDD
:100B5000800D911DA39F900DB29F900D11240895BB
:100B6000AA1BBB1B51E107C0AA1FBB1FA617B707D3
:100B700010F0A61BB70B881F991F5A95A9F78095EF
:100B80009095BC01CD010895A1E21A2EAA1BBB1BB2
:100B9000FD010DC0AA1FBB1FEE1FFF1FA217B30749
:100BA000E407F50720F0A21BB30BE40BF50B661F5F
:100BB000771F881F991F1A9469F760957095809523
:100BC00090959B01AC01BD01CF010895052E97FBC7
:100BD00016F4009406D057FD0CD0D6DF07FC09D0E0
:100BE0007EF490958095709561957F4F8F4F9F4FC4
:100BF000089550954095309521953F4F4F4F5F4F49
:100C00000895A29FB001B39FC001A39F01D0B29FDE
:100C1000700D811D1124911D0895F3DFA59F900D86
:100C2000B49F900DA49F800D911D11240895B7FFCE
:100C3000F4CFF3DF821B930B0895FB019F01E8942F
:100C40004230BCF04532ACF44A3029F497FB1EF434
:100C5000909581959F4F642F772782DF805D8A333F
:100C60000CF0895D8193CB010097A9F716F45DE242
:100C700051931082C9013AC0FA01CF93FF93EF93C9
:100C800022303CF125322CF5C22FE894CA3049F4C9
:100C900097FB3EF490958095709561957F4F8F4FAF
:100CA0009F4F2C2F332744275527FF93EF936CDF5B
:100CB000EF91FF91605D6A330CF0695D6193B9015A
:100CC000CA01605070408040904059F716F4CDE260
:100CD000C19310828F919F91CF9108C0F999FECF57
:100CE00092BD81BDF89A992780B50895DC01FC0179
:100CF000672F71917723E1F7329704C07C916D9350
:100D000070836291AE17BF07C8F30895F894FFCFC0
:100D1000543A20002E0080004300433A2000300067
:0A0D200068506100573A20002500DA
:00000001FF
