:100000001FC0F4C538C037C036C035C034C033C097
:1000100032C031C030C02FC02EC02DC02CC02BC06C
:100020002AC029C028C027C026C025C024C023C09C
:1000300022C021C041544E454C0041544E454C0015
:1000400011241FBECFEFD4E0DEBFCDBF11E0A0E092
:10005000B1E0E4EDFDE002C005900D92A030B107E3
:10006000D9F721E0A0E0B1E001C01D92A136B207AE
:10007000E1F761D3ADC6C4CFBC0180E49FE10CD6EB
:10008000862F603148F07727CB01409797FF02C059
:10009000CB010F97959587958093B800089584EAD2
:1000A0008093BC008091BC0087FFFCCF089584E959
:1000B0008093BC008091BC0084FDFCCF08958093A8
:1000C000BB0084E88093BC008091BC0087FFFCCF1C
:1000D000089520E4829FC001112484689F6F80935B
:1000E000BC008091BC0087FFFCCF8091BB000895CD
:1000F000EF92FF921F93CF93DF9300D000D0CDB744
:10010000DEB7142F2B833C836A838983C8DF898100
:10011000D6DF6A81862FD3DF2B81E22E3C81F32E3E
:10012000120F04C0F70181917F01C9DF1E11FACFC0
:100130000F900F900F900F90DF91CF911F91FF9034
:10014000EF90B5CFEF92FF920F931F93CF93DF9372
:100150001F92CDB7DEB7082F142F790169839FDF77
:10016000802FADDF6981862FAADF99DF802F8F5F17
:10017000A6DF08C081E0111101C080E0AADFF7010D
:1001800081937F011150B0F70F90DF91CF911F91B4
:100190000F91FF90EF908BCF82DF80E890DF8EEFA2
:1001A0008EDF85CF1F93CF93DF93182FEB0177DF7F
:1001B00080E885DF85EE83DF7ADF71DF81E87FDF2E
:1001C0002FEB87E591E0215080409040E1F700C09F
:1001D000000006C081E0111101C080E07ADF899340
:1001E0001150C0F7DF91CF911F9161CFCF93DF9373
:1001F000CDB7DEB766970FB6F894DEBF0FBECDBFA2
:100200009E012F5F3F4F46E16AEA8EEE9BDF9981A8
:1002100080E02A81822B90930C0180930B019B81BB
:1002200080E02C81822B90931E0180931D019D8183
:1002300080E02E81822B9093200180931F019F816B
:1002400080E02885822B90931A018093190199856B
:1002500080E02A85822B90931401809313019B8563
:1002600080E02C85822B90930E0180930D019D855B
:1002700080E02E85822B90932801809327019F8513
:1002800080E02889822B9093220180932101998913
:1002900080E02A89822B90931C0180931B019B890B
:1002A00080E02C89822B90932A01809329019D89DB
:1002B00080E02E89822B90930A0180930901669633
:1002C0000FB6F894DEBF0FBECDBFDF91CF9108957A
:1002D000CF93DF9300D01F92CDB7DEB78EE28B8332
:1002E0009E012D5F3F4F41E064EF8EEE01DF8FE016
:1002F00097E20197F1F700C000009E012F5F3F4F8A
:1003000042E066EF8EEE1EDF898190E0A0E0B0E073
:10031000BA2FA92F982F88272A81822B8093230117
:1003200090932401A0932501B09326010F900F9084
:100330000F90DF91CF910895CF93DF9300D000D03D
:10034000CDB7DEB784EF8C839E012C5F3F4F41E039
:1003500064EF8EEECDDE8FE19BEC0197F1F700C0EC
:1003600000009E012F5F3F4F43E066EF8EEEEADE16
:1003700029818A8190E0A0E0B0E0BA2FA92F982FC0
:100380008827A22B2B81822B45E0B695A7959795C0
:1003900087954A95D1F780930F0190931001A09310
:1003A0001101B09312010F900F900F900F90DF91F9
:1003B000CF910895CF92DF92EF92FF920F931F9308
:1003C00087DF80910D0190910E01209123013091E2
:1003D00024014091250150912601281B390B410928
:1003E0005109A0911301B0911401B3D46B017C01A8
:1003F0005FE0F594E794D794C7945A95D1F760914C
:10040000290170912A01882777FD8095982FEBE0CC
:10041000660F771F881F991FEA95D1F72091090170
:1004200030910A01442737FD4095542F2C0D3D1D76
:100430004E1D5F1D67D42C0D3D1D4E1D5F1D20936D
:10044000150130931601409317015093180189014B
:100450009A01085F1F4F2F4F3F4FF4E035952795C6
:1004600017950795FA95D1F7B801C9011F910F911A
:10047000FF90EF90DF90CF9008954F925F926F9230
:100480007F928F929F92AF92BF92CF92DF92EF9224
:10049000FF920F931F93CF93DF9300D000D0CDB77F
:1004A000DEB74ADF8090150190901601A0901701E9
:1004B000B090180180EA881A8FE0980AA108B10864
:1004C000A5019401C501B401D8D32B013C010091D1
:1004D0000B0110910C01A0911F01B091200143D498
:1004E0006B017C013DE0F594E794D794C7943A956D
:1004F000D1F7A0912701B0912801A30192016CE0EE
:1005000055954795379527956A95D1F72CD4BB27F4
:1005100097FDB095AB2FC80ED91EEA1EFB1E92E0C8
:10052000C90ED11CE11CF11CF2E0F594E794D794BC
:10053000C794FA95D1F7A0E8DA0EE11CF11CA0915E
:100540001901B0911A01A701960103D4DC01CB0176
:100550002FE0B695A795979587952A95D1F789832A
:100560009A83AB83BC836801EE24D7FCE094FE2C15
:1005700032E0CC0CDD1CEE1CFF1C3A95D1F7A091AB
:100580002101B0912201A3019201EDD32B013C0185
:1005900047E175946794579447944A95D1F7A09191
:1005A0001D01B0911E01A5019401DDD35BE095957D
:1005B0008795779567955A95D1F7460E571E681E11
:1005C000791EC40CD51CE61CF71CCC0CDD1CEE1CE3
:1005D000FF1C20910F0130911001409111015091A9
:1005E00012012C193D094E095F09AAE6B8E1B1D301
:1005F00097FD0CC0660F771F881F991F29813A81CC
:100600004B815C815DD349015A010BC029813A813C
:100610004B815C8155D349015A01880C991CAA1C55
:10062000BB1C9927B7FC9A958B2D7A2D692D9B01C0
:10063000AC0123D39B01AC01AEEDBBE08AD36C01CE
:10064000FF24D7FCF094EF2CA3E4B3EEA5019401B2
:100650008CD3BB2797FDB095AB2FC80ED91EEA1ED1
:10066000FB1E9FECC90E9EE0D91EE11CF11C04E0AC
:10067000F594E794D794C7940A95D1F7C80CD91C80
:10068000EA1CFB1CB601C7010F900F900F900F9052
:10069000DF91CF911F910F91FF90EF90DF90CF905E
:1006A000BF90AF909F908F907F906F905F904F9092
:1006B00008955298219A229A239A2498259A5A9A10
:1006C00029982A9A2B982C982D988CB580658CBDEA
:1006D0008DB581608DBD08958EBD0DB407FEFDCF33
:1006E0008EB508958EBD0DB407FEFDCF0895EF922F
:1006F000FF920F931F93CF93DF9300D0CDB7DEB758
:100700008C017B010BC0F70181917F0149836A83D2
:10071000E3DFF80181938F016A8149818E2D861B69
:10072000841788F30F900F90DF91CF911F910F9155
:10073000FF90EF900895CF93DF93CDB7DEB7639727
:100740000FB6F894DEBF0FBECDBF84E690E094DC18
:1007500025D24CDD21DD789434E6432E512C612CDA
:10076000712C4AE0C42ED12CE12CF12C23DE6093B5
:100770002F017093300180933101909332017DDE1F
:10078000609336017093370180933801909339015B
:1007900063E371E083E006DD809134018695869500
:1007A00030903301212C9101282B30933B01209371
:1007B0003A01ADE7B0E0C1D2AA27BB270697A1094D
:1007C000B10980932B0190932C01A0932D01B0933C
:1007D0002E0160913601709137018091380190911E
:1007E0003901A30192018ED259014B014AE050E038
:1007F000BE016F5F7F4F80912F0190913001B9D280
:10080000C501885E9340883E934050F44AE050E032
:10081000BE01635F7F4F81E090E0ABD28D8501C068
:1008200080E28C83C50164E670E036D2CB010AE039
:1008300010E0B80131D24AE050E0BE016D5E7F4F5A
:1008400098D28B898D83C501B80126D25C01CB017A
:10085000B80122D24AE050E0BE016E5E7F4F89D2DD
:100860008A898E834AE050E0BE016F5E7F4FC501EA
:1008700080D289898F83C401B8010ED29B018C017B
:100880004AE050E0BE01605F7F4FC90172D28889A3
:1008900088874AE050E0BE01615F7F4FC80169D29E
:1008A0008F85898760912B0170912C0180912D019A
:1008B00090912E01A701960103D289019A014AE085
:1008C00050E0BE01625F7F4FC80153D28E858A8798
:1008D00060912B0170912C0180912D0190912E013E
:1008E000A7019601EDD1DC01CB014AE050E0BE0149
:1008F000635F7F4F3ED28D858B871C86CE0101962C
:10090000EDD09FEF29E688E1915020408040E1F74B
:1009100000C000002BCF2A988F71E4DE8FEFDCDE61
:100920002A9A0895CF93DF931F92CDB7DEB72A9806
:100930008F7180626983D6DE6981862FD3DE2A9A21
:100940000F90DF91CF9108950F931F93CF93DF9373
:100950001F92CDB7DEB78B012A988F7180624983D1
:10096000C1DE4981B801C801C2DE2A9A0F90DF9129
:10097000CF911F910F910895CF93DF9300D000D0B6
:100980001F92CDB7DEB7DE0111969E012A5F3F4F61
:10099000FC010196E491ED93A217B307C9F745E076
:1009A000BE016F5F7F4F80E1CFDF0F900F900F9000
:1009B0000F900F90DF91CF910895CF93DF9300D0E8
:1009C00000D01F92CDB7DEB7803128F48A3018F0FE
:1009D0008C30A8F401C08AE0DE0111969E012A5FE6
:1009E0003F4FFB016F5F7F4FE491ED93A217B30779
:1009F000C1F745E0BE016F5F7F4FA6DF04C0FB017A
:100A0000649169838FDF0F900F900F900F900F907C
:100A1000DF91CF9108951F93CF93DF931F92CDB7AE
:100A2000DEB7182F80E0698376DF6981113009F421
:100A300004C0123011F4846001C08B7F613011F466
:100A4000886003C0623009F4877F682F80E00F90D0
:100A5000DF91CF911F9166CF299880E05CDF682FEE
:100A60006E7F626080E05ECF682F6F7785E05ACF3F
:100A70002A9881EE37DE2A9A08952A9882EE32DE8D
:100A80002A9A08950F931F93CF93DF931F92CDB7A8
:100A9000DEB7182F042F82E069833DDF982F69812C
:100AA000613011F4912B05C0623019F4812F8095CB
:100AB0009823692F82E036DF81E02DDF682F013037
:100AC00011F4612B04C0023011F41095612381E010
:100AD0000F90DF91CF911F910F9124CFEF92FF9252
:100AE0000F931F93CF93DF931F92CDB7DEB7182FCD
:100AF00080915D01813089F181E080935D01809179
:100B00005E01813019F4A0915F0108C0E12FF92F37
:100B1000DF010D900020E9F71197A11B0A2FA032E9
:100B200008F00FE1998398DFEBE2F1E03197F1F7FC
:100B300000C000002A9880EAD5DDE12E9981F92EC7
:100B400004C0F70181917F01CDDD8E2D811B8017BF
:100B5000C0F380E0C7DD2A9A299A0F90DF91CF91E8
:100B60001F910F91FF90EF900895CF93C62F682F9C
:100B70008CE1D8DE8DE1CFDEC13011F4846003C09A
:100B8000C23009F48B7F682F8DE1CF91CBCEE89AEC
:100B9000E9E6F0E080818260808308958ADDF7DFF6
:100BA00084E390E0E9DE6AE370E08AE006DF60E07B
:100BB00080E0B8DE62DF5CDF61E081E02CDF8AE0AC
:100BC00053DF41E061E081E05DDF6FE084E0AADEB9
:100BD00066E086E0A7DE61E081E0C7DF81E0809328
:100BE000600110925D0160E787E09CCE1F920F923A
:100BF0000FB60F9211242F933F934F935F936F93F0
:100C00007F938F939F93AF93BF93CF93EF93FF9374
:100C10002A988FEF61DDC82F2A9A86FF03C081E0F2
:100C200080936001C5FF0AC081E080930001C0622B
:100C30006C2F87E077DE10925D012998C4FF0BC00E
:100C400010925D016C2F606387E06CDE81E0809321
:100C500000010EDF2998FF91EF91CF91BF91AF91E5
:100C60009F918F917F916F915F914F913F912F91C4
:100C70000F900FBE0F901F901895DB018F939F93DD
:100C800068D0BF91AF91A29F800D911DA39F900D41
:100C9000B29F900D11240895AA1BBB1B51E107C000
:100CA000AA1FBB1FA617B70710F0A61BB70B881FFC
:100CB000991F5A95A9F780959095BC01CD0108958B
:100CC000A1E21A2EAA1BBB1BFD010DC0AA1FBB1F50
:100CD000EE1FFF1FA217B307E407F50720F0A21BC2
:100CE000B30BE40BF50B661F771F881F991F1A942F
:100CF00069F760957095809590959B01AC01BD0159
:100D0000CF010895052E97FB16F4009406D057FDE9
:100D10000CD0D6DF07FC09D07EF4909580957095B5
:100D200061957F4F8F4F9F4F089550954095309517
:100D300021953F4F4F4F5F4F0895A29FB001B39F42
:100D4000C001A39F01D0B29F700D811D1124911D80
:100D50000895F3DFA59F900DB49F900DA49F800D83
:100D6000911D11240895B7FFF4CFF3DF821B930B7D
:100D70000895FB019F01E8944230BCF04532ACF489
:100D80004A3029F497FB1EF4909581959F4F642F6C
:100D9000772782DF805D8A330CF0895D8193CB01F8
:100DA0000097A9F716F45DE251931082C90100C0C3
:100DB000DC01FC01672F71917723E1F7329704C0C2
:100DC0007C916D9370836291AE17BF07C8F308954D
:040DD000F894FFCFC5
:00000001FF
