:1000000023C0F9C13CC03BC03AC039C038C037C07A
:1000100036C035C034C033C032C031C026C32FC053
:100020002EC02DC02CC02BC02AC029C028C027C07C
:1000300026C025C041544E454C0041544E454C000D
:100040000E1111110E20202011241FBECFEFD4E07D
:10005000DEBFCDBF11E0A0E0B1E0E2E1F8E002C018
:1000600005900D92A830B107D9F721E0A8E0B1E0E2
:1000700001C01D92A533B207E1F75FD3C8C3C0CF5B
:100080002298219A229A239A2498259A2A9A299882
:100090002A9A2B9A2D9A8CB582658CBD8DB581607C
:1000A0008DBD08958EBD0DB407FEFDCF8EB50895AC
:1000B0008EBD0DB407FEFDCF0895EF92FF920F9312
:1000C0001F93CF93DF9300D0CDB7DEB78C017B01B8
:1000D0000BC0F70181917F0149836A83E3DFF80157
:1000E00081938F016A8149818E2D861B841788F345
:1000F0000F900F90DF91CF911F910F91FF90EF9094
:1001000008952A988F71D4DF8FEFCCDF2A9A089553
:10011000CF93DF931F92CDB7DEB72A988F7180629D
:100120006983C6DF6981862FC3DF2A9A0F90DF912A
:10013000CF9108950F931F93CF93DF931F92CDB765
:10014000DEB78B012A988F7180624983B1DF4981C4
:10015000B801C801B2DF2A9A0F90DF91CF911F91A9
:100160000F910895CF93DF9300D000D01F92CDB7A9
:10017000DEB7DE0111969E012A5F3F4FFC0101961A
:10018000E491ED93A217B307C9F745E0BE016F5F95
:100190007F4F80E1CFDF0F900F900F900F900F9067
:1001A000DF91CF910895CF93DF9300D000D01F92BD
:1001B000CDB7DEB7803128F48A3018F08C30A8F43F
:1001C00001C08AE0DE0111969E012A5F3F4FFB01CC
:1001D0006F5F7F4FE491ED93A217B307C1F745E03E
:1001E000BE016F5F7F4FA6DF04C0FB01649169838E
:1001F0008FDF0F900F900F900F900F90DF91CF91A6
:1002000008951F93CF93DF931F92CDB7DEB7182FBA
:1002100080E0698376DF6981113009F404C012300F
:1002200011F4846001C08B7F613011F4886003C0D9
:10023000623009F4877F682F80E00F90DF91CF91C3
:100240001F9166CF299880E05CDF682F636080E0B3
:100250005FDF299A83E091E00197F1F700C0000089
:100260000895FF920F931F93CF93DF93809108011E
:10027000813019F4E7DF1092080180912F01882363
:10028000C9F1299810922F018BE091E0082F2A984C
:1002900080E60EDF8FEF06DF182F2A9A813250F0AA
:1002A0002A988FEFFFDE2A9A682F606487E030DF9C
:1002B000299A20C02A9881E6FBDECBE0D1E0F12E1E
:1002C000F00E03C08FEFEEDE8993FC12FBCF2A9A6B
:1002D00087E117DFC82F112351F0E0910901F09158
:1002E0000A01309721F0612F8BE091E00995C0FF62
:1002F000CECFD6CFDF91CF911F910F91FF90089570
:10030000682F6F7785E004CF2A9881EED1DE2A9A94
:1003100008952A9882EECCDE2A9A08950F931F93AF
:10032000CF93DF931F92CDB7DEB7182F042F82E053
:100330006983E7DE982F6981613011F4912B05C044
:10034000623019F4812F80959823692F82E0E0DED6
:1003500081E0D7DE682F013011F4612B04C0023038
:1003600011F41095612381E00F90DF91CF911F91DF
:100370000F91CECECF93C62F682F8CE1C9DE8DE1D1
:10038000C0DEC13011F4846003C0C23009F48B7F39
:10039000682F8DE1CF91BCCEE89AE9E6F0E080814C
:1003A0008260808308956CDEF7DF84E390E0DADE1C
:1003B0006AE370E08AE0F7DE60E080E0A9DEA9DFB2
:1003C000A3DF61E081E01DDF8AE09ADF41E061E0C8
:1003D00081E0A4DF6FEF84E09BDE66E086E098DEDC
:1003E00061E081E0C7DF81E080932F0110922C0152
:1003F00060E787E08DCE1F920F920FB60F92112407
:100400002F933F934F935F936F937F938F939F931C
:10041000AF93BF93CF93EF93FF932A988FEF42DE72
:10042000C82F2A9A86FF03C081E080932F01C5FF61
:100430000AC0C0626C2F87E06BDE10922C0181E055
:10044000809308012998C4FF0BC06C2F606387E07C
:100450005FDE10922C0181E08093080155DF29981E
:10046000FF91EF91CF91BF91AF919F918F917F912C
:100470006F915F914F913F912F910F900FBE0F9011
:100480001F901895509A3D9A3C9A3B9A089586B1D0
:1004900083FB882780F93499826035998460489974
:1004A0008860089580FF02C0439A01C0439881FF8D
:1004B00002C0449A01C0449882FF02C0459A01C01C
:1004C000459883FF02C0589A089558980895CF938D
:1004D00050983D983C983B98419A429AD8DFC82F53
:1004E000C295C07F4298429AD2DF42988C2BCF911E
:1004F00008954098ECCFCF93C82FC4DF4198429A1B
:100500008C2F82958F70CEDF4298429A8C2FCADF53
:100510004298EFDF87FDFDCFCF9108954098EBCF54
:10052000409AE9CF982F9058983008F48770F8CF08
:10053000CF93DF93EC0101C0F5DF89918111FCCFEE
:10054000DF91CF910895CF93DF93CDB7DEB7619759
:100550000FB6F894DEBF0FBECDBF4AE050E0BE013B
:100560006F5F7F4F25D1E4DF61960FB6F894DEBF51
:100570000FBECDBFDF91CF9108950F931F93CF93FF
:10058000DF93EB018770880F880F880F805CC6DFD0
:100590008E01085F1F4FFE0121968491C1DFC017B5
:1005A000D107C9F7DF91CF911F910F910895813045
:1005B00009F480E46058860FB1CF81E0AFCF519A43
:1005C000599A60DF389A3A9A399A409A429A419AEF
:1005D0008FE295E70197F1F700C00000429840983C
:1005E0004198429A83E05EDF429887E090E201976B
:1005F000F1F700C00000429A83E054DF429887EC94
:1006000090E00197F1F700C00000429A83E04ADFD2
:10061000429887EC90E00197F1F700C00000429A01
:1006200082E040DF429887EC90E00197F1F700C04C
:10063000000088E273DF88E071DF8CE06FDF86E026
:100640006DDFBBCFBC0180E49FE19ED0862F60317F
:1006500048F07727CB01409797FF02C0CB010F9757
:10066000959587958093B80008951F920F920FB6C5
:100670000F9211248F939F938091300190913101BB
:10068000009729F0019790933101809330019F9159
:100690008F910F900FBE0F901F901895CF93DF93FF
:1006A000CDB7DEB72D970FB6F894DEBF0FBECDBF26
:1006B00084DFDE0111968DE0FD0111928A95E9F744
:1006C000EBE0F1E081918D9381E0E831F807D1F71B
:1006D00060E080E06CDF898125DF8A8123DF8EE2A4
:1006E00021DF8B811FDF80E81DDF83E41BDF6BE0F0
:1006F00080E05DDF8A8516DF8B8514DF80E091E086
:1007000017DF63E081E053DF8C810CDF8D810ADF2E
:100710008E8108DF8F8106DF8EE204DF888502DFAD
:10072000898500DF84E091E02D960FB6F894DEBF56
:100730000FBECDBFDF91CF91FBCE41DF60E470E013
:1007400080E81BDF84E690E07DDF2DDE8FE090E027
:10075000FADE84B5826084BD85B5866085BD8091F2
:100760006E00826080936E008BE687BD78946ADDB0
:1007700078DD94DF2FEF89E698E1215080409040AA
:10078000E1F700C00000F4CFAA1BBB1B51E107C07A
:10079000AA1FBB1FA617B70710F0A61BB70B881F11
:1007A000991F5A95A9F780959095BC01CD010895A0
:1007B000FB019F01E8944230BCF04532ACF44A3072
:1007C00029F497FB1EF4909581959F4F642F77270E
:1007D000DBDF805D8A330CF0895D8193CB0100976C
:1007E000A9F716F45DE251931082C90100C0DC0143
:1007F000FC01672F71917723E1F7329704C07C9158
:100800006D9370836291AE17BF07C8F30895F89493
:02081000FFCF18
:08081200255248006850610006
:00000001FF
