:100000000C9430000C944D000C944D000C94B103F2
:100010000C944D000C944D000C944D000C944D002C
:100020000C944D000C944D000C944D000C944D001C
:100030000C944D000C94AA000C9483000C945B006B
:100040000C944D000C944D000C944D000C944D00FC
:100050000C944D0041544E454C0041544E454C00CB
:1000600011241FBECFE5D8E0DEBFCDBF10E0A0E673
:10007000B0E0E6E6F8E002C005900D92A039B107C5
:10008000D9F720E0A0E9B0E001C01D92AC3EB20774
:10009000E1F70E94F6010C9431040C94000090BD2D
:1000A00089B988E18AB986E880BD8A9A929A8AB12C
:1000B000886D8AB908951F920F920FB60F9211247E
:1000C00092980F900FBE0F901F90189590919300EB
:1000D0009F5F9F70209194009217E1F3E92FF0E069
:1000E000EB56FF4F808390939300559A0895CF93DA
:1000F000DF93EC018991882319F00E946600FACF02
:10010000DF91CF9108951F920F920FB60F92112495
:100110008F939F93EF93FF9390919300809194001E
:10012000981771F0809194008F5F8F708093940086
:10013000E0919400F0E0EB56FF4F80818CB901C054
:100140005598FF91EF919F918F910F900FBE0F9057
:100150001F9018951F920F920FB60F9211248F9334
:100160009F93EF93FF938CB1E091A500EF5FEF7148
:100170009091A600E91731F0E093A500F0E0E95571
:10018000FF4F8083FF91EF919F918F910F900FBE52
:100190000F901F901895D69AD59AD49AD39A08950D
:1001A00089B383FB882780F9CC998260CD998460DC
:1001B000CE998860089580FF02C0DB9A01C0DB9869
:1001C00081FF02C0DC9A01C0DC9882FF02C0DD9A88
:1001D00001C0DD9883FF02C0DE9A0895DE9808957D
:1001E000CF93D698D598D498D398D99ADA9A0E9472
:1001F000D000C82FC295C07FDA98DA9A0E94D0004A
:10020000DA988C2BCF910895D8980C94F000CF9366
:10021000C82F0E94CB00D998DA9A8C2F82958F70C4
:100220000E94DB00DA98DA9A8C2F0E94DB00DA98C1
:100230000E94040187FDFCCFCF910895D8980C94BB
:100240000701D89A0C94070190E8980F983008F4A9
:1002500087700C942101CF93DF93EC01899188235F
:1002600019F00E942401FACFDF91CF91089581E027
:100270000C941E01D79ADF9A0E94CB00D09AD29A92
:10028000D19AD89ADA9AD99A8FEF91EA0197F1F731
:1002900000C00000DA98D898D998DA9A83E00E94D2
:1002A000DB00DA9887E49CE20197F1F700C0DA9A64
:1002B00083E00E94DB00DA9884E191E00197F1F796
:1002C0000000DA9A83E00E94DB00DA9884E191E092
:1002D0000197F1F70000DA9A82E00E94DB00DA98D9
:1002E00084E191E00197F1F7000088E20E941E018D
:1002F00088E00E941E018CE00E941E0186E00E94A0
:100300001E010C943701BA98BB9AB99ABC9ABD9A4F
:10031000BE98BF9AC29AC398C19AC49AC59AC79AFE
:100320008DB182658DB9709A08958FB9779BFECF94
:100330008FB108958FB9779BFECF0895CF92DF924A
:10034000FF920F931F93CF93DF931F92CDB7DEB72A
:10035000F62E8C016B018C2D8F19841758F4F60141
:1003600081916F0149830E949501F80181938F016A
:100370004981F1CF0F90DF91CF911F910F91FF90A5
:10038000DF90CF9008950F931F93CF93DF9300D00A
:1003900000D0CDB7DEB78C01862F19821A821B825E
:1003A0001C824AE0BE016F5F7F4F90E00E94FC0319
:1003B00080E690E00E9477000E94370181E790E09C
:1003C0000E942B01CE0101960E9477008FE790E0FA
:1003D0000E947700C8010E9477000F900F900F9045
:1003E0000F90DF91CF911F910F910895B89AC09807
:1003F00085E090E00E944F000E943A010E947B033A
:1004000083EC91E00E940A0278940E94B5020E9457
:10041000C502FDCF90939100809390000895C198FC
:100420008F710E949A018FEF0E949501C19A0895E1
:10043000CF93DF931F92CDB7DEB7C1988F718062E3
:1004400069830E949A016981862F0E949A01C19A4C
:100450000F90DF91CF9108950F931F93CF93DF9368
:100460001F92CDB7DEB78B01C1988F71806249832F
:100470000E949A014981B801C8010E949E01C19A57
:100480000F90DF91CF911F910F910895CF93DF933C
:1004900000D000D01F92CDB7DEB7DE0111969E01CD
:1004A0002A5F3F4FBD01FC0144914D930196A21775
:1004B000B307C9F745E080E10E942C020F900F902E
:1004C0000F900F900F90DF91CF910895CF93DF930E
:1004D00000D000D01F92CDB7DEB796EF980F9630C0
:1004E00018F48C3098F401C08AE0DE0111969E0168
:1004F0002A5F3F4FFB01BD0194919D933196A21756
:10050000B307D1F745E00E942C0205C0FB016491BE
:1005100069830E9418020F900F900F900F900F9018
:10052000DF91CF9108951F93CF93DF931F92CDB7A3
:10053000DEB7182F80E069830E940F0269811130B5
:1005400021F0123011F4846001C08B7F613011F40E
:10055000886003C0623009F4877F682F80E00F90C5
:10056000DF91CF911F910C941802C39880E00E94F4
:100570000F02682F636080E00E941802C39A87E62A
:1005800091E00197F1F700000895EF92FF920F9329
:100590001F93CF93DF9380919200813021F40E94CA
:1005A000B502109292008091EB00882309F440C0BC
:1005B000C3981092EB0007EC10E0C19880E60E940F
:1005C0009A018FEF0E949501F82EC19A80E28F1553
:1005D00060F4C1988FEF0E949501C19A682F606402
:1005E00087E00E941802C39A23C0C19881E60E9446
:1005F0009A01C7ECD0E0EF2CE00EEC1629F08FEF5B
:100600000E9495018993F9CFC19A87E10E940F0258
:10061000C82FFF2051F0E0919000F09191003097A9
:1006200021F06F2D87EC90E00995C0FFC6CFD1CFA8
:10063000DF91CF911F910F91FF90EF900895682F58
:100640006F7785E00C941802C19881EE0E949A01A0
:10065000C19A0895C19882EE0E949A01C19A0895A4
:100660000F931F93CF93DF931F92CDB7DEB7182F51
:10067000042F82E069830E940F02982F6981613004
:1006800011F4912B05C0623019F4812F80959823C5
:10069000692F82E00E94180281E00E940F02682FF9
:1006A000013011F4612B04C0023011F41095612364
:1006B00081E00F90DF91CF911F910F910C94180260
:1006C000CF93C62F682F8CE10E9418028DE10E9403
:1006D0000F02C13011F4846003C0C23009F48B7F73
:1006E000682F8DE1CF910C9418028BB780628BBF7D
:1006F00084B784BF08950E9483010E9475038AE530
:1007000090E00E94460264E570E08AE00E94660282
:1007100060E080E00E9418020E942A030E942403E5
:1007200061E081E00E9493028AE00E941F0341E0A1
:1007300061E081E00E9430036FEF84E00E941802C4
:1007400066E086E00E94180261E081E00E9460039A
:1007500081E08093EB001092E80060E787E00C9462
:1007600018021F920F920FB60F9211242F933F93EE
:100770004F935F936F937F938F939F93AF93BF93A9
:10078000CF93EF93FF93C1988FEF0E949501C82FED
:10079000C19A86FF03C081E08093EB00C5FF0BC0C8
:1007A000C0626C2F87E00E9418021092E80081E07E
:1007B00080939200C398C4FF0DC06C2F606387E0E4
:1007C0000E9418021092E80081E0809392000E943B
:1007D0002403C398FF91EF91CF91BF91AF919F9167
:1007E0008F917F916F915F914F913F912F910F90DA
:1007F0000FBE0F901F901895BB274A3031F49923F4
:1008000022F4BDE2909581959F4F0C940804BB277C
:10081000FB015527AA27880F991FAA1FA41710F0BC
:10082000A41B83955051B9F7A05DAA3308F0A95DC8
:10083000A193009779F7B111B1931192CB010C9468
:100840002104DC01FC01672F71917723E1F73297D6
:1008500004C07C916D9370836291AE17BF07C8F39B
:060860000895F894FFCF9B
:100866006F646572616E6F2062616A746F773A2099
:1008760000726563656976696E672E2E2E200020EC
:1008860044616E65206F64656272616E653A200030
:00000001FF
