:100000001FC0DCC12DC02CC02BC02AC029C028C0F5
:1000100027C026C025C0BEC223C022C021C020C028
:100020001FC01EC01DC01CC01BC01AC019C018C0F4
:1000300017C016C041544E454C0041544E454C002B
:1000400011241FBECFEFD4E0DEBFCDBF21E0A0E082
:10005000B1E001C01D92AC32B207E1F7DCD221C39E
:10006000CFCF5298219A229A239A2498259A5A9A65
:1000700029982A9A2B982C982D988CB580658CBD40
:100080008DB581608DBD08958EBD0DB407FEFDCF89
:100090008EB508958EBD0DB407FEFDCF0895EF9285
:1000A000FF920F931F93CF93DF9300D0CDB7DEB7AE
:1000B0008C017B010BC0F70181917F0149836A8329
:1000C000E3DFF80181938F016A8149818E2D861BC0
:1000D000841788F30F900F90DF91CF911F910F91AC
:1000E000FF90EF9008952A988F71D4DF8FEFCCDFC7
:1000F0002A9A0895CF93DF931F92CDB7DEB72A983F
:100100008F7180626983C6DF6981862FC3DF2A9A77
:100110000F90DF91CF9108950F931F93CF93DF93AB
:100120001F92CDB7DEB78B012A988F718062498309
:10013000B1DF4981B801C801B2DF2A9A0F90DF917F
:10014000CF911F910F910895CF93DF9300D000D0EE
:100150001F92CDB7DEB7DE0111969E012A5F3F4F99
:10016000FC010196E491ED93A217B307C9F745E0AE
:10017000BE016F5F7F4F80E1CFDF0F900F900F9038
:100180000F900F90DF91CF910895CF93DF9300D020
:1001900000D01F92CDB7DEB7803128F48A3018F036
:1001A0008C30A8F401C08AE0DE0111969E012A5F1E
:1001B0003F4FFB016F5F7F4FE491ED93A217B307B1
:1001C000C1F745E0BE016F5F7F4FA6DF04C0FB01B2
:1001D000649169838FDF0F900F900F900F900F90B5
:1001E000DF91CF9108951F93CF93DF931F92CDB7E7
:1001F000DEB7182F80E0698376DF6981113009F45A
:1002000004C0123011F4846001C08B7F613011F49E
:10021000886003C0623009F4877F682F80E00F9008
:10022000DF91CF911F9166CF299880E05CDF682F26
:100230006E7F626080E05ECF682F6F7785E05ACF77
:100240002A9881EE27DF2A9A08952A9882EE22DFE3
:100250002A9A08950F931F93CF93DF931F92CDB7E0
:10026000DEB7182F042F82E069833DDF982F698164
:10027000613011F4912B05C0623019F4812F809503
:100280009823692F82E036DF81E02DDF682F01306F
:1002900011F4612B04C0023011F41095612381E048
:1002A0000F90DF91CF911F910F9124CFEF92FF928A
:1002B0000F931F93CF93DF931F92CDB7DEB7182F05
:1002C00080912401813089F181E080932401809123
:1002D0002501813019F4A091260108C0E12FF92FE2
:1002E000DF010D900020E9F71197A11B0A2FA03222
:1002F00008F00FE1998398DFEBE2F1E03197F1F735
:1003000000C000002A9880EAC5DEE12E9981F92E0E
:1003100004C0F70181917F01BDDE8E2D811B801706
:10032000C0F380E0B7DE2A9A299A0F90DF91CF912F
:100330001F910F91FF90EF900895CF93C62F682FD4
:100340008CE1D8DE8DE1CFDEC13011F4846003C0D2
:10035000C23009F48B7F682F8DE1CF91CBCEE89A24
:10036000E9E6F0E080818260808308957ADEF7DF3D
:1003700084E390E0E9DE6AE370E08AE006DF60E0B3
:1003800080E0B8DE62DF5CDF61E081E02CDF8AE0E4
:1003900053DF41E061E081E05DDF6FE084E0AADEF1
:1003A00066E086E0A7DE61E081E0C7DF81E0809360
:1003B00027011092240160E787E09CCE1F920F92E4
:1003C0000FB60F9211242F933F934F935F936F9328
:1003D0007F938F939F93AF93BF93CF93EF93FF93AD
:1003E0002A988FEF51DEC82F2A9A86FF03C081E03A
:1003F00080932701C5FF0AC081E080930001C0629D
:100400006C2F87E077DE109224012998C4FF0BC07F
:10041000109224016C2F606387E06CDE81E0809392
:1004200000010EDF2998FF91EF91CF91BF91AF911D
:100430009F918F917F916F915F914F913F912F91FC
:100440000F900FBE0F901F901895409A419A429AB4
:10045000439A449A389839983A983B983C9808952A
:10046000E1E8F0E08081886080838081856080831E
:100470008EE490E09093890080938800EFE6F0E0AE
:100480008081826080830895EF92FF920F931F9383
:10049000CF9370910101772311F0761375C0FC01A1
:1004A00090819623C1E080910201992311F0C0E070
:1004B0000BC0811109C0C093020185E090E09093C8
:1004C00029018093280160C0882309F45DC0CC23F2
:1004D000A9F08130E9F48091280190912901892BBC
:1004E00009F048C082E08093020183E090E090939D
:1004F0002901809328016093010146C08230D0F128
:100500008430C0F501151105D9F1F801099538C0FD
:10051000823099F48091280190912901892B51F51D
:100520002115310511F426E930E083E080930201C2
:1005300030932901209328011DC0833051F480910C
:10054000280190912901892BA9F484E0809302016C
:1005500011C0843079F48091280190912901892B70
:1005600049F45093290140932801E114F10411F05A
:10057000F701099580910201833030F0C11104C068
:100580001092020110920101CF911F910F91FF90E3
:10059000EF9008951F920F920FB60F9211248F9330
:1005A0009F938091280190912901009729F001974C
:1005B00090932901809328019F918F910F900FBEF6
:1005C0000F901F90189585E380932A0110922B01BC
:1005D0008AE291E06BCE84E380932A0110922B0192
:1005E0008AE291E063CE83E380932A0110922B018B
:1005F0008AE291E05BCE82E380932A0110922B0184
:100600008AE291E053CE81E380932A0110922B017C
:100610008AE291E04BCEAADE23DF17DF789483E0F5
:10062000E82E83E0F82E870128EC30E044E650E025
:1006300061E086E290E028DF9BEFE92E92E0F92E60
:10064000870128EC30E044E650E062E086E290E08A
:100650001BDF23EFE22E22E0F22E870128EC30E0B0
:1006600044E650E064E086E290E00EDF3BEEE32EED
:1006700032E0F32E870128EC30E044E650E068E0F9
:1006800086E290E001DF43EEE42E42E0F42E8701A3
:1006900028EC30E044E650E060E186E290E0F4DEF1
:0606A000BECFF894FFCF6D
:00000001FF
