:100000000C9430000C944D000C944D000C94F102B3
:100010000C944D000C944D000C944D000C944D002C
:100020000C944D000C944D000C94D3000C944D0096
:100030000C944D000C944D030C948A030C944D00C9
:100040000C944D000C944D000C944D000C944D00FC
:100050000C944D0041544E454C0041544E454C00CB
:1000600011241FBECFE5D8E0DEBFCDBF10E0A0E673
:10007000B0E0E6E6F7E002C005900D92A437B107C4
:10008000D9F720E0A4E7B0E001C01D92A33EB2077B
:10009000E1F70E9491000C94B1030C940000BA980F
:1000A000B89AB99ABC9ABD9ABE98BF9AC29AC0989B
:1000B000C19AC49AC598C698C7988DB180658DB904
:1000C000709A08958FB9779BFECF8FB108958FB93D
:1000D000779BFECF0895EF92FF920F931F93CF93DC
:1000E000DF9300D0CDB7DEB78C017B010CC0F701E8
:1000F00081917F0149836A830E946200F8018193A4
:100100008F016A8149818E2D861B841780F30F90A1
:100110000F90DF91CF911F910F91FF90EF90089575
:100120000895D09AD89A0E94BB0280E990E00E947C
:10013000F00083B78B6083BF89B7826089BF8CE78B
:100140008CBF78940E94AB0100E010E0FF24F39490
:10015000C4E6D0E08091780090917900892B51F429
:10016000D0937900C09378008BB38F258BBB11118E
:100170000BC004C0113089F4011113C080E690E077
:100180000E94550201E00DC089E690E00E945502F0
:1001900010E001E00E94BC01DDCF0023A9F310E0D4
:1001A000F9CF11E0F7CF1F920F920FB60F921124E3
:1001B0008F939F938091780090917900892B49F0DB
:1001C00080917800909179000197909379008093C5
:1001D00078009F918F910F900FBE0F901F901895F0
:1001E00090937600809375000895C1988F710E9456
:1001F00067008FEF0E946200C19A0895CF93DF934A
:100200001F92CDB7DEB7C1988F71806269830E945B
:1002100067006981862F0E946700C19A0F90DF9165
:10022000CF9108950F931F93CF93DF931F92CDB774
:10023000DEB78B01C1988F71806249830E9467008D
:100240004981B801C8010E946B00C19A0F90DF91EB
:10025000CF911F910F910895CF93DF9300D000D0DD
:100260001F92CDB7DEB7DE0111969E012A5F3F4F88
:10027000FC010196E491ED93A217B307C9F745E09D
:10028000BE016F5F7F4F80E10E9412010F900F90BF
:100290000F900F900F90DF91CF910895CF93DF9340
:1002A00000D000D01F92CDB7DEB7803128F48A305D
:1002B00018F08C30B0F401C08AE0DE0111969E0186
:1002C0002A5F3F4FFB016F5F7F4FE491ED93A217D1
:1002D000B307C1F745E0BE016F5F7F4F0E94120177
:1002E00005C0FB01649169830E94FE000F900F908E
:1002F0000F900F900F90DF91CF9108951F93CF93A0
:10030000DF931F92CDB7DEB7182F80E069830E947C
:10031000F5006981113009F404C0123011F48460D1
:1003200001C08B7F613011F4886003C0623009F432
:10033000877F682F80E00F90DF91CF911F910C9401
:10034000FE00C09880E00E94F500682F6E7F62601A
:1003500080E00C94FE00C09880E00E94F500682FB9
:10036000636080E00E94FE00C09A87E092E00197FF
:10037000F1F700C000000895FF920F931F93CF93F1
:10038000DF9380917400813021F40E94AB011092C0
:10039000740080919E00882309F440C0C098109298
:1003A0009E008AE790E0082FC19880E60E946700CF
:1003B0008FEF0E946200182FC19A813260F0C198BD
:1003C0008FEF0E946200C19A682F606487E00E94EC
:1003D000FE00C09A23C0C19881E60E946700CAE768
:1003E000D0E0F12EF00E04C08FEF0E9462008993DE
:1003F000FC12FACFC19A87E10E94F500C82F1123A1
:1004000051F0E0917500F0917600309721F0612F66
:100410008AE790E00995C0FFC7CFD1CFDF91CF9198
:100420001F910F91FF900895682F6F7785E00C94CE
:10043000FE00C19881EE0E946700C19A0895C1989C
:1004400082EE0E946700C19A08950F931F93CF9385
:10045000DF931F92CDB7DEB7182F042F82E0698398
:100460000E94F500982F6981613011F4912B05C02D
:10047000623019F4812F80959823692F82E00E94C1
:10048000FE0081E00E94F500682F013011F4612B1D
:1004900004C0023011F41095612381E00F90DF91C8
:1004A000CF911F910F910C94FE00EF92FF920F934A
:1004B0001F93CF93DF931F92CDB7DEB7182F809194
:1004C0009B008130A9F181E080939B0080919C008A
:1004D000813019F4A0919D0008C0E12FF92FDF01B0
:1004E0000D900020E9F71197A11B0A2FA03208F008
:1004F0000FE199830E94A101E7E5F2E03197F1F75E
:1005000000C00000C19880EA0E946700E12E998136
:10051000F92E05C0F70181917F010E9467008E2DA1
:10052000811B8017B8F380E00E946700C19AC09ACF
:100530000F90DF91CF911F910F91FF90EF90089551
:10054000CF93C62F682F8CE10E94FE008DE10E94A0
:10055000F500C13011F4846003C0C23009F48B7F10
:10056000682F8DE1CF910C94FE008BB780628BBF1A
:1005700084B784BF08950E944F000E94B50284E5AD
:1005800090E00E942C016AE570E08AE00E944E0132
:1005900060E080E00E94FE000E941F020E9419029B
:1005A00061E081E00E947E018AE00E94140241E045
:1005B00061E081E00E9425026FE084E00E94FE007D
:1005C00066E086E00E94FE0061E081E00E94A002F9
:1005D00081E080939E0010929B0060E787E00C947E
:1005E000FE001F920F920FB60F9211242F933F938C
:1005F0004F935F936F937F938F939F93AF93BF932B
:10060000CF93EF93FF93C1988FEF0E946200C82FA2
:10061000C19A86FF03C081E080939E00C5FF0BC096
:1006200081E080937400C0626C2F87E00E94FE001E
:1006300010929B00C098C4FF0DC010929B006C2FBD
:10064000606387E00E94FE0081E0809374000E9456
:100650001902C098FF91EF91CF91BF91AF919F91F7
:100660008F917F916F915F914F913F912F910F905B
:100670000FBE0F901F9018959091B1009F5F9F70D3
:100680002091E2009217E1F3E92FF0E0E056FF4FEE
:1006900080839093B100559A08951F920F920FB6E0
:1006A0000F9211242F933F934F935F936F937F93F8
:1006B0008F939F93AF93BF93EF93FF938CB18D3044
:1006C00049F40E943C038AE00E943C0381E080934D
:1006D000770080E08CB9E0919F00EF5FEF7190911F
:1006E000B000E91731F0E0939F00F0E0EE54FF4FC7
:1006F0008083FF91EF91BF91AF919F918F917F91F7
:100700006F915F914F913F912F910F900FBE0F907E
:100710001F9018951F920F920FB60F9211248F936E
:100720009F93EF93FF939091B1008091E20098170F
:1007300071F08091E2008F5F8F708093E200E09112
:10074000E200F0E0E056FF4F80818CB901C055987F
:10075000FF91EF919F918F910F900FBE0F901F907F
:060760001895F894FFCF8C
:100766005A4741535F4C4544005A4150414C5F4CF7
:0407760045440000F6
:00000001FF
