:100000001FC004C238C037C036C035C034C033C08A
:1000100032C031C030C02FC02EC02DC02CC02BC06C
:100020002AC029C028C027C026C025C024C023C09C
:1000300022C021C041544E454C0041544E454C0015
:1000400011241FBECFEFD4E0DEBFCDBF11E0A0E092
:10005000B1E0EEE9F4E002C005900D92A830B107DE
:10006000D9F721E0A8E0B1E001C01D92A033B207AA
:10007000E1F747D012C2C4CF5298209A219A229A0F
:10008000239A2498259A5A9A2898299A2A9A2B983A
:100090002C982D988CB580658CBD8DB581608DBDFB
:1000A00008958EBD0DB407FEFDCF8EB508958EBDAB
:1000B0000DB407FEFDCF0895CF92DF92FF920F930C
:1000C0001F93CF93DF931F92CDB7DEB7F62E8C012F
:1000D0006B018C2D8F19841750F4F60181916F01FB
:1000E0004983DFDFF80181938F014981F2CF0F90BF
:1000F000DF91CF911F910F91FF90DF90CF900895E6
:1001000008955CD180E890E00FD07894B5D080E07D
:1001100091E0FBD02FEF89E698E12150804090409C
:10012000E1F700C00000F3CF90930901809308012C
:10013000089529988F71BBDF8FEFB3DF299A089557
:10014000CF93DF931F92CDB7DEB729988F7180626E
:100150006983ADDF6981862FAADF299A0F90DF912D
:10016000CF9108950F931F93CF93DF931F92CDB735
:10017000DEB78B0129988F718062498398DF4981AE
:10018000B801C80199DF299A0F90DF91CF911F9193
:100190000F910895CF93DF9300D000D01F92CDB779
:1001A000DEB7DE0111969E012A5F3F4FBD01FC01C3
:1001B00044914D930196A217B307C9F745E080E13A
:1001C000D1DF0F900F900F900F900F90DF91CF9194
:1001D0000895CF93DF9300D000D01F92CDB7DEB744
:1001E00096EF980F963018F48C3090F401C08AE0A6
:1001F000DE0111969E012A5F3F4FFB01BD019491E4
:100200009D933196A217B307D1F745E0ABDF04C049
:10021000FB016491698394DF0F900F900F900F9012
:100220000F90DF91CF9108951F93CF93DF931F928B
:10023000CDB7DEB7182F80E069837BDF698111308D
:1002400021F0123011F4846001C08B7F613011F411
:10025000886003C0623009F4877F682F80E00F90C8
:10026000DF91CF911F916CCF289880E062DF682FDB
:100270006E7F626080E064CF289880E05ADF682F4C
:10028000636080E05DDF289A83E091E00197F1F7F9
:1002900000C000000895682F6F7785E051CF29983E
:1002A00081EE05DF299A0895299882EE00DF299AC8
:1002B00008950F931F93CF93DF931F92CDB7DEB7AF
:1002C000182F042F82E0698334DF982F6981613011
:1002D00011F4912B05C0623019F4812F8095982379
:1002E000692F82E02DDF81E024DF682F013011F4D7
:1002F000612B04C0023011F41095612381E00F904E
:10030000DF91CF911F910F911BCFEF92FF920F932F
:100310001F93CF93DF938C0180912C01813071F179
:1003200081E080932C0180912D01813019F4E091BE
:100330002E0106C0F80101900020E9F73197E01B7B
:10034000FE2E8FE18E1710F48FE1F82E8DDF8BE2F9
:1003500091E00197F1F700C00000299880EAA7DE3C
:10036000E02EC02FD12F8C2F8E198F1518F4899164
:100370009EDEF9CF80E09BDE299A289ADF91CF910B
:100380001F910F91FF90EF900895CF93C62F682F84
:100390008CE1D6DE8DE1CDDEC13011F4846003C086
:1003A000C23009F48B7F682F8DE1CF91C9CEE89AD6
:1003B000E9E6F0E080818260808308955DDEF7DF0A
:1003C0008AE390E0E7DE64E370E08AE002DF60E069
:1003D00080E0B6DE69DF63DF61E081E025DF8AE08F
:1003E0005ADF41E061E081E064DF6FE084E0A8DE95
:1003F00066E086E0A5DE61E081E0C7DF81E0809312
:100400002F0110922C0160E787E09ACE1F920F9285
:100410000FB60F9211242F933F934F935F936F93D7
:100420007F938F939F93AF93BF93CF93EF93FF935C
:1004300029988FEF36DEC82F299A86FF03C081E006
:1004400080932F01C5FF0AC081E080930A01C0623A
:100450006C2F87E075DE10922C012898C4FF0BC02A
:1004600010922C016C2F606387E06ADE81E080933C
:100470000A0115DF2898FF91EF91CF91BF91AF91BD
:100480009F918F917F916F915F914F913F912F91AC
:0E0490000F900FBE0F901F901895F894FFCF9D
:08049E00544553540D0A0000FF
:00000001FF
