:100000000C9434000C9451000C9451000C943C025C
:100010000C9451000C9451000C9451000C9451001C
:100020000C9451000C9451000C946B070C945100EB
:100030000C9451000C94E2020C94BB020C949302B9
:100040000C9451000C9451000C9451000C945100EC
:100050000C94510041544E454C0041544E454C00C7
:100060000E1111110E20202011241FBECFE5D8E063
:10007000DEBFCDBF10E0A0E6B0E0EAE9F3E102C0E8
:1000800005900D92A638B107D9F721E0A6E8B0E0B7
:1000900001C01D92AF31B207E1F70E9491080C94A4
:1000A000CB090C940000BA98BB9ABC9ABD9ABE9832
:1000B000BF9AC29AC398C49AC59AC79A8DB18265ED
:1000C0008DB9709A08958FB9779BFECF8FB108953F
:1000D0008FB9779BFECF0895EF92FF920F931F93F6
:1000E000CF93DF9300D0CDB7DEB78C017B010CC07E
:1000F000F70181917F0149836A830E946300F801BF
:1001000081938F016A8149818E2D861B841780F32C
:100110000F900F90DF91CF911F910F91FF90EF9073
:10012000089590938800809387000895C4988F71F4
:100130000E9468008FEF0E946300C49A0895CF93D5
:10014000DF931F92CDB7DEB7C4988F718062698349
:100150000E9468006981862F0E946800C49A0F90EF
:10016000DF91CF9108950F931F93CF93DF931F9249
:10017000CDB7DEB78B01C4988F71806249830E942E
:1001800068004981B801C8010E946C00C49A0F90B0
:10019000DF91CF911F910F910895CF93DF9300D0FE
:1001A00000D01F92CDB7DEB7DE0111969E012A5F07
:1001B0003F4FFC010196E491ED93A217B307C9F7F5
:1001C00045E0BE016F5F7F4F80E10E94B3000F905A
:1001D0000F900F900F900F90DF91CF910895CF93D4
:1001E000DF9300D000D01F92CDB7DEB7803128F466
:1001F0008A3018F08C30B0F401C08AE0DE0111962C
:100200009E012A5F3F4FFB016F5F7F4FE491ED93AB
:10021000A217B307C1F745E0BE016F5F7F4F0E9491
:10022000B30005C0FB01649169830E949F000F9099
:100230000F900F900F900F90DF91CF9108951F9323
:10024000CF93DF931F92CDB7DEB7182F80E069837D
:100250000E9496006981113009F404C0123011F433
:10026000846001C08B7F613011F4886003C062300C
:1002700009F4877F682F80E00F90DF91CF911F9165
:100280000C949F00C39880E00E949600682F6360E2
:1002900080E00E949F00C39A87E691E00197F1F702
:1002A00000000895FF920F931F93CF93DF938091E7
:1002B0008600813021F40E944201109286008091D4
:1002C000AD00882309F440C0C3981092AD0089E8BE
:1002D00090E0082FC49880E60E9468008FEF0E948B
:1002E0006300182FC49A813260F0C4988FEF0E9487
:1002F0006300C49A682F606487E00E949F00C39ADD
:1003000023C0C49881E60E946800C9E8D0E0F12EBD
:10031000F00E04C08FEF0E9463008993FC12FACFA5
:10032000C49A87E10E949600C82F112351F0E091F2
:100330008700F0918800309721F0612F89E890E0E4
:100340000995C0FFC7CFD1CFDF91CF911F910F91FA
:10035000FF900895682F6F7785E00C949F00C498F4
:1003600081EE0E946800C49A0895C49882EE0E94AB
:100370006800C49A08950F931F93CF93DF931F9241
:10038000CDB7DEB7182F042F82E069830E94960054
:10039000982F6981613011F4912B05C0623019F4F6
:1003A000812F80959823692F82E00E949F0081E031
:1003B0000E949600682F013011F4612B04C00230B6
:1003C00011F41095612381E00F90DF91CF911F917F
:1003D0000F910C949F00CF93C62F682F8CE10E9441
:1003E0009F008DE10E949600C13011F4846003C02B
:1003F000C23009F48B7F682F8DE1CF910C949F0060
:100400008BB780628BBF84B784BF08950E9453006E
:100410000E94000284E590E00E94CD006AE570E051
:100420008AE00E94EF0060E080E00E949F000E944E
:10043000B5010E94AF0161E081E00E941F018AE0E6
:100440000E94AA0141E061E081E00E94BB016FEFE0
:1004500084E00E949F0066E086E00E949F0061E0C9
:1004600081E00E94EB0181E08093AD001092AA0030
:1004700060E787E00C949F001F920F920FB60F92D7
:1004800011242F933F934F935F936F937F938F9399
:100490009F93AF93BF93CF93EF93FF93C4988FEF46
:1004A0000E946300C82FC49A86FF03C081E0809336
:1004B000AD00C5FF0BC0C0626C2F87E00E949F009B
:1004C0001092AA0081E080938600C398C4FF0DC0FB
:1004D0006C2F606387E00E949F001092AA0081E069
:1004E000809386000E94AF01C398FF91EF91CF9156
:1004F000BF91AF919F918F917F916F915F914F913C
:100500003F912F910F900FBE0F901F90189590BDA7
:1005100089B988E18AB986E880BD8A9A929A8AB1B7
:10052000886D8AB908951F920F920FB60F92112409
:1005300092980F900FBE0F901F9018959091AE005B
:100540009F5F9F702091AF009217E1F3E92FF0E0D9
:10055000E055FF4F80839093AE00559A0895CF9356
:10056000DF93EC0102C00E949E0289918111FBCFB2
:10057000DF91CF9108951F920F920FB60F92112421
:100580008F939F93EF93FF939091AE008091AF0074
:10059000981771F08091AF008F5F8F708093AF00DC
:1005A000E091AF00F0E0E055FF4F80818CB901C0D1
:1005B0005598FF91EF919F918F910F900FBE0F90E3
:1005C0001F9018951F920F920FB60F9211248F93C0
:1005D0009F93EF93FF938CB1E091C000EF5FEF71B9
:1005E0009091C100E91731F0E093C000F0E0EE53C4
:1005F000FF4F8083FF91EF919F918F910F900FBEDE
:100600000F901F901895D69AD59AD49AD39A089598
:1006100089B383FB882780F9CC998260CD99846067
:10062000CE998860089580FF02C0DB9A01C0DB98F4
:1006300081FF02C0DC9A01C0DC9882FF02C0DD9A13
:1006400001C0DD9883FF02C0DE9A0895DE98089508
:10065000CF93D698D598D498D398D99ADA9A0E94FD
:100660000803C82FC295C07FDA98DA9A0E9408035F
:10067000DA988C2BCF910895D8980C942803CF93B7
:10068000C82F0E940303D998DA9A8C2F82958F7015
:100690000E941303DA98DA9A8C2F0E941303DA98D7
:1006A0000E943C0387FDFCCFCF910895D8980C940D
:1006B0003F03D89A0C943F03982F9058983008F431
:1006C00087700C945903CF93DF93EC0102C00E9412
:1006D0005C0389918111FBCFDF91CF910895CF9376
:1006E000DF93CDB7DEB761970FB6F894DEBF0FBECC
:1006F000CDBF4AE050E0BE016F5F7F4F0E949A0974
:100700000E94630361960FB6F894DEBF0FBECDBFA3
:10071000DF91CF9108950F931F93CF93DF93EB0158
:100720008770880F880F880F805C0E9456038E01A7
:10073000085F1F4FFE01219684910E945903C01744
:10074000D107C1F7DF91CF911F910F9108958130AB
:1007500009F480E46058860F0C94560381E00C94F1
:100760005603D79ADF9A0E940303D09AD29AD19A5D
:10077000D89ADA9AD99A8FEF91EA0197F1F700C0E7
:100780000000DA98D898D998DA9A83E00E94130387
:10079000DA9887E49CE20197F1F700C0DA9A83E0E7
:1007A0000E941303DA9884E191E00197F1F70000C9
:1007B000DA9A83E00E941303DA9884E191E00197CA
:1007C000F1F70000DA9A82E00E941303DA9884E1DC
:1007D00091E00197F1F7000088E20E94560388E05B
:1007E0000E9456038CE00E94560386E00E94560346
:1007F0000C94AE03BC0183E39BE20E942909862F7F
:10080000603148F07727CB01409797FF02C0CB01BA
:100810000F979595879580B9089584EA86BF06B6A7
:1008200007FEFDCF089584E986BF06B604FCFDCF20
:10083000089583B984E886BF06B607FEFDCF089504
:1008400020E4829FC001112484689F6F86BF06B692
:1008500007FEFDCF83B10895EF92FF921F93CF93D0
:10086000DF9300D000D0CDB7DEB7142F2B833C83AD
:100870006A8389830E940D0489810E9419046A8118
:10088000862F0E9419042B81E22E3C81F32E120F39
:1008900005C0F70181917F010E9419041E11F9CF53
:1008A0000F900F900F900F90DF91CF911F91FF90BD
:1008B000EF900C941304EF92FF920F931F93CF933A
:1008C000DF931F92CDB7DEB7082F142F790169830C
:1008D0000E940D04802F0E9419046981862F0E94B6
:1008E00019040E940D04802F8F5F0E94190409C013
:1008F00081E0111101C080E00E942004F701819382
:100900007F011150A8F70F90DF91CF911F910F91A8
:10091000FF90EF900C9413040E940D0480E80E9455
:1009200019048EEF0E9419040C9413041F93CF93A3
:10093000DF93182FEB010E940D0480E80E94190438
:1009400085EE0E9419040E9413040E940D0481E8A0
:100950000E94190422E38BED91E0215080409040E9
:10096000E1F700C000C007C081E0111101C080E0C4
:100970000E94200489931150B8F7DF91CF911F9105
:100980000C941304CF93DF93CDB7DEB766970FB601
:10099000F894DEBF0FBECDBF9E012F5F3F4F46E1F3
:1009A0006AEA8EEE0E945B04998180E02A81822BA4
:1009B0009093ED008093EC009B8180E02C81822B52
:1009C0009093FF008093FE009D8180E02E81822B1A
:1009D00090930101809300019F8180E02885822B04
:1009E0009093FB008093FA00998580E02A85822B02
:1009F0009093F5008093F4009B8580E02C85822BFA
:100A00009093EF008093EE009D8580E02E85822BF1
:100A100090930901809308019F8580E02889822BAB
:100A20009093030180930201998980E02A89822BA7
:100A30009093FD008093FC009B8980E02C89822BA1
:100A400090930B0180930A019D8980E02E89822B6F
:100A50009093EB008093EA0066960FB6F894DEBFA1
:100A60000FBECDBFDF91CF910895CF93DF9300D01C
:100A70001F92CDB7DEB78EE28B839E012D5F3F4F75
:100A800041E064EF8EEE0E942C048FEF95E3019716
:100A9000F1F700C000009E012F5F3F4F42E066EF7C
:100AA0008EEE0E945B04898190E0A0E0B0E0BA2F56
:100AB000A92F982F88272A81822B80930401909355
:100AC0000501A0930601B09307010F900F900F90BE
:100AD000DF91CF910895CF93DF9300D000D0CDB7B1
:100AE000DEB784EF8C839E012C5F3F4F41E064EFC3
:100AF0008EEE0E942C0423EA80EE90E0215080408C
:100B00009040E1F700C000009E012F5F3F4F43E09F
:100B100066EF8EEE0E945B0429818A8190E0A0E05E
:100B2000B0E0BA2FA92F982F8827A22B2B81822BD8
:100B300045E0B695A795979587954A95D1F7809307
:100B4000F0009093F100A093F200B093F3000F90A7
:100B50000F900F900F90DF91CF910895CF92DF9279
:100B6000EF92FF920F931F930E9435058091EE0044
:100B70009091EF0020910401309105014091060110
:100B800050910701281B390B41095109A091F4002C
:100B9000B091F5000E9487096B017C015FE0F5943C
:100BA000E794D794C7945A95D1F760910A01709150
:100BB0000B01882777FD8095982FEBE0660F771F54
:100BC000881F991FEA95D1F72091EA003091EB0038
:100BD000442737FD4095542F2C0D3D1D4E1D5F1DA4
:100BE0000E945F092C0D3D1D4E1D5F1D2093F600D8
:100BF0003093F7004093F8005093F90089019A016F
:100C0000085F1F4F2F4F3F4FF4E0359527951795FD
:100C10000795FA95D1F7B801C9011F910F91FF907F
:100C2000EF90DF90CF9008954F925F926F927F92F6
:100C30008F929F92AF92BF92CF92DF92EF92FF92EC
:100C40000F931F93CF93DF9300D000D0CDB7DEB7C3
:100C50000E946B058090F6009090F700A090F8003D
:100C6000B090F90080EA881A8FE0980AA108B108CC
:100C7000A5019401C501B4010E9419092B013C0191
:100C80000091EC001091ED00A0910001B0910101E4
:100C90000E9492096B017C013DE0F594E794D794A2
:100CA000C7943A95D1F7A0910801B0910901A30129
:100CB00092016CE055954795379527956A95D1F740
:100CC0000E949209BB2797FDB095AB2FC80ED91E85
:100CD000EA1EFB1E92E0C90ED11CE11CF11CF2E0E1
:100CE000F594E794D794C794FA95D1F7A0E8DA0E73
:100CF000E11CF11CA091FA00B091FB00A701960144
:100D00000E948709DC01CB012FE0B695A795979546
:100D100087952A95D1F789839A83AB83BC83680131
:100D2000EE24D7FCE094FE2C32E0CC0CDD1CEE1C53
:100D3000FF1C3A95D1F7A0910201B0910301A301E4
:100D400092010E9492092B013C0147E1759467943E
:100D5000579447944A95D1F7A091FE00B091FF00B7
:100D6000A50194010E9492095BE09595879577957E
:100D700067955A95D1F7460E571E681E791EC40C0A
:100D8000D51CE61CF71CCC0CDD1CEE1CFF1C2091B6
:100D9000F0003091F1004091F2005091F3002C19D5
:100DA0003D094E095F09AAE6B8E10E94870997FD4F
:100DB0000DC0660F771F881F991F29813A814B81CB
:100DC0005C810E943D0949015A010CC029813A8188
:100DD0004B815C810E943D0949015A01880C991C94
:100DE000AA1CBB1C9927B7FC9A958B2D7A2D692DCF
:100DF0009B01AC010E9419099B01AC01AEEDBBE067
:100E00000E9487096C01FF24D7FCF094EF2CA3E427
:100E1000B3EEA50194010E949509BB2797FDB095FB
:100E2000AB2FC80ED91EEA1EFB1E9FECC90E9EE01A
:100E3000D91EE11CF11C04E0F594E794D794C79403
:100E40000A95D1F7C80CD91CEA1CFB1CB601C701D6
:100E50000F900F900F900F90DF91CF911F910F91F6
:100E6000FF90EF90DF90CF90BF90AF909F908F90CA
:100E70007F906F905F904F9008950F931F93CF9343
:100E8000DF9300D000D0CDB7DEB78C01862F19825A
:100E90001A821B821C824AE050E0BE016F5F7F4FC6
:100EA00090E00E949A09C8010E94AF0281E690E09A
:100EB0000E94AF02CE0101960E94AF0283E690E04D
:100EC0000E94AF020F900F900F900F90DF91CF9183
:100ED0001F910F9108951F920F920FB60F92112438
:100EE0008F939F9380910C0190910D01009729F0B1
:100EF000019790930D0180930C019F918F910F901A
:100F00000FBE0F901F901895CF93DF93CDB7DEB72C
:100F10002D970FB6F894DEBF0FBECDBF0E94AE0373
:100F2000DE0111968DE0FD0111928A95E9F7E9E85D
:100F3000F0E081918D9380E0E639F807D1F760E029
:100F400080E00E94A70389810E945C038A810E943D
:100F50005C038EE20E945C038B810E945C0380E84C
:100F60000E945C0383E40E945C036BE080E00E94CB
:100F7000A7038A850E945C038B850E945C0387E639
:100F800090E00E94630363E081E00E94A7038C81EC
:100F90000E945C038D810E945C038E810E945C0331
:100FA0008F810E945C038EE20E945C0388850E9410
:100FB0005C0389850E945C038BE690E02D960FB65A
:100FC000F894DEBF0FBECDBFDF91CF910C946303C9
:100FD000CF92DF92EF92FF920E94AE0360E080E03A
:100FE0000E94A7038FE690E00E94630360911201C4
:100FF0007091130180911401909115013AE0C32E74
:10100000D12CE12CF12CA70196010E945F09C901A6
:101010000E946F0383E790E00E94630360911201D6
:10102000709113018091140190911501A70196010F
:10103000161617061806190624F40E945F09CB013C
:1010400006C00E945F0988279927861B970B0E947C
:101050006F0385E790E00E94630387E790E00E94BA
:10106000630360E081E00E94A70389E790E00E94AB
:1010700063036091190170911A0180911B01909195
:101080001C0124E6C22ED12CE12CF12CA7019601E3
:101090000E945F09C9010E946F0383E790E00E94EC
:1010A00063036091190170911A0180911B01909165
:1010B0001C01A70196010E945F096A307105810534
:1010C000910524F48DE790E00E946303609119017B
:1010D00070911A0180911B0190911C0124E630E06F
:1010E00040E050E00E945F09CB010E946F038BE655
:1010F00090E00E9463036AE080E00E94A7038FE70C
:1011000090E00E94630380910E0190910F010E9474
:101110006F0383E890E0FF90EF90DF90CF900C9406
:1011200063030E94B10360E670E080E80E948B03D5
:1011300084E690E00E94FA030E94C2040E948C049C
:1011400085E090E00E9487020E9406028DE397E00E
:101150000E94910083B7886083BF83B7836083BF99
:1011600089B7826089BF8BE68CBF78940E94420168
:1011700000E117E2FF24F3940E94520180910C01D8
:1011800090910D01892B49F410930D0100930C01EE
:10119000809160008F258093600080916000813095
:1011A000E1F50E94AE0560931201709313018093E4
:1011B0001401909315010E94140660931901709315
:1011C0001A0180931B0190931C0166E171E083E09A
:1011D0000E949604809117018695869520911601AC
:1011E000D22F90E0C92F9E01282B30931E0120930F
:1011F0001D01ADE7B0E00E947B09AA27BB27069737
:10120000A109B10980930E0190930F01A0931001E1
:10121000B09311010E94E80702C00E9484072FEFDB
:101220008FEB91E2215080409040E1F700C0000038
:10123000A3CFDB018F939F930E948709BF91AF914A
:10124000A29F800D911DA39F900DB29F900D112420
:101250000895AA1BBB1B51E107C0AA1FBB1FA617FD
:10126000B70710F0A61BB70B881F991F5A95A9F74F
:1012700080959095BC01CD010895A1E21A2EAA1B7C
:10128000BB1BFD010DC0AA1FBB1FEE1FFF1FA21736
:10129000B307E407F50720F0A21BB30BE40BF50B33
:1012A000661F771F881F991F1A9469F760957095BC
:1012B000809590959B01AC01BD01CF010895052E4D
:1012C00097FB16F4009407D057FD0DD00E943D09FE
:1012D00007FC09D07EF490958095709561957F4FBD
:1012E0008F4F9F4F089550954095309521953F4FD2
:1012F0004F4F5F4F0895A29FB001B39FC001A39FBE
:1013000001D0B29F700D811D1124911D08950E947E
:101310007B09A59F900DB49F900DA49F800D911DFA
:1013200011240895B7FF0C9487090E948709821B36
:10133000930B0895FB019F01E8944230C4F04532BD
:10134000B4F44A3029F497FB1EF4909581959F4F91
:10135000642F77270E942909805D8A330CF0895D0C
:101360008193CB010097A1F716F45DE251931082AF
:10137000C9010C94BB09DC01FC01672F7191772333
:10138000E1F7329704C07C916D9370836291AE1740
:0A139000BF07C8F30895F894FFCFDB
:10139A00015B005D0D0A0025524800685061005447
:1013AA003A20002E0080004300433A2000300057C4
:0613BA003A2000250000AE
:00000001FF
