:100000001FC0EAC12DC02CC02BC02AC029C028C0E7
:1000100027C026C025C0A0C323C022C021C020C045
:100020001FC01EC01DC01CC01BC01AC019C018C0F4
:1000300017C016C041544E454C0041544E454C002B
:1000400011241FBECFEFD4E0DEBFCDBF21E0A0E082
:10005000B1E001C01D92AD33B207E1F73DD3CCC38F
:10006000CFCF2298219A229A239A2498259A2A9AC5
:1000700029982A9A2B9A2D9A8CB582658CBD8DB5BC
:1000800081608DBD08958EBD0DB407FEFDCF8EB588
:1000900008958EBD0DB407FEFDCF0895EF92FF9237
:1000A0000F931F93CF93DF9300D0CDB7DEB78C01B2
:1000B0007B010BC0F70181917F0149836A83E3DFF4
:1000C000F80181938F016A8149818E2D861B8417E7
:1000D00088F30F900F90DF91CF911F910F91FF90B8
:1000E000EF9008952A988F71D4DF8FEFCCDF2A9A92
:1000F0000895CF93DF931F92CDB7DEB72A988F7103
:1001000080626983C6DF6981862FC3DF2A9A0F90D8
:10011000DF91CF9108950F931F93CF93DF931F9299
:10012000CDB7DEB78B012A988F7180624983B1DF2A
:100130004981B801C801B2DF2A9A0F90DF91CF91AF
:100140001F910F910895CF93DF9300D000D01F929D
:10015000CDB7DEB7DE0111969E012A5F3F4FFC014D
:100160000196E491ED93A217B307C9F745E0BE01EC
:100170006F5F7F4F80E1CFDF0F900F900F900F9058
:100180000F90DF91CF910895CF93DF9300D000D0EF
:100190001F92CDB7DEB7803128F48A3018F08C304A
:1001A000A8F401C08AE0DE0111969E012A5F3F4F4C
:1001B000FB016F5F7F4FE491ED93A217B307C1F787
:1001C00045E0BE016F5F7F4FA6DF04C0FB01649175
:1001D00069838FDF0F900F900F900F900F90DF913A
:1001E000CF9108951F93CF93DF931F92CDB7DEB7C2
:1001F000182F80E0698376DF6981113009F404C02B
:10020000123011F4846001C08B7F613011F488607A
:1002100003C0623009F4877F682F80E00F90DF9180
:10022000CF911F9166CF299880E05CDF682F6360D3
:1002300080E05FDF299A83E091E00197F1F700C049
:1002400000000895FF920F931F93CF93DF93809147
:100250000001813019F4E7DF10920001809128013C
:100260008823C9F129981092280184E091E0082F91
:100270002A9880E60EDF8FEF06DF182F2A9A813248
:1002800050F02A988FEFFFDE2A9A682F606487E08B
:1002900030DF299A20C02A9881E6FBDEC4E0D1E055
:1002A000F12EF00E03C08FEFEEDE8993FC12FBCF30
:1002B0002A9A87E117DFC82F112351F0E09101013D
:1002C000F0910201309721F0612F84E091E00995CF
:1002D000C0FFCECFD6CFDF91CF911F910F91FF906E
:1002E0000895682F6F7785E004CF2A9881EED1DEDC
:1002F0002A9A08952A9882EECCDE2A9A08950F93BE
:100300001F93CF93DF931F92CDB7DEB7182F042F23
:1003100082E06983E7DE982F6981613011F4912BC7
:1003200005C0623019F4812F80959823692F82E0EF
:10033000E0DE81E0D7DE682F013011F4612B04C0CC
:10034000023011F41095612381E00F90DF91CF917D
:100350001F910F91CECECF93C62F682F8CE1C9DEAF
:100360008DE1C0DEC13011F4846003C0C23009F4F5
:100370008B7F682F8DE1CF91BCCEE89AE9E6F0E063
:1003800080818260808308956CDEF7DF84E390E0F3
:10039000DADE6AE370E08AE0F7DE60E080E0A9DEA2
:1003A000A9DFA3DF61E081E01DDF84E19ADF41E0A6
:1003B00061E081E0A4DF6FEF84E09BDE66E086E031
:1003C00098DE61E081E0C7DF81E080932801109230
:1003D000250160E787E08DCE1F920F920FB60F9236
:1003E00011242F933F934F935F936F937F938F933A
:1003F0009F93AF93BF93CF93EF93FF932A988FEF81
:1004000042DEC82F2A9A86FF03C081E0809328012C
:10041000C5FF0AC0C0626C2F87E06BDE1092250119
:1004200081E0809300012998C4FF0BC06C2F6063AA
:1004300087E05FDE1092250181E08093000155DFA7
:100440002998FF91EF91CF91BF91AF919F918F919B
:100450007F916F915F914F913F912F910F900FBEC0
:100460000F901F901895509A519A549A269A279A4D
:10047000559A569A579A209A539A3B9A589859984F
:100480005C982E982F985D985E985F9828985B9856
:10049000439A0895FC01B081A181728163819481A6
:1004A00055814681378120858A2F8B2B872B862B80
:1004B000892B852B842B832B822B59F04398B133C6
:1004C00041F480912F01811104C0589A81E08093FA
:1004D0003001A13341F480913001811104C0599A57
:1004E00081E080932F01713341F4809129018111C2
:1004F00004C05C9A81E080932A01613341F48091C9
:100500002A01811104C02E9A81E080932901913340
:10051000F9F48091320190913301892BC9F48091D3
:10052000370181110CC080913801811104C02F9ACC
:1005300081E0809337015D981092380103C02F98B5
:100540001092370182E390E090933301809332015F
:100550005133F9F48091350190913601892BC9F41A
:100560008091380181110CC080913701811104C044
:100570005D9A81E0809338012F981092370103C073
:100580005D981092380182E390E090933601809359
:100590003501413309F046C0213319F580912D0111
:1005A00090912E01892BE9F43133A9F08091030158
:1005B000811105C081E0809303015E9A05C08130FE
:1005C00029F4109203015E985B9805C081E0809346
:1005D00003015B985E9A82E390E090932E018093F2
:1005E0002D013133F9F480913B0190913C01892B2D
:1005F000C9F4213389F080910301811101C002C047
:10060000813031F482E0809303015B9A5E9A04C0EA
:10061000109203015B985E9882E390E090933C0116
:1006200080933B01E4E0F1E0119281E0EF30F807C4
:10063000D9F70895CF93DF93CDB7DEB72B970FB6D9
:10064000F894DEBF0FBECDBFDE0111968BE0FD0139
:1006500011928A95E9F7E4E0F1E081918D9381E0D0
:10066000EF30F807D1F7439A8981813319F0589810
:10067000109230018A81813319F0599810922F011C
:100680008B81813319F05C9810922A018C8181331F
:1006900019F02E9810922901CE010196FBDE2B96BF
:1006A0000FB6F894DEBF0FBECDBFDF91CF91089596
:1006B000E1E8F0E0808188608083808185608083CC
:1006C0008EE490E09093890080938800EFE6F0E05C
:1006D000808182608083089588E10FB6F8948093CA
:1006E0006000109260000FBE4FDEBDDEE1DF789447
:1006F0009ADD81E090E090932C0180932B0182E3BE
:1007000090E090933301809332019093360180936F
:10071000350190933A018093390190932E01809393
:100720002D0128E288E190E00FB6F894A895809317
:1007300060000FBE20936000C1E0D0E083DD8091B7
:100740002B0190912C01892B29F474DFD0932C017B
:10075000C0932B01A895F2CF1F920F920FB60F9264
:1007600011248F939F9380912B0190912C010097DE
:1007700029F0019790932C0180932B0180913201F5
:1007800090913301009729F0019790933301809362
:1007900032018091350190913601009729F001973F
:1007A00090933601809335018091390190913A01FF
:1007B000009729F0019790933A0180933901809135
:1007C0002D0190912E01009729F0019790932E0111
:1007D00080932D0180913B0190913C01009729F07D
:1007E000019790933C0180933B019F918F910F90D3
:0C07F0000FBE0F901F901895F894FFCFDB
:00000001FF
