:100000000C9444000C946C020C9456000C94560012
:100010000C9456000C9456000C9456000C94560008
:100020000C9456000C9456000C9456000C945600F8
:100030000C9456000C9456000C9456000C945600E8
:100040000C9456000C9456000C94CC020C940B03A8
:100050000C9456000C9456000C9456000C945600C8
:100060000C9456000C9456005A4150414C5F4C453C
:1000700044005A4741535F4C45440041544E454C5F
:100080000041544E454C000011241FBECFEFD8E074
:10009000DEBFCDBF21E0A0E0B1E001C01D92AD36D2
:1000A000B207E1F70E94B1000C9440030C940000E9
:1000B0005298389A399A229A239A2498259A5A9AC9
:1000C0004098419A2A9A2B9A2D9A8CB582658CBDBC
:1000D0008DB581608DBD08958EBD0DB407FEFDCF39
:1000E0008EB508958EBD0DB407FEFDCF0895EF9235
:1000F000FF920F931F93CF93DF9300D0CDB7DEB75E
:100100008C017B010CC0F70181917F0149836A83D7
:100110000E946C00F80181938F016A8149818E2DC4
:10012000861B841780F30F900F90DF91CF911F9162
:100130000F91FF90EF900895CF93DF93EC0168E665
:1001400070E00E943703892B09F4289A62E770E077
:10015000CE010E943703892B09F42898DF91CF91B3
:100160000895209A28980E9436028CE990E00E9417
:10017000BF0078940E9470010E948101FDCF90938E
:10018000020180930101089541988F710E947200CD
:100190008FEF0E946C00419A0895CF93DF931F92D6
:1001A000CDB7DEB741988F71806269830E9472007B
:1001B0006981862F0E947200419A0F90DF91CF9142
:1001C00008950F931F93CF93DF931F92CDB7DEB7A0
:1001D0008B0141988F71806249830E94720049812E
:1001E000B801C8010E947700419A0F90DF91CF912A
:1001F0001F910F910895CF93DF9300D000D01F92ED
:10020000CDB7DEB7DE0111969E012A5F3F4FFC019C
:100210000196E491ED93A217B307C9F745E0BE013B
:100220006F5F7F4F80E10E94E1000F900F900F9071
:100230000F900F90DF91CF910895CF93DF9300D06F
:1002400000D01F92CDB7DEB7803128F48A3018F085
:100250008C30B0F401C08AE0DE0111969E012A5F65
:100260003F4FFB016F5F7F4FE491ED93A217B30700
:10027000C1F745E0BE016F5F7F4F0E94E10005C0FE
:10028000FB01649169830E94CD000F900F900F9045
:100290000F900F90DF91CF9108951F93CF93DF932D
:1002A0001F92CDB7DEB7182F80E069830E94C4008B
:1002B0006981113009F404C0123011F4846001C066
:1002C0008B7F613011F4886003C0623009F4877F4E
:1002D000682F80E00F90DF91CF911F910C94CD009B
:1002E000409880E00E94C400682F636080E00E9414
:1002F000CD00409A87E092E00197F1F700C000003E
:100300000895FF920F931F93CF93DF938091000185
:10031000813021F40E947001109200018091280127
:10032000882309F440C040981092280184E091E0AD
:10033000082F419880E60E9472008FEF0E946C00A7
:10034000182F419A813260F041988FEF0E946C0023
:10035000419A682F606487E00E94CD00409A23C0D4
:10036000419881E60E947200C4E0D1E0F12EF00EC7
:1003700004C08FEF0E946C008993FC12FACF419A5F
:1003800087E10E94C400C82F112351F0E0910101C0
:10039000F0910201309721F0612F84E091E00995FE
:1003A000C0FFC7CFD1CFDF91CF911F910F91FF90A9
:1003B0000895682F6F7785E00C94CD00419881EE09
:1003C0000E947200419A0895419882EE0E94720044
:1003D000419A08950F931F93CF93DF931F92CDB748
:1003E000DEB7182F042F82E069830E94C400982F83
:1003F0006981613011F4912B05C0623019F4812FAD
:1004000080959823692F82E00E94CD0081E00E94B0
:10041000C400682F013011F4612B04C0023011F4C4
:100420001095612381E00F90DF91CF911F910F9183
:100430000C94CD00CF93C62F682F8CE10E94CD0085
:100440008DE10E94C400C13011F4846003C0C23049
:1004500009F48B7F682F8DE1CF910C94CD00E89A41
:10046000E9E6F0E080818260808308950E94580070
:100470000E942F028BE790E00E94FB0061E870E091
:100480008AE00E941D0160E080E00E94CD000E9491
:10049000E4010E94DE0161E081E00E944D018AE0FA
:1004A0000E94D90141E061E081E00E94EA016FEF22
:1004B00084E00E94CD0066E086E00E94CD0061E00D
:1004C00081E00E941A0281E08093280110922501A8
:1004D00060E787E00C94CD001F920F920FB60F9249
:1004E00011242F933F934F935F936F937F938F9339
:1004F0009F93AF93BF93CF93EF93FF9341988FEF69
:100500000E946C00C82F419A86FF03C081E080934F
:100510002801C5FF0BC0C0626C2F87E00E94CD0090
:100520001092250181E0809300014098C4FF0DC026
:100530006C2F606387E00E94CD001092250181E05E
:10054000809300010E94DE014098FF91EF91CF91CE
:10055000BF91AF919F918F917F916F915F914F91DB
:100560003F912F910F900FBE0F901F901895909173
:100570003B019F5F9F7020916C019217E1F3E92F7F
:10058000F0E0E65DFE4F808390933B018091C100D7
:1005900080628093C10008951F920F920FB60F9250
:1005A00011242F933F934F935F936F937F938F9378
:1005B0009F93AF93BF93EF93FF938091C6008D30CD
:1005C00049F40E94B7028AE00E94B70281E080935A
:1005D000030180E08093C600E0912901EF5FEF7195
:1005E00090913A01E91731F0E0932901F0E0E45CE1
:1005F000FE4F8083FF91EF91BF91AF919F918F91BB
:100600007F916F915F914F913F912F910F900FBE0E
:100610000F901F9018951F920F920FB60F921124F2
:100620008F939F93EF93FF9390913B0180916C0187
:10063000981779F080916C018F5F8F7080936C01B7
:10064000E0916C01F0E0E65DFE4F80818093C60092
:1006500005C08091C1008F7D8093C100FF91EF9113
:100660009F918F910F900FBE0F901F901895FB01D7
:10067000DC018D91059080190110D9F3990B089533
:04068000F894FFCF1C
:00000001FF
