:100000001FC093C22DC02CC02BC02AC029C028C03D
:1000100027C026C025C081C423C022C021C020C063
:100020001FC01EC01DC01CC01BC01AC019C018C0F4
:1000300017C016C041544E454C0041544E454C002B
:1000400011241FBECFEFD4E0DEBFCDBF21E0A0E082
:10005000B1E001C01D92AD34B207E1F7D8D2E4C4DB
:10006000CFCF5298219A229A239A2498259A5A9A65
:1000700029982A9A2B982C982D988CB580658CBD40
:100080008DB581608DBD08958EBD0DB407FEFDCF89
:100090008EB508958EBD0DB407FEFDCF0895EF9285
:1000A000FF921F93CF93DF931F92CDB7DEB7182F28
:1000B000E82EF92E06C0F70181917F016983EADFFE
:1000C00069818E2D811B8617B0F30F90DF91CF9140
:1000D0001F91FF90EF900895EF92FF920F931F935F
:1000E000CF93DF9300D0CDB7DEB78C017B010BC07F
:1000F000F70181917F0149836A83C6DFF80181930B
:100100008F016A8149818E2D861B841788F30F9099
:100110000F90DF91CF911F910F91FF90EF90089575
:10012000909303018093020108952A988F71B2DFA2
:100130008FEFAADF2A9A0895CF93DF931F92CDB74E
:10014000DEB72A988F7180626983A4DF6981862F68
:10015000A1DF2A9A0F90DF91CF9108950F931F93FB
:10016000CF93DF931F92CDB7DEB78B012A988F71A3
:10017000498390DF4981B801C801AEDF2A9A0F9008
:10018000DF91CF911F910F9108950F931F93CF93FC
:10019000DF931F92CDB7DEB78B012A988F718062F3
:1001A000498378DF4981B801C80196DF2A9A0F9008
:1001B000DF91CF911F910F910895CF93DF9300D0DE
:1001C00000D01F92CDB7DEB7DE0111969E012A5FE7
:1001D0003F4FFC010196E491ED93A217B307C9F7D5
:1001E00045E0BE016F5F7F4F80E1CFDF0F900F9042
:1001F0000F900F900F90DF91CF910895CF93DF93E1
:1002000000D000D01F92CDB7DEB7803128F48A30FD
:1002100018F08C30A8F401C08AE0DE0111969E012E
:100220002A5F3F4FFB016F5F7F4FE491ED93A21771
:10023000B307C1F745E0BE016F5F7F4FA6DF04C083
:10024000FB016491698378DF0F900F900F900F90FE
:100250000F90DF91CF9108952A988FEF15DF2A9A9A
:10026000807408951F93CF93DF931F92CDB7DEB7AD
:10027000182F80E0698359DF6981113009F404C0C7
:10028000123011F4846001C08B7F613011F48860FA
:1002900003C0623009F4877F682F80E00F90DF9100
:1002A000CF911F9149CF299880E03FDF682F6E7F63
:1002B000626080E041CF299880E037DF682F63607B
:1002C00080E03ADF299A83E091E00197F1F700C0DE
:1002D00000000895FF920F931F93CF93DF938091B7
:1002E0000001813019F4E7DF1092000180912801AC
:1002F0008823C9F129981092280184E091E0082F01
:100300002A9880E6C7DE8FEFBFDE182F2A9A813247
:1003100050F02A988FEFB8DE2A9A682F606487E041
:100320000BDF299A20C02A9881E6B4DEC4E0D1E030
:10033000F12EF00E03C08FEFA7DE8993FC12FBCFE6
:100340002A9A87E1F2DEC82F112351F0E0910201D1
:10035000F0910301309721F0612F84E091E009953D
:10036000C0FFCECFD6CFDF91CF911F910F91FF90DD
:100370000895682F6F7785E0DFCE2A9881EE8ADEB8
:100380002A9A08952A9882EE85DE2A9A0895299855
:1003900080E0CBDE682F6C7F80E0CEDEF3DFEDCF38
:1003A0000F931F93CF93DF931F92CDB7DEB7182F14
:1003B000042F82E06983B9DE982F6981613011F4DE
:1003C000912B05C0623019F4812F80959823692FF5
:1003D00082E0B2DE81E0A9DE682F013011F4612BEA
:1003E00004C0023011F41095612381E00F90DF9179
:1003F000CF911F910F91A0CEEF92FF920F931F9379
:10040000CF93DF931F92CDB7DEB7182F80912501D0
:10041000813089F181E0809325018091260181302E
:1004200019F4A091270108C0E12FF92FDF010D90E9
:100430000020E9F71197A11B0A2FA03208F00FE165
:10044000998331DFEBE2F1E03197F1F700C0000072
:100450002A9880EA1FDEE12E9981F92E04C0F70167
:1004600081917F0117DE8E2D811B8017C0F380E004
:1004700011DE2A9A299A0F90DF91CF911F910F9147
:10048000FF90EF900895CF93C62F6F7155DE81E0F6
:1004900080932601C0932701CF910895682B84E0B3
:1004A0004BCE682B86E048CECF93C62F682F8CE1C9
:1004B00043DE8DE13ADEC13011F4846003C0C23006
:1004C00009F48B7F682F8DE1CF9136CEE89AE9E66B
:1004D000F0E08081826080830895C3DDF7DF84E3EC
:1004E00090E06BDE6AE370E08AE088DE60E080E046
:1004F00023DE48DF42DF61E081E0B4DE84E139DF02
:1005000041E061E081E04CDF6FE084E015DE66E011
:1005100086E012DE61E081E0C7DF81E080932801A0
:100520001092250160E787E007CE1F920F920FB669
:100530000F9211242F933F934F935F936F937F9369
:100540008F939F93AF93BF93CF93EF93FF932A988B
:100550008FEF9ADDC82F2A9A86FF03C081E080932F
:100560002801C5FF0AC081E080930001C0626C2FA2
:1005700087E0E2DD109225012998C4FF0BC010929C
:1005800025016C2F606387E0D7DD81E08093000157
:10059000F4DE2998FF91EF91CF91BF91AF919F9198
:1005A0008F917F916F915F914F913F912F910F901C
:1005B0000FBE0F901F9018952098579856985598F1
:1005C0002798389839983A983B983C983D98289ABB
:1005D0005F9A5E9A5D9A2F9A409A419A429A439AFC
:1005E000449A459A0895E1E8F0E08081886080832C
:1005F0008081856080838CE690E090938900809371
:100600008800EFE6F0E08081826080830895D4DF87
:1006100064DF86E0AEDEE7DF509A589878948EE18A
:1006200090E090932A018093290190933601809362
:10063000350190933A01809339019093480180935A
:10064000470190932F0180932E0190934C0180934A
:100650004B0190933801809337019093320180933E
:10066000310190932D0180932C019093340180935C
:10067000330190934A018093490111E3CEE1D0E028
:1006800000E3189914C08091290190912A01892BC7
:10069000A9F4189913C080912B01816080932B01DC
:1006A00010933B01D0932A01C093290107C0809188
:1006B0002B018E7F80932B0100933B014F9914C037
:1006C0008091350190913601892BA9F44F9913C07F
:1006D00080912B01826080932B0110933C01D09379
:1006E0003601C093350107C080912B018D7F809327
:1006F0002B0100933C014E9914C0809139019091D7
:100700003A01892BA9F44E9913C080912B01846082
:1007100080932B0110933D01D0933A01C09339018E
:1007200007C080912B018B7F80932B0100933D01AB
:100730004D9914C08091470190914801892BA9F4EB
:100740004D9913C080912B01886080932B011093E9
:100750003E01D0934801C093470107C080912B010F
:10076000877F80932B0100933E011F9914C08091D5
:100770002E0190912F01892BA9F41F9913C080910C
:100780002B01806180932B0110933F01D0932F01A7
:10079000C0932E0107C080912B018F7E80932B0187
:1007A00000933F01309914C080914B0190914C010E
:1007B000892BA9F4309913C080912B01806280931A
:1007C0002B0110934001D0934C01C0934B0107C003
:1007D00080912B018F7D80932B01009340013199F3
:1007E00014C08091370190913801892BA9F4319977
:1007F00013C080912B01806480932B0110934101E1
:10080000D0933801C093370107C080912B018F7BB3
:1008100080932B0100934101329914C080913101E2
:1008200090913201892BA9F4329913C080912B0148
:10083000806880932B0110934201D0933201C093C2
:10084000310107C080912B018F7780932B0100939A
:100850004201339914C080912C0190912D01892B74
:10086000A9F4339913C080913001816080933001E5
:1008700010934301D0932D01C0932C0107C08091A8
:1008800030018E7F8093300100934301349914C06E
:100890008091330190913401892BA9F4349913C0CC
:1008A0008091300182608093300110934401D09395
:1008B0003401C093330107C0809130018D7F809354
:1008C000300100934401359914C080914901909101
:1008D0004A01892BA9F4359913C0809130018460B5
:1008E0008093300110934501D0934A01C093490190
:1008F00007C0809130018B7F8093300100934501C8
:1009000080912B01837C39F0589A109246018BE339
:1009100091E072DDB6CE5898B4CE1F920F920FB60A
:100920000F9211248F939F938091290190912A0116
:10093000009729F0019790932A01809329018091D3
:10094000350190913601009729F001979093360177
:10095000809335018091390190913A01009729F0F7
:10096000019790933A0180933901809147019091CA
:100970004801009729F0019790934801809347011F
:1009800080912E0190912F01009729F0019790936B
:100990002F0180932E0180914B0190914C01009783
:1009A00029F0019790934C0180934B01809137017E
:1009B00090913801009729F0019790933801809326
:1009C00037018091310190913201009729F0019710
:1009D000909332018093310180912C0190912D01EF
:1009E000009729F0019790932D0180932C0180911D
:1009F000330190913401009729F0019790933401CD
:100A0000809333018091490190914A01009729F028
:100A1000019790934A01809349019F918F910F9084
:0C0A20000FBE0F901F901895F894FFCFA8
:00000001FF
