:100000001FC091C22DC02CC02BC02AC029C028C03F
:1000100027C026C025C09BC423C022C021C020C049
:100020001FC01EC01DC01CC01BC01AC019C018C0F4
:1000300017C016C041544E454C0041544E454C002B
:1000400011241FBECFEFD4E0DEBFCDBF21E0A0E082
:10005000B1E001C01D92A434B207E1F72ED4DDC493
:10006000CFCF2298219A229A239A2498259A2A9AC5
:1000700029982A9A2B9A2D9A8CB582658CBD8DB5BC
:1000800081608DBD08958EBD0DB407FEFDCF8EB588
:1000900008958EBD0DB407FEFDCF0895EF92FF9237
:1000A0001F93CF93DF931F92CDB7DEB7182FE82EA3
:1000B000F92E06C0F70181917F016983EADF69812A
:1000C0008E2D811B8617B0F30F90DF91CF911F917A
:1000D000FF90EF900895EF92FF920F931F93CF93AD
:1000E000DF9300D0CDB7DEB78C017B010BC0F701E9
:1000F00081917F0149836A83C6DFF80181938F0173
:100100006A8149818E2D861B841788F30F900F908A
:10011000DF91CF911F910F91FF90EF9008959093F1
:1001200003018093020108952A988F71B2DF8FEF47
:10013000AADF2A9A0895CF93DF931F92CDB7DEB737
:100140002A988F7180626983A4DF6981862FA1DF7D
:100150002A9A0F90DF91CF9108950F931F93CF9319
:10016000DF931F92CDB7DEB78B012A988F71498339
:1001700090DF4981B801C801AEDF2A9A0F90DF9164
:10018000CF911F910F9108950F931F93CF93DF93FA
:100190001F92CDB7DEB78B012A988F718062498399
:1001A00078DF4981B801C80196DF2A9A0F90DF9164
:1001B000CF911F910F910895CF93DF9300D000D07E
:1001C0001F92CDB7DEB7DE0111969E012A5F3F4F29
:1001D000FC010196E491ED93A217B307C9F745E03E
:1001E000BE016F5F7F4F80E1CFDF0F900F900F90C8
:1001F0000F900F90DF91CF910895CF93DF9300D0B0
:1002000000D01F92CDB7DEB7803128F48A3018F0C5
:100210008C30A8F401C08AE0DE0111969E012A5FAD
:100220003F4FFB016F5F7F4FE491ED93A217B30740
:10023000C1F745E0BE016F5F7F4FA6DF04C0FB0141
:100240006491698378DF0F900F900F900F900F905B
:10025000DF91CF9108952A988FEF15DF2A9A807445
:1002600008951F93CF93DF931F92CDB7DEB7182F5A
:1002700080E0698359DF6981113009F404C01230CC
:1002800011F4846001C08B7F613011F4886003C079
:10029000623009F4877F682F80E00F90DF91CF9163
:1002A0001F9149CF299880E03FDF682F6E7F626001
:1002B00080E041CF299880E037DF682F636080E0DD
:1002C0003ADF299A83E091E00197F1F700C000003E
:1002D0000895FF920F931F93CF93DF9380910001B6
:1002E000813019F4E7DF1092000180912901882301
:1002F000C9F129981092290185E091E0082F2A98E8
:1003000080E6C7DE8FEFBFDE182F2A9A813250F0C9
:100310002A988FEFB8DE2A9A682F606487E00BDF97
:10032000299A20C02A9881E6B4DEC5E0D1E0F12EFA
:10033000F00E03C08FEFA7DE8993FC12FBCF2A9A41
:1003400087E1F2DEC82F112351F0E0910201F09114
:100350000301309721F0612F85E091E00995C0FFFE
:10036000CECFD6CFDF91CF911F910F91FF900895FF
:10037000682F6F7785E0DFCE2A9881EE8ADE2A9A91
:1003800008952A9882EE85DE2A9A0895299880E0B9
:10039000CBDE682F6C7F80E0CEDEF3DFEDCF0F93F6
:1003A0001F93CF93DF931F92CDB7DEB7182F042F83
:1003B00082E06983B9DE982F6981613011F4912B55
:1003C00005C0623019F4812F80959823692F82E04F
:1003D000B2DE81E0A9DE682F013011F4612B04C088
:1003E000023011F41095612381E00F90DF91CF91DD
:1003F0001F910F91A0CEEF92FF920F931F93CF9377
:10040000DF931F92CDB7DEB7182F80912601813080
:1004100081F181E08093260180912701813019F4D8
:10042000A091280108C0E12FF92FDF010D900020D5
:10043000E9F71197A11B0A2FA03208F00FE1998369
:1004400031DFEBE2F1E03197F1F700C000002A98CC
:1004500080EA1FDEE12E9981F92E100F04C0F7010A
:1004600081917F0116DE1E11FACF80E012DE2A9AFA
:10047000299A0F90DF91CF911F910F91FF90EF90EC
:100480000895CF93C62F6F7156DE81E080932701C8
:10049000C0932801CF910895682B84E04CCE682B3F
:1004A00086E049CECF93C62F682F8CE144DE8DE1E4
:1004B0003BDEC13011F4846003C0C23009F48B7F8D
:1004C000682F8DE1CF9137CEE89AE9E6F0E08081A0
:1004D000826080830895C5DDF7DF84E390E06CDE01
:1004E0006AE370E08AE089DE60E080E024DE49DFD4
:1004F00043DF61E081E0B5DE84E13ADF41E061E0C5
:1005000081E04DDF6FEF84E016DE66E086E013DE0B
:1005100061E081E0C7DF81E080932901109226012C
:1005200060E787E008CE1F920F920FB60F9211245A
:100530002F933F934F935F936F937F938F939F93EB
:10054000AF93BF93CF93EF93FF932A988FEF9BDDE9
:10055000C82F2A9A86FF03C081E080932901C5FF36
:100560000AC0C0626C2F87E0E6DD1092260181E0B0
:10057000809300012998C4FF0BC06C2F606387E053
:10058000DADD1092260181E080930001F5DE2998E2
:10059000FF91EF91CF91BF91AF919F918F917F91FB
:1005A0006F915F914F913F912F910F900FBE0F90E0
:1005B0001F901895209A579A569A559A279A269AD4
:1005C000549A539A519A509A389A28985F985E98FC
:1005D0005D982F982E985C985B98599858984098F9
:1005E0000895CF93DF93FC01D081C181B281A381B3
:1005F00094817581668157814085218532858C2F54
:100600008D2B8B2B8A2B892B872B862B852B842B51
:10061000822B832B59F0409AD13341F480913101E0
:10062000811104C0289A81E080933201C13341F4E2
:1006300080913201811104C05F9A81E08093310181
:10064000B13341F480912A01811104C05E9A81E0A6
:1006500080932B01A13341F480912B01811104C0BF
:100660005D9A81E080932A019133F9F480913801F9
:1006700090913901892BC9F480913E0181110CC000
:1006800080913F01811104C02F9A81E080933E0147
:100690002E9810923F0103C02F9810923E0182E3E2
:1006A00090E090933901809338017133F9F480918F
:1006B0003C0190913D01892BC9F480913F0181114A
:1006C0000CC080913E01811104C02E9A81E080937C
:1006D0003F012F9810923E0103C02E9810923F01C7
:1006E00082E390E090933D0180933C016133F9F403
:1006F0008091400190914101892BC9F4809134018E
:1007000081110CC080913501811104C05C9A81E097
:10071000809334015B981092350103C05C9810926D
:10072000340182E390E09093410180934001513382
:10073000F9F480912F0190913001892BC9F48091B7
:10074000350181110CC080913401811104C05B9A84
:1007500081E0809335015C981092340103C05B986E
:100760001092350182E390E09093300180932F0145
:10077000413309F046C0213319F58091420190912F
:100780004301892BE9F43133A9F0809104018111EF
:1007900005C081E080930401599A05C0813029F495
:1007A000109204015998589805C081E08093040183
:1007B0005898599A82E390E09093430180934201C4
:1007C0003133F9F480913A0190913B01892BC9F4BE
:1007D000213389F080910401811101C002C0813070
:1007E00031F482E080930401589A599A04C010921F
:1007F00004015898599882E390E090933B018093CC
:100800003A01E5E0F1E0119281E0E031F807D9F733
:10081000DF91CF910895CF93DF93CDB7DEB72B97BC
:100820000FB6F894DEBF0FBECDBFDE0111968BE090
:10083000FD0111928A95E9F7E5E0F1E081918D9350
:1008400081E0E031F807D1F740988981813319F0D0
:100850002898109232018A81813319F05F981092A2
:1008600031018B81813319F05E9810922B018C81BC
:10087000813319F05D9810922A01CE010196B1DE04
:100880002B960FB6F894DEBF0FBECDBFDF91CF9190
:100890000895E1E8F0E08081886080838081856050
:1008A00080838EE490E09093890080938800EFE647
:1008B000F0E0808182608083089588E10FB6F8942B
:1008C00080936000109260000FBE05DE86E050DD70
:1008D00071DEDFDF7894EEDC81E090E090932D0113
:1008E00080932C0182E390E090933901809338014A
:1008F00090933D0180933C0190934101809340018E
:100900009093300180932F01909343018093420193
:1009100090933B0180933A0128E288E190E00FB682
:10092000F894A895809360000FBE20936000C1E00A
:10093000D0E0CFDC80912C0190912D01892B29F4FE
:100940006ADFD0932D01C0932C01A895F2CF1F929E
:100950000F920FB60F9211248F939F9380912C01C9
:1009600090912D01009729F0019790932D0180938C
:100970002C018091380190913901009729F001975D
:10098000909339018093380180913C0190913D0111
:10099000009729F0019790933D0180933C0180914D
:1009A000400190914101009729F0019790934101F6
:1009B0008093400180912F0190913001009729F0A0
:1009C00001979093300180932F0180914201909183
:1009D0004301009729F001979093430180934201CE
:1009E00080913A0190913B01009729F001979093F3
:1009F0003B0180933A018091360190913701009735
:100A000029F0019790933701809336019F918F9140
:0E0A10000F900FBE0F901F901895F894FFCF17
:00000001FF
