:100000000C943C000C9459000C9459000C94590029
:100010000C9459000C9459000C9459000C945900FC
:100020000C9459000C9459000C9459000C945900EC
:100030000C9459000C94F1010C94B5010C944401FA
:100040000C9459000C9459000C9459000C945900CC
:100050000C9459001B5B6D001B5B3F323568001B25
:100060005B3F32356C001B5B3B48001B5B324A0038
:100070000E1111110E20202011241FBECFE5D8E053
:10008000DEBFCDBF10E0A0E6B0E0ECE3F4E102C0DB
:1000900005900D92AE3EB107D9F721E0AEEEB0E08B
:1000A00001C01D92AD35B207E1F70E94BC080C9467
:1000B0001C0A0C940000882319F088E590E002C027
:1000C0008FE590E00C946C01CF93C82F84E590E00D
:1000D0000E946C018C2F0E945B008BE690E00E94D6
:1000E0006C0186E690E0CF910C946C010F931F9306
:1000F000CF93DF931F92CDB7DEB7082F10E016170E
:1001000039F0802F69830E944F011F5F6981F7CF0B
:100110000F90DF91CF911F910F9108951F93CF936F
:10012000DF9300D0CDB7DEB7182F8BE14A83698308
:100130000E944F018BE50E944F0180E3810F0E94D6
:100140004F018BE30E944F0183E30E944F016981BD
:1001500080E3860F0E944F018BE30E944F0184E3EE
:100160000E944F014A8180E3840F0E944F018DE677
:100170000F900F90DF91CF911F910C944F01CF936F
:10018000C82F8BE10E944F018BE50E944F0183E352
:100190000E944F0180E38C0F0E944F018DE6CF91AA
:1001A0000C944F01CF93C82F8BE10E944F018BE538
:1001B0000E944F0184E30E944F0180E38C0F0E9454
:1001C0004F018DE6CF910C944F01CF93DF93D82F41
:1001D000C62F8BE10E944F018BE50E944F016AE020
:1001E00070E08D2F90E00E947B018BE30E944F0115
:1001F0006AE070E08C2F90E00E947B0188E4DF9140
:10020000CF910C944F0143E064E080E00E948E00A7
:1002100060E082E00E94E50087EE90E00E946001CD
:1002200060E083E00E94E50087EE90E00E946001BC
:1002300060E084E00E94E50087EE90E00E946001AB
:1002400062E282E00E94E50087EE90E00E94600199
:1002500062E283E00E94E50087EE90E00E94600188
:1002600062E284E00E94E50087EE90E00C94600179
:1002700090BD89B988E18AB986E880BD8A9A929A48
:100280008AB1886D8AB908951F920F920FB60F92A6
:10029000112492980F900FBE0F901F901895909177
:1002A000EE009F5F9F702091EF009217E1F3E92F1E
:1002B000F0E0E051FF4F80839093EE00559A08954F
:1002C000CF93DF93EC018991882319F00E944F01AD
:1002D000FACFDF91CF910895CF93DF93FC01849102
:1002E000EF012196882321F00E944F01FE01F7CFF4
:1002F000DF91CF910895CF93DF93CDB7DEB76197AC
:100300000FB6F894DEBF0FBECDBFAB01BE016F5F6D
:100310007F4F0E94A309CE0101960E946001619661
:100320000FB6F894DEBF0FBECDBFDF91CF91089519
:10033000CF93DF93CDB7DEB7A1970FB6F894DEBFAA
:100340000FBECDBFAB01BE016F5F7F4F0E94A309FF
:10035000CE0101960E946001A1960FB6F894DEBF0F
:100360000FBECDBFDF91CF9108951F920F920FB6B0
:100370000F9211248F939F93EF93FF939091EE0030
:100380008091EF00981771F08091EF008F5F8F7070
:100390008093EF00E091EF00F0E0E051FF4F8081AB
:1003A0008CB901C05598FF91EF919F918F910F905B
:1003B0000FBE0F901F901895909100018091010140
:1003C000981769F0809101018F5F8F71809301010F
:1003D000E0910101F0E0EE5FFE4F8081089580E042
:1003E00008951F920F920FB60F9211248F939F932F
:1003F000EF93FF938CB1E0910001EF5FEF7190916B
:100400000101E91731F0E0930001F0E0EE5FFE4FEB
:100410008083FF91EF919F918F910F900FBE0F906E
:100420001F901895D69AD59AD49AD39A089589B3DD
:1004300083FB882780F9CC998260CD998460CE991E
:100440008860089580FF02C0DB9A01C0DB9881FFBD
:1004500002C0DC9A01C0DC9882FF02C0DD9A01C0B4
:10046000DD9883FF02C0DE9A0895DE980895CF9349
:10047000D698D598D498D398D99ADA9A0E94170228
:10048000C82FC295C07FDA98DA9A0E941702DA98CC
:100490008C2BCF910895D8980C943702CF93C82F06
:1004A0000E941202D998DA9A8C2F82958F700E943E
:1004B0002202DA98DA9A8C2F0E942202DA980E949D
:1004C0004B0287FDFCCFCF910895D8980C944E0233
:1004D000D89A0C944E0290E8980F983008F48770E0
:1004E0000C946802CF93DF93EC018991882319F073
:1004F0000E946B02FACFDF91CF910895CF93DF93E3
:10050000FC018491EF012196882321F00E946B0267
:10051000FE01F7CFDF91CF910895CF93DF93EC01E8
:1005200021960E94040A9FEF980F9E3F20F40E949C
:100530006B02CE01F4CFDF91CF910895CF93DF937B
:10054000CDB7DEB761970FB6F894DEBF0FBECDBF53
:100550004AE0BE016F5F7F4F0E94AE090E947202A7
:1005600061960FB6F894DEBF0FBECDBFDF91CF917D
:100570000895CF93DF93CDB7DEB761970FB6F894A8
:10058000DEBF0FBECDBF20E1AE014F5F5F4F0E94C7
:10059000B9090E94720261960FB6F894DEBF0FBED1
:1005A000CDBFDF91CF910895EF92FF920F931F93EC
:1005B000CF93DF9300D0CDB7DEB78770880F880F59
:1005C000880F805C69837A830E9465026981E62EC8
:1005D0007A81F72E8701085F1F4FF70181917F0114
:1005E0000E946802E016F106C1F70F900F90DF91AC
:1005F000CF911F910F91FF90EF9008950F931F934C
:10060000CF93DF93EB018770880F880F880F805C92
:100610000E9465028E01085F1F4FFE0184910E94B7
:1006200068022196C017D107C1F7DF91CF911F91C2
:100630000F910895EF92FF920F931F93CF93DF9343
:10064000EB018770880F880F880F805C0E9465021D
:100650007E0188E0E80EF11C8E010F5F1F4FCE0176
:100660000E94040A0E9468020E151F0511F0E8019D
:10067000F3CFDF91CF911F910F91FF90EF900895ED
:10068000813009F480E46058860F0C94650281E0A3
:100690000C946502D79ADF9A0E941202D09AD29ADD
:1006A000D19AD89ADA9AD99A8FEF91EA0197F1F70D
:1006B00000C00000DA98D898D998DA9A83E00E94AE
:1006C0002202DA9887E49CE20197F1F700C0DA9AF7
:1006D00083E00E942202DA9884E191E00197F1F729
:1006E0000000DA9A83E00E942202DA9884E191E025
:1006F0000197F1F70000DA9A82E00E942202DA986C
:1007000084E191E00197F1F7000088E20E94650220
:1007100088E00E9465028CE00E94650286E00E94EB
:1007200065020C944703BC0183E39BE20E942C0901
:10073000862F603138F07727CB01409797FD0196DF
:100740009595879580B9089584EA86BF06B607FE19
:10075000FDCF089584E986BF06B604FCFDCF089559
:1007600083B984E886BF06B607FEFDCF089520E46E
:10077000829FC0011124846886BF06B607FEFDCFA4
:1007800083B10895EF92FF921F93CF93DF9300D030
:1007900000D0CDB7DEB7142F2B833C836A838983C7
:1007A0000E94A40389810E94B0036A81862F0E945F
:1007B000B0032B81E22E3C81F32E120F1E1531F077
:1007C000F70181917F010E94B003F8CF0F900F9045
:1007D0000F900F90DF91CF911F91FF90EF900C94AD
:1007E000AA03EF92FF921F93CF93DF9300D01F9243
:1007F000CDB7DEB7F82E142F2A833B8369830E947E
:10080000A4038F2D0E94B0036981862F0E94B0033C
:100810000E94A40381E08F0D0E94B00311502A8131
:10082000E22E3B81F32E1F3F59F081E0111101C0F0
:1008300080E00E94B703F70181937F011150F3CF4D
:100840000F900F900F90DF91CF911F91FF90EF903D
:100850000C94AA030E94A40380E80E94B0038EEFC8
:100860000E94B0030C94AA03EF92FF921F93CF93C0
:10087000DF9300D0CDB7DEB7182F69837A830E944B
:10088000A40380E80E94B00383EE0E94B0030E949C
:10089000AA030E94A40381E80E94B00322E38BED27
:1008A00091E0215080409040E1F700C000C011501D
:1008B0006981E62E7A81F72E1F3F59F081E01111F0
:1008C00001C080E00E94B703F70181937F011150BE
:1008D000F3CF0F900F90DF91CF911F91FF90EF908A
:1008E0000C94AA03EF92FF921F93CF93DF9300D053
:1008F000CDB7DEB7182F69837A830E94A40380E8FE
:100900000E94B00385EE0E94B0030E94AA030E94D9
:10091000A40381E80E94B00322E38BED91E0215013
:1009200080409040E1F700C000C011506981E62E80
:100930007A81F72E1F3F59F081E0111101C080E04C
:100940000E94B703F70181937F011150F3CF0F90FD
:100950000F90DF91CF911F91FF90EF900C94AA031D
:10096000CF93DF93CDB7DEB766970FB6F894DEBFAF
:100970000FBECDBF9E012F5F3F4F46E16AEA8EEE6C
:100980000E94F103898190E0982F88272A81822B89
:1009900090932D0180932C018B8190E0982F8827D4
:1009A0002C81822B90933F0180933E018D8190E0BA
:1009B000982F88272E81822B9093410180934001AC
:1009C0008F8190E0982F88272885822B90933B0178
:1009D00080933A01898590E0982F88272A85822B79
:1009E00090933501809334018B8590E0982F882770
:1009F0002C85822B90932F0180932E018D8590E082
:100A0000982F88272E85822B909349018093480147
:100A10008F8590E0982F88272889822B9093430117
:100A200080934201898990E0982F88272A89822B18
:100A300090933D0180933C018B8990E0982F88270B
:100A40002C89822B90934B0180934A018D8990E0F1
:100A5000982F88272E89822B90932B0180932A012F
:100A600066960FB6F894DEBF0FBECDBFDF91CF9173
:100A70000895CF93DF9300D01F92CDB7DEB78EE2FB
:100A80008B839E012D5F3F4F41E064EF8EEE0E940D
:100A9000C2038FEF95E30197F1F700C000009E01BC
:100AA0002F5F3F4F42E066EF8EEE0E94F103898197
:100AB00090E0A0E0B0E0BA2FA92F982F88272A81D4
:100AC000822B8093440190934501A0934601B093FB
:100AD00047010F900F900F90DF91CF910895CF9322
:100AE000DF9300D000D0CDB7DEB784EF8C839E01BA
:100AF0002C5F3F4F41E064EF8EEE0E94C20323EA79
:100B000080EE90E0215080409040E1F700C000006E
:100B10009E012F5F3F4F43E066EF8EEE0E94F10390
:100B200029818A8190E0A0E0B0E0BA2FA92F982F08
:100B30008827A22B2B81822B55E0B595A7959795F9
:100B400087955A95D1F78093300190933101A09306
:100B50003201B09333010F900F900F900F90DF91FF
:100B6000CF910895CF92DF92EF92FF920E943905C4
:100B700080912E0190912F012091440130914501E7
:100B80004091460150914701281B390B41095109F9
:100B9000A0913401B09135010E9490096B017C0154
:100BA0006FE0F594E794D794C7946A95D1F7609174
:100BB0004A0170914B01882777FD8095982FEBE0D3
:100BC000660F771F881F991FEA95D1F720912A0198
:100BD00030912B01442737FD4095542F2C0D3D1D9E
:100BE0004E1D5F1D0E9462092C0D3D1D4E1D5F1D97
:100BF00020933601309337014093380150933901E7
:100C0000CA01B901685F7F4F8F4F9F4FF4E0959500
:100C1000879577956795FA95D1F7FF90EF90DF90DC
:100C2000CF9008954F925F926F927F928F929F9292
:100C3000AF92BF92CF92DF92EF92FF920F931F93EA
:100C4000CF93DF9300D000D0CDB7DEB70E946F0501
:100C50008090360190903701A0903801B090390112
:100C600080EA881A8FE0980AA108B108A5019401CA
:100C7000C501B4010E941C092B013C0100912C010B
:100C800010912D01A0914001B09141010E949B095A
:100C90006B017C013DE0F594E794D794C7943A95B5
:100CA000D1F7A0914801B0914901A30192016CE0F4
:100CB00055954795379527956A95D1F70E949B09D9
:100CC000BB2797FDB095AB2FC80ED91EEA1EFB1EA1
:100CD00092E0C90ED11CE11CF11CF2E0F594E794FE
:100CE000D794C794FA95D1F7A0E8DA0EE11CF11C6D
:100CF000A0913A01B0913B01A70196010E94900991
:100D0000DC01CB012FE0B695A795979587952A959D
:100D1000D1F789839A83AB83BC836801EE24D7FC27
:100D2000E094FE2C32E0CC0CDD1CEE1CFF1C3A954E
:100D3000D1F7A0914201B0914301A30192010E9419
:100D40009B092B013C0147E17594679457944794A4
:100D50004A95D1F7A0913E01B0913F01A5019401C0
:100D60000E949B095BE095958795779567955A95C5
:100D7000D1F7460E571E681E791EC40CD51CE61C02
:100D8000F71CCC0CDD1CEE1CFF1C209130013091B7
:100D9000310140913201509133012C193D094E0926
:100DA0005F09AAE6B8E10E94900997FD0DC0660FA1
:100DB000771F881F991F29813A814B815C810E948E
:100DC000400949015A010CC029813A814B815C815B
:100DD0000E94400949015A01880C991CAA1CBB1C9D
:100DE0009927B7FC9A958B2D7A2D692D9B01AC0123
:100DF0000E941C099B01AC01AEEDBBE00E94900972
:100E00006C01FF24D7FCF094EF2CA3E4B3EEA50112
:100E100094010E949E09BB2797FDB095AB2FC80E89
:100E2000D91EEA1EFB1E9FECC90E9EE0D91EE11CD6
:100E3000F11C04E0F594E794D794C7940A95D1F790
:100E4000C80CD91CEA1CFB1CC701B6010F900F90FF
:100E50000F900F90DF91CF911F910F91FF90EF9026
:100E6000DF90CF90BF90AF909F908F907F906F90CA
:100E70005F904F900895CF92DF92EF92FF9260E0E3
:100E800080E00E94400380E690E00E947202609140
:100E900050017091510180915201909153012AE0CB
:100EA000C22ED12CE12CF12CA70196010E946209DF
:100EB000C9010E949E0284E690E00E947202609145
:100EC0005001709151018091520190915301A701FD
:100ED00096010E946209CB010E949E0286E690E084
:100EE0000E94720288E690E00E94720260E081E057
:100EF0000E9440038AE690E00E94720260915701CE
:100F0000709158018091590190915A0134E6C32E95
:100F1000D12CE12CF12CA70196010E946209C90194
:100F20000E949E0284E690E00E9472026091570146
:100F3000709158018091590190915A01A701960131
:100F40000E9462096A3071058105910524F48EE6DC
:100F500090E00E9472026091570170915801809157
:100F6000590190915A0124E630E040E050E00E949F
:100F70006209CB010E949E0280E790E00E9472020B
:100F80006AE080E00E94400384E790E00E947202E1
:100F900080914C0190914D010E949E0288E790E063
:100FA000FF90EF90DF90CF900C947202CF92DF927F
:100FB000EF92FF9280E00E94640043E064E080E0F2
:100FC0000E948E0060E081E00E94E5008AE790E0E8
:100FD0000E94600140E061E080E00E948E0067E0D6
:100FE00082E00E94E5008EE990E00E94600164E1E9
:100FF00082E00E94E5006091500170915101809162
:101000005201909153014AE0C42ED12CE12CF12CD5
:10101000A70196010E9462096AE070E0C9010E947E
:101020007B0184E690E00E94600160915001709124
:1010300051018091520190915301A70196010E94A4
:101040006209DC01CB016AE070E00E947B0180EB69
:101050000E944F0183E40E944F018BEA90E00E94BE
:10106000600140E062E080E00E948E0067E083E083
:101070000E94E5008EEA90E00E94600164E183E056
:101080000E94E500609157017091580180915901CB
:1010900090915A0154E6C52ED12CE12CF12CA701D8
:1010A00096010E9462096AE070E0C9010E947B011A
:1010B00084E690E00E9460016091570170915801B0
:1010C0008091590190915A01A70196010E946209ED
:1010D0006A3071058105910524F48EE690E00E9446
:1010E0006001609157017091580180915901909170
:1010F0005A0124E630E040E050E00E946209DC0141
:10110000CB016AE070E00E947B0180E790E00E94E2
:10111000600140E064E080E00E948E0067E084E0CF
:101120000E94E50089EB90E00E94600164E184E0A8
:101130000E94E5006AE070E080914C0190914D01C1
:101140000E947B0185E20E944F0143E064E080E061
:101150000E948E0060E085E00E94E50086EC90E051
:101160000E9460018AEE90E00E946001FF90EF9083
:10117000DF90CF900C9403018FEF91EA0197F1F784
:1011800000C000000E944A030E94470384E690E0EA
:101190000E949303789485E090E00E94380160E714
:1011A00070E080E80E94FE020E94B0040E942A04BF
:1011B0000E94B205609350017093510180935201D7
:1011C000909353010E941206609357017093580147
:1011D0008093590190935A010E943B070E94D607C1
:1011E00064E571E083E00E94720420915501269528
:1011F00026958091540130E0382B30935C01209388
:101200005B01ADE7B0E00E948109AA27BB270697E2
:10121000A109B10980934C0190934D01A0934E0117
:10122000B0934F019FEF2FED80E19150204080401F
:10123000E1F700C00000BCCFDB018F939F930E94B9
:101240009009BF91AF91A29F800D911DA39F900D1A
:10125000B29F900D11240895AA1BBB1B51E107C03A
:10126000AA1FBB1FA617B70710F0A61BB70B881F36
:10127000991F5A95A9F780959095BC01CD010895C5
:10128000A1E21A2EAA1BBB1BFD010DC0AA1FBB1F8A
:10129000EE1FFF1FA217B307E407F50720F0A21BFC
:1012A000B30BE40BF50B661F771F881F991F1A9469
:1012B00069F760957095809590959B01AC01BD0193
:1012C000CF010895052E97FB1EF400940E94790922
:1012D00057FD07D00E94400907FC03D04EF40C9440
:1012E000790950954095309521953F4F4F4F5F4F6D
:1012F000089590958095709561957F4F8F4F9F4F82
:101300000895A29FB001B39FC001A39F700D811DDE
:101310001124911DB29F700D811D1124911D0895FE
:101320000E948109A59F900DB49F900DA49F800DF0
:10133000911D11240895B7FF0C9490090E94900903
:10134000821B930B08954532510520F4423010F072
:101350000C94AE09FB011082CB010895BB274A30E3
:1013600031F4992322F4BDE2909581959F4F0C941E
:10137000EB09BB272A3051F4992342F4BDE2909542
:101380008095709561957F4F8F4F9F4F0C94C90941
:10139000BB27FA01A62F6217710581059105330B52
:1013A00030FB66F0AA27660F771F881F991FAA1FB8
:1013B000A21710F0A21B63953850A9F7A05DAA33BD
:1013C00008F0A95DA19336F7B111B1931082CA015B
:1013D0000C940C0ABB27FB015527AA27880F991FDD
:1013E000AA1FA41710F0A41B83955051B9F7A05D54
:1013F000AA3308F0A95DA193009779F7B111B193D1
:101400001192CB010C940C0AE199FECF9FBB8EBBCD
:10141000E09A99278DB30895DC01FC01672F719143
:101420007723E1F7329704C07C916D9370836291CA
:0C143000AE17BF07C8F30895F894FFCF73
:10143C00543A20002E0080004300433A2000300034
:10144C0068506100573A20002500202020202020E1
:10145C00202020202020204D204520542045204FA6
:10146C002020202020202020202020202000546517
:10147C006D70657261747572613A00200900436980
:10148C00736E69656E69653A0057696C676F746E47
:10149C006F73633A20002020202020202020202061
:1014AC002020202020202020202020202020202030
:0E14BC00202020202020202020000D0A0000EB
:00000001FF
