:100000000C943C000C9459000C9459000C94590029
:100010000C9459000C9459000C9459000C945900FC
:100020000C9459000C9459000C9459000C945900EC
:100030000C9459000C94F0010C94B4010C944401FC
:100040000C9459000C9459000C9459000C945900CC
:100050000C9459001B5B6D001B5B3F323568001B25
:100060005B3F32356C001B5B3B48001B5B324A0038
:100070000E1111110E20202011241FBECFE5D8E053
:10008000DEBFCDBF10E0A0E6B0E0EAE8F3E102C0D9
:1000900005900D92AE3EB107D9F721E0AEEEB0E08B
:1000A00001C01D92AD35B207E1F70E9472080C94B1
:1000B000C3090C940000882319F088E590E002C081
:1000C0008FE590E00C946C01CF93C82F84E590E00D
:1000D0000E946C018C2F0E945B008BE690E00E94D6
:1000E0006C0186E690E0CF910C946C010F931F9306
:1000F000CF93DF931F92CDB7DEB7082F10E006C075
:10010000802F69830E944F011F5F69811613F8CF0A
:100110000F90DF91CF911F910F9108951F93CF936F
:10012000DF9300D0CDB7DEB7182F8BE14A83698308
:100130000E944F018BE50E944F01812F805D0E943C
:100140004F018BE30E944F0183E30E944F016981BD
:10015000862F805D0E944F018BE30E944F0184E354
:100160000E944F014A81842F805D0E944F018DE6DD
:100170000F900F90DF91CF911F910C944F01CF936F
:10018000C82F8BE10E944F018BE50E944F0183E352
:100190000E944F018C2F805D0E944F018DE6CF9110
:1001A0000C944F01CF93C82F8BE10E944F018BE538
:1001B0000E944F0184E30E944F018C2F805D0E94BA
:1001C0004F018DE6CF910C944F01CF93DF93D82F41
:1001D000C62F8BE10E944F018BE50E944F016AE020
:1001E00070E08D2F90E00E947A018BE30E944F0116
:1001F0006AE070E08C2F90E00E947A0188E4DF9141
:10020000CF910C944F0143E064E080E00E948E00A7
:1002100060E082E00E94E50087EE90E00E946001CD
:1002200060E083E00E94E50087EE90E00E946001BC
:1002300060E084E00E94E50087EE90E00E946001AB
:1002400062E282E00E94E50087EE90E00E94600199
:1002500062E283E00E94E50087EE90E00E94600188
:1002600062E284E00E94E50087EE90E00C94600179
:1002700090BD89B988E18AB986E880BD8A9A929A48
:100280008AB1886D8AB908951F920F920FB60F92A6
:10029000112492980F900FBE0F901F901895909177
:1002A000EE009F5F9F702091EF009217E1F3E92F1E
:1002B000F0E0E051FF4F80839093EE00559A08954F
:1002C000CF93DF93EC0102C00E944F01899181110D
:1002D000FBCFDF91CF910895CF93DF93EC0102C064
:1002E0000E944F01FE01219684918111F9CFDF9187
:1002F000CF910895CF93DF93CDB7DEB761970FB657
:10030000F894DEBF0FBECDBFAB01BE016F5F7F4F64
:100310000E945609CE0101960E94600161960FB6B7
:10032000F894DEBF0FBECDBFDF91CF910895CF937C
:10033000DF93CDB7DEB7A1970FB6F894DEBF0FBE3F
:10034000CDBFAB01BE016F5F7F4F0E945609CE014A
:1003500001960E946001A1960FB6F894DEBF0FBE11
:10036000CDBFDF91CF9108951F920F920FB60F92DC
:1003700011248F939F93EF93FF939091EE008091C0
:10038000EF00981771F08091EF008F5F8F7080936E
:10039000EF00E091EF00F0E0E051FF4F80818CB979
:1003A00001C05598FF91EF919F918F910F900FBED3
:1003B0000F901F901895909100018091010198175E
:1003C00069F0809101018F5F8F7180930101E0914D
:1003D0000101F0E0EE5FFE4F8081089580E0089516
:1003E0001F920F920FB60F9211248F939F93EF934A
:1003F000FF938CB1E0910001EF5FEF7190910101EB
:10040000E91731F0E0930001F0E0EE5FFE4F8083EA
:10041000FF91EF919F918F910F900FBE0F901F90C2
:100420001895D69AD59AD49AD39A089589B383FB0E
:10043000882780F9CC998260CD998460CE998860B4
:10044000089580FF02C0DB9A01C0DB9881FF02C0E3
:10045000DC9A01C0DC9882FF02C0DD9A01C0DD9801
:1004600083FF02C0DE9A0895DE980895CF93D69850
:10047000D598D498D398D99ADA9A0E941602C82FA0
:10048000C295C07FDA98DA9A0E941602DA988C2B0D
:10049000CF910895D8980C943602CF93C82F0E941C
:1004A0001102D998DA9A8C2F82958F700E942102BE
:1004B000DA98DA9A8C2F0E942102DA980E944A0276
:1004C00087FDFCCFCF910895D8980C944D02D89A0F
:1004D0000C944D02982F9058983008F487700C9423
:1004E0006702CF93DF93EC0102C00E946A028991F8
:1004F0008111FBCFDF91CF910895CF93DF93EC0172
:1005000002C00E946A02FE01219684918111F9CFF6
:10051000DF91CF910895CF93DF93EC0121960E9454
:10052000AB09982F91509E3F20F40E946A02CE01A1
:10053000F4CFDF91CF910895CF93DF93CDB7DEB79E
:1005400061970FB6F894DEBF0FBECDBF4AE050E012
:10055000BE016F5F7F4F0E9456090E947102619633
:100560000FB6F894DEBF0FBECDBFDF91CF910895D7
:10057000CF93DF93CDB7DEB761970FB6F894DEBFA8
:100580000FBECDBF20E130E0AE014F5F5F4F0E9454
:1005900077090E94710261960FB6F894DEBF0FBE14
:1005A000CDBFDF91CF9108950F931F93CF93DF932A
:1005B000EB018770880F880F880F805C0E946402AF
:1005C0008E01085F1F4F89910E946702C017D107F3
:1005D000D1F7DF91CF911F910F9108950F931F9342
:1005E000CF93DF93EB018770880F880F880F805CB3
:1005F0000E9464028E01085F1F4FFE0121968491C4
:100600000E946702C017D107C1F7DF91CF911F91F8
:100610000F910895EF92FF920F931F93CF93DF9363
:10062000EB018770880F880F880F805C0E9464023E
:100630008E01085F1F4F7E018FEFE81AF80ACE0186
:100640000E94AB090E946702E701E016F10699F7E4
:10065000DF91CF911F910F91FF90EF90089581301E
:1006600009F480E46058860F0C94640281E00C94D5
:100670006402D79ADF9A0E941102D09AD29AD19A34
:10068000D89ADA9AD99A8FEF91EA0197F1F700C0D8
:100690000000DA98D898D998DA9A83E00E9421026B
:1006A000DA9887E49CE20197F1F700C0DA9A83E0D8
:1006B0000E942102DA9884E191E00197F1F70000AD
:1006C000DA9A83E00E942102DA9884E191E00197AE
:1006D000F1F70000DA9A82E00E942102DA9884E1C0
:1006E00091E00197F1F7000088E20E94640288E03F
:1006F0000E9464028CE00E94640286E00E94640210
:100700000C943603BC0183E39BE20E94E508862F2C
:10071000603148F07727CB01409797FF02C0CB01AB
:100720000F979595879580B9089584EA86BF06B698
:1007300007FEFDCF089584E986BF06B604FCFDCF11
:10074000089583B984E886BF06B607FEFDCF0895F5
:1007500020E4829FC001112484689F6F86BF06B683
:1007600007FEFDCF83B10895EF92FF921F93CF93C1
:10077000DF9300D000D0CDB7DEB7142F2B833C839E
:100780006A8389830E94950389810E94A1036A81FB
:10079000862F0E94A1032B81E22E3C81F32E120FA3
:1007A00005C0F70181917F010E94A1031E11F9CFBD
:1007B0000F900F900F900F90DF91CF911F91FF90AE
:1007C000EF900C949B03EF92FF920F931F93CF93A4
:1007D000DF931F92CDB7DEB7082F142F79016983FD
:1007E0000E949503802F0E94A1036981862F0E9499
:1007F000A1030E949503802F8F5F0E94A10309C06F
:1008000081E0111101C080E00E94A803F7018193EB
:100810007F011150A8F70F90DF91CF911F910F9199
:10082000FF90EF900C949B030E94950380E80E9438
:10083000A1038EEF0E94A1030C949B031F93CF93FF
:10084000DF93182FEB010E94950380E80E94A1031B
:1008500083EE0E94A1030E949B030E94950381E8FE
:100860000E94A10322E38BED91E021508040904053
:10087000E1F700C000C007C081E0111101C080E0B5
:100880000E94A80389931150B8F7DF91CF911F916F
:100890000C949B031F93CF93DF93182FEB010E94BF
:1008A000950380E80E94A10385EE0E94A1030E94A7
:1008B0009B030E94950381E80E94A10322E38BED34
:1008C00091E0215080409040E1F700C000C007C097
:1008D00081E0111101C080E00E94A80389931150AA
:1008E000B8F7DF91CF911F910C949B03CF93DF93C7
:1008F000CDB7DEB766970FB6F894DEBF0FBECDBF9B
:100900009E012F5F3F4F46E16AEA8EEE0E94E303AD
:10091000998180E02A81822B90932D0180932C0174
:100920009B8180E02C81822B90933F0180933E013C
:100930009D8180E02E81822B909341018093400124
:100940009F8180E02885822B90933B0180933A0120
:10095000998580E02A85822B90933501809334011C
:100960009B8580E02C85822B90932F0180932E0114
:100970009D8580E02E85822B9093490180934801CC
:100980009F8580E02889822B9093430180934201C8
:10099000998980E02A89822B90933D0180933C01C4
:1009A0009B8980E02C89822B90934B0180934A0194
:1009B0009D8980E02E89822B90932B0180932A01C0
:1009C00066960FB6F894DEBF0FBECDBFDF91CF9114
:1009D0000895CF93DF9300D01F92CDB7DEB78EE29C
:1009E0008B839E012D5F3F4F41E064EF8EEE0E94AE
:1009F000B4038FEF95E30197F1F700C000009E016B
:100A00002F5F3F4F42E066EF8EEE0E94E303898145
:100A100090E0A0E0B0E0BA2FA92F982F88272A8174
:100A2000822B8093440190934501A0934601B0939B
:100A300047010F900F900F90DF91CF910895CF93C2
:100A4000DF9300D000D0CDB7DEB784EF8C839E015A
:100A50002C5F3F4F41E064EF8EEE0E94B40323EA27
:100A600080EE90E0215080409040E1F700C000000F
:100A70009E012F5F3F4F43E066EF8EEE0E94E3033F
:100A800029818A8190E0A0E0B0E0BA2FA92F982FA9
:100A90008827A22B2B81822B45E0B595A7959795AA
:100AA00087954A95D1F78093300190933101A093B7
:100AB0003201B09333010F900F900F900F90DF91A0
:100AC000CF910895CF92DF92EF92FF920F931F93F1
:100AD0000E94E90480912E0190912F012091440100
:100AE000309145014091460150914701281B390B37
:100AF00041095109A0913401B09135010E94430987
:100B00006B017C015FE0F594E794D794C7945A9504
:100B1000D1F760914A0170914B01882777FD80954C
:100B2000982FEBE0660F771F881F991FEA95D1F782
:100B300020912A0130912B01442737FD4095542FF5
:100B40002C0D3D1D4E1D5F1D0E941B092C0D3D1DD2
:100B50004E1D5F1D209336013093370140933801BD
:100B60005093390189019A01085F1F4F2F4F3F4F62
:100B7000F4E03595279517950795FA95D1F7B801C3
:100B8000C9011F910F91FF90EF90DF90CF900895D2
:100B90004F925F926F927F928F929F92AF92BF928D
:100BA000CF92DF92EF92FF920F931F93CF93DF9339
:100BB00000D000D0CDB7DEB70E941F05809036016F
:100BC00090903701A0903801B090390180EA881ADE
:100BD0008FE0980AA108B108A5019401C501B401EC
:100BE0000E94D5082B013C0100912C0110912D0190
:100BF000A0914001B09141010E944E096B017C011E
:100C00003DE0F594E794D794C7943A95D1F7A09135
:100C10004801B0914901A30192016CE055954795B7
:100C2000379527956A95D1F70E944E09BB2797FD06
:100C3000B095AB2FC80ED91EEA1EFB1E92E0C90E5E
:100C4000D11CE11CF11CF2E0F594E794D794C79411
:100C5000FA95D1F7A0E8DA0EE11CF11CA0913A0157
:100C6000B0913B01A70196010E944309DC01CB0131
:100C70002FE0B695A795979587952A95D1F7898303
:100C80009A83AB83BC836801EE24D7FCE094FE2CEE
:100C900032E0CC0CDD1CEE1CFF1C3A95D1F7A09184
:100CA0004201B0914301A30192010E944E092B0120
:100CB0003C0147E175946794579447944A95D1F75E
:100CC000A0913E01B0913F01A50194010E944E09FF
:100CD0005BE095958795779567955A95D1F7460E80
:100CE000571E681E791EC40CD51CE61CF71CCC0CC4
:100CF000DD1CEE1CFF1C2091300130913101409130
:100D00003201509133012C193D094E095F09AAE6C1
:100D1000B8E10E94430997FD0DC0660F771F881F39
:100D2000991F29813A814B815C810E94F908490110
:100D30005A010CC029813A814B815C810E94F908DB
:100D400049015A01880C991CAA1CBB1C9927B7FCA5
:100D50009A958B2D7A2D692D9B01AC010E94D508A7
:100D60009B01AC01AEEDBBE00E9443096C01FF2486
:100D7000D7FCF094EF2CA3E4B3EEA50194010E94FC
:100D80005109BB2797FDB095AB2FC80ED91EEA1E9F
:100D9000FB1E9FECC90E9EE0D91EE11CF11C04E075
:100DA000F594E794D794C7940A95D1F7C80CD91C49
:100DB000EA1CFB1CB601C7010F900F900F900F901B
:100DC000DF91CF911F910F91FF90EF90DF90CF9027
:100DD000BF90AF909F908F907F906F905F904F905B
:100DE0000895CF92DF92EF92FF9260E080E00E9440
:100DF0002F0380E690E00E94710260915001709193
:100E0000510180915201909153012AE0C22ED12CC0
:100E1000E12CF12CA70196010E941B09C9010E9437
:100E20009C0284E690E00E947102609150017091F2
:100E300051018091520190915301A70196010E94A6
:100E40001B09CB010E949C0286E690E00E94710281
:100E500088E690E00E94710260E081E00E942F032A
:100E60008AE690E00E9471026091570170915801EA
:100E70008091590190915A0134E6C32ED12CE12C76
:100E8000F12CA70196010E941B09C9010E949C0236
:100E900084E690E00E9471026091570170915801C0
:100EA0008091590190915A01A70196010E941B0956
:100EB0006A3071058105910524F48EE690E00E9468
:100EC0007102609157017091580180915901909180
:100ED0005A0124E630E040E050E00E941B09CB01BB
:100EE0000E949C0280E790E00E9471026AE080E02C
:100EF0000E942F0384E790E00E94710280914C01D0
:100F000090914D010E949C0288E790E0FF90EF9045
:100F1000DF90CF900C947102CF92DF92EF92FF920C
:100F200080E00E94640043E064E080E00E948E0064
:100F300060E081E00E94E5008AE790E00E946001A5
:100F400040E061E080E00E948E0067E082E00E9465
:100F5000E5008EE990E00E94600164E182E00E9479
:100F6000E500609150017091510180915201909182
:100F700053014AE0C42ED12CE12CF12CA70196019B
:100F80000E941B096AE070E0C9010E947A0184E6B0
:100F900090E00E9460016091500170915101809138
:100FA000520190915301A70196010E941B09DC0197
:100FB000CB016AE070E00E947A0180EB0E944F0151
:100FC00083E40E944F018BEA90E00E94600140E0C0
:100FD00062E080E00E948E0067E083E00E94E5000E
:100FE0008EEA90E00E94600164E183E00E94E500E7
:100FF00060915701709158018091590190915A0167
:1010000054E6C52ED12CE12CF12CA70196010E94AB
:101010001B096AE070E0C9010E947A0184E690E051
:101020000E946001609157017091580180915901AF
:1010300090915A01A70196010E941B096A3071051F
:101040008105910524F48EE690E00E946001609194
:101050005701709158018091590190915A0124E6ED
:1010600030E040E050E00E941B09DC01CB016AE067
:1010700070E00E947A0180E790E00E94600140E009
:1010800064E080E00E948E0067E084E00E94E5005A
:1010900089EB90E00E94600164E184E00E94E50039
:1010A0006AE070E080914C0190914D010E947A01BC
:1010B00085E20E944F0143E064E080E00E948E00E0
:1010C00060E085E00E94E50086EC90E00E9460010F
:1010D0008AEE90E00E946001FF90EF90DF90CF9049
:1010E0000C9403018FEF91EA0197F1F700C0000023
:1010F0000E9439030E94360384E690E00E94820336
:10110000789485E090E00E94380160E770E080E824
:101110000E94EE020E9476040E9414040E9462055E
:101120006093500170935101809352019093530149
:101130000E94C8056093570170935801809359012C
:1011400090935A010E94F1060E948C0764E571E0B9
:1011500083E00E944A04809155018695869590917E
:101160005401D92F20E0C22F9E01282B30935C011F
:1011700020935B01ADE7B0E00E943709AA27BB27A7
:101180000697A109B10980934C0190934D01A0935A
:101190004E01B0934F018FEF9FED20E181509040C1
:1011A0002040E1F700C00000B9CFDB018F939F938F
:1011B0000E944309BF91AF91A29F800D911DA39FF3
:1011C000900DB29F900D11240895AA1BBB1B51E1F5
:1011D00007C0AA1FBB1FA617B70710F0A61BB70BA7
:1011E000881F991F5A95A9F780959095BC01CD014C
:1011F0000895A1E21A2EAA1BBB1BFD010DC0AA1F58
:10120000BB1FEE1FFF1FA217B307E407F50720F06F
:10121000A21BB30BE40BF50B661F771F881F991FEA
:101220001A9469F760957095809590959B01AC0133
:10123000BD01CF010895052E97FB16F4009407D049
:1012400057FD0DD00E94F90807FC09D07EF4909557
:101250008095709561957F4F8F4F9F4F0895509562
:101260004095309521953F4F4F4F5F4F0895A29F76
:10127000B001B39FC001A39F01D0B29F700D811D2B
:101280001124911D08950E943709A59F900DB49FC8
:10129000900DA49F800D911D11240895B7FF0C940B
:1012A00043090E944309821B930B0895FB019F0190
:1012B000E8944230C4F04532B4F44A3029F497FB44
:1012C0001EF4909581959F4F642F77270E94E50823
:1012D000805D8A330CF0895D8193CB010097A1F783
:1012E00016F45DE251931082C9010C94B309FA011E
:1012F000CF93FF93EF93223044F1253234F5C22F80
:10130000E894CA3049F497FB3EF490958095709527
:1013100061957F4F8F4F9F4F2C2F332744275527A1
:10132000FF93EF930E94F908EF91FF91605D6A339C
:101330000CF0695D6193B901CA0160507040804052
:10134000904051F716F4CDE2C19310828F919F9196
:10135000CF910C94B309E199FECF9FBB8EBBE09A6D
:1013600099278DB30895DC01FC01672F71917723D4
:10137000E1F7329704C07C916D9370836291AE1750
:0A138000BF07C8F30895F894FFCFEB
:10138A00543A20002E0080004300433A20003000E7
:10139A0068506100573A2000250020202020202094
:1013AA00202020202020204D204520542045204F59
:1013BA0020202020202020202020202020005465CA
:1013CA006D70657261747572613A00200900436933
:1013DA00736E69656E69653A0057696C676F746EFA
:1013EA006F73633A20002020202020202020202014
:1013FA0020202020202020202020202020202020E3
:0E140A00202020202020202020000D0A00009D
:00000001FF
