:100000000C9438000C9455000C9455000C94550039
:100010000C9455000C9455000C9455000C9455000C
:100020000C9455000C9455000C9455000C945500FC
:100030000C9455000C94ED010C94B1010C9440010A
:100040000C9455000C9455000C9455000C945500DC
:100050000C9455001B5B6D001B5B3F323568001B29
:100060005B3F32356C001B5B3B48001B5B324A0038
:1000700011241FBECFE5D8E0DEBFCDBF10E0A0E663
:10008000B0E0E6E2F4E102C005900D92AC3EB107AB
:10009000D9F721E0ACEEB0E001C01D92AD35B2075A
:1000A000E1F70E94B2080C94110A0C940000882316
:1000B00019F088E590E002C08FE590E00C946801AB
:1000C000CF93C82F84E590E00E9468018C2F0E9496
:1000D00057008BE690E00E94680186E690E0CF91A1
:1000E0000C9468010F931F93CF93DF931F92CDB7AA
:1000F000DEB7082F10E0161739F0802F69830E94B1
:100100004B011F5F6981F7CF0F90DF91CF911F9156
:100110000F9108951F93CF93DF9300D0CDB7DEB733
:10012000182F8BE14A8369830E944B018BE50E9463
:100130004B0180E3810F0E944B018BE30E944B0136
:1001400083E30E944B01698180E3860F0E944B018B
:100150008BE30E944B0184E30E944B014A8180E3C0
:10016000840F0E944B018DE60F900F90DF91CF918D
:100170001F910C944B01CF93C82F8BE10E944B0130
:100180008BE50E944B0183E30E944B0180E38C0FBF
:100190000E944B018DE6CF910C944B01CF93C82F59
:1001A0008BE10E944B018BE50E944B0184E30E948E
:1001B0004B0180E38C0F0E944B018DE6CF910C9494
:1001C0004B01CF93DF93D82FC62F8BE10E944B01B9
:1001D0008BE50E944B016AE070E08D2F90E00E9459
:1001E00077018BE30E944B016AE070E08C2F90E076
:1001F0000E94770188E4DF91CF910C944B0143E09A
:1002000064E080E00E948A0060E082E00E94E100F9
:1002100085EE90E00E945C0160E083E00E94E100D6
:1002200085EE90E00E945C0160E084E00E94E100C5
:1002300085EE90E00E945C0162E282E00E94E100B3
:1002400085EE90E00E945C0162E283E00E94E100A2
:1002500085EE90E00E945C0162E284E00E94E10091
:1002600085EE90E00C945C0190BD89B988E18AB973
:1002700086E880BD8A9A929A8AB1886D8AB9089573
:100280001F920F920FB60F92112492980F900FBEEB
:100290000F901F9018959091EC009F5F9F70209198
:1002A000ED009217E1F3E92FF0E0E251FF4F808378
:1002B0009093EC00559A0895CF93DF93EC018991C8
:1002C000882319F00E944B01FACFDF91CF91089556
:1002D000CF93DF93FC018491EF012196882321F0D5
:1002E0000E944B01FE01F7CFDF91CF910895CF938C
:1002F000DF93CDB7DEB761970FB6F894DEBF0FBEC0
:10030000CDBFAB01BE016F5F7F4F0E949809CE0148
:1003100001960E945C0161960FB6F894DEBF0FBE95
:10032000CDBFDF91CF910895CF93DF93CDB7DEB7E7
:10033000A1970FB6F894DEBF0FBECDBFAB01BE01D3
:100340006F5F7F4F0E949809CE0101960E945C0169
:10035000A1960FB6F894DEBF0FBECDBFDF91CF914F
:1003600008951F920F920FB60F9211248F939F93AF
:10037000EF93FF939091EC008091ED00981771F04E
:100380008091ED008F5F8F708093ED00E091ED0024
:10039000F0E0E251FF4F80818CB901C05598FF9188
:1003A000EF919F918F910F900FBE0F901F90189516
:1003B0009091FE008091FF00981769F08091FF00F6
:1003C0008F5F8F718093FF00E091FF00F0E0E050BD
:1003D000FF4F8081089580E008951F920F920FB61D
:1003E0000F9211248F939F93EF93FF938CB1E09121
:1003F000FE00EF5FEF719091FF00E91731F0E0939D
:10040000FE00F0E0E050FF4F8083FF91EF919F915D
:100410008F910F900FBE0F901F901895D69AD59A76
:10042000D49AD39A089589B383FB882780F9CC990D
:100430008260CD998460CE998860089580FF02C063
:10044000DB9A01C0DB9881FF02C0DC9A01C0DC9816
:1004500082FF02C0DD9A01C0DD9883FF02C0DE9AF0
:100460000895DE980895CF93D698D598D498D398C8
:10047000D99ADA9A0E941302C82FC295C07FDA98DF
:10048000DA9A0E941302DA988C2BCF910895D898AB
:100490000C943302CF93C82F0E940E02D998DA9A97
:1004A0008C2F82958F700E941E02DA98DA9A8C2F18
:1004B0000E941E02DA980E94470287FDFCCFCF916E
:1004C0000895D8980C944A02D89A0C944A0290E85D
:1004D000980F983008F487700C946402CF93DF93E0
:1004E000EC018991882319F00E946702FACFDF910D
:1004F000CF910895CF93DF93FC018491EF01219672
:10050000882321F00E946702FE01F7CFDF91CF918F
:100510000895CF93DF93EC0121960E94F9099FEF94
:10052000980F9E3F20F40E946702CE01F4CFDF9126
:10053000CF910895CF93DF93CDB7DEB761970FB614
:10054000F894DEBF0FBECDBF4AE0BE016F5F7F4FA4
:100550000E94A3090E946E0261960FB6F894DEBF56
:100560000FBECDBFDF91CF910895CF93DF93CDB76D
:10057000DEB761970FB6F894DEBF0FBECDBF20E1A6
:10058000AE014F5F5F4F0E94AE090E946E026196FE
:100590000FB6F894DEBF0FBECDBFDF91CF910895A7
:1005A000EF92FF920F931F93CF93DF9300D0CDB7BD
:1005B000DEB78770880F880F880F805C69837A8325
:1005C0000E9461026981E62E7A81F72E8701085F19
:1005D0001F4FF70181917F010E946402E016F1062E
:1005E000C1F70F900F90DF91CF911F910F91FF9066
:1005F000EF9008950F931F93CF93DF93EB018770D4
:10060000880F880F880F805C0E9461028E01085F4E
:100610001F4FFE0184910E9464022196C017D107EA
:10062000C1F7DF91CF911F910F910895EF92FF9243
:100630000F931F93CF93DF93EB018770880F880F81
:10064000880F805C0E9461027E0188E0E80EF11C48
:100650008E010F5F1F4FCE010E94F9090E946402B4
:100660000E151F0511F0E801F3CFDF91CF911F9117
:100670000F91FF90EF900895813009F480E4605865
:10068000860F0C94610281E00C9461020E940E02BC
:10069000D09AD29AD19AD89ADA9AD99A8FEF91EAC7
:1006A0000197F1F700C00000DA98D898D998DA9A43
:1006B00083E00E941E02DA9887E49CE20197F1F73A
:1006C00000C0DA9A83E00E941E02DA9884E191E089
:1006D0000197F1F70000DA9A83E00E941E02DA988F
:1006E00084E191E00197F1F70000DA9A82E00E943C
:1006F0001E02DA9884E191E00197F1F7000088E2A8
:100700000E94610288E00E9461028CE00E94610206
:1007100086E00E9461020C944303BC0183E39BE2E8
:100720000E942109862F603138F07727CB0140974E
:1007300097FD01969595879580B9089584EA86BFBF
:1007400006B607FEFDCF089584E986BF06B604FC11
:10075000FDCF089583B984E886BF06B607FEFDCFB6
:10076000089520E4829FC0011124846886BF06B6E4
:1007700007FEFDCF83B10895EF92FF921F93CF93B1
:10078000DF9300D000D0CDB7DEB7142F2B833C838E
:100790006A8389830E949E0389810E94AA036A81D9
:1007A000862F0E94AA032B81E22E3C81F32E120F8A
:1007B0001E1531F0F70181917F010E94AA03F8CF45
:1007C0000F900F900F900F90DF91CF911F91FF909E
:1007D000EF900C94A403EF92FF921F93CF93DF93BB
:1007E00000D01F92CDB7DEB7F82E142F2A833B839B
:1007F00069830E949E038F2D0E94AA036981862F20
:100800000E94AA030E949E0381E08F0D0E94AA030A
:1008100011502A81E22E3B81F32E1F3F59F081E0D7
:10082000111101C080E00E94B103F70181937F01A3
:100830001150F3CF0F900F900F90DF91CF911F9138
:10084000FF90EF900C94A4030E949E0380E80E9406
:10085000AA038EEF0E94AA030C94A403EF92FF92C6
:100860001F93CF93DF9300D0CDB7DEB7182F6983E6
:100870007A830E949E0380E80E94AA0383EE0E946E
:10088000AA030E94A4030E949E0381E80E94AA0377
:1008900022E38BED91E0215080409040E1F700C0D1
:1008A00000C011506981E62E7A81F72E1F3F59F062
:1008B00081E0111101C080E00E94B103F701819332
:1008C0007F011150F3CF0F900F90DF91CF911F91C7
:1008D000FF90EF900C94A403EF92FF921F93CF939D
:1008E000DF9300D0CDB7DEB7182F69837A830E94DB
:1008F0009E0380E80E94AA0385EE0E94AA030E943C
:10090000A4030E949E0381E80E94AA0322E38BEDC8
:1009100091E0215080409040E1F700C000C01150AC
:100920006981E62E7A81F72E1F3F59F081E011117F
:1009300001C080E00E94B103F70181937F01115053
:10094000F3CF0F900F90DF91CF911F91FF90EF9019
:100950000C94A403CF93DF93CDB7DEB766970FB6A1
:10096000F894DEBF0FBECDBF9E012F5F3F4F46E123
:100970006AEA8EEE0E94EB03898190E0982F882727
:100980002A81822B90932B0180932A018B8190E006
:10099000982F88272C81822B90933D0180933C01D6
:1009A0008D8190E0982F88272E81822B90933F0194
:1009B00080933E018F8190E0982F88272885822B95
:1009C0009093390180933801898590E0982F88278A
:1009D0002A85822B90933301809332018B8590E09E
:1009E000982F88272C85822B90932D0180932C01A2
:1009F0008D8590E0982F88272E85822B9093470134
:100A0000809346018F8590E0982F88272889822B34
:100A10009093410180934001898990E0982F882725
:100A20002A89822B90933B0180933A018B8990E035
:100A3000982F88272C89822B909349018093480115
:100A40008D8990E0982F88272E89822B90932901F9
:100A50008093280166960FB6F894DEBF0FBECDBF17
:100A6000DF91CF910895CF93DF9300D01F92CDB740
:100A7000DEB78EE28B839E012D5F3F4F41E064EF36
:100A80008EEE0E94BC038FEF95E30197F1F700C053
:100A900000009E012F5F3F4F42E066EF8EEE0E9406
:100AA000EB03898190E0A0E0B0E0BA2FA92F982F46
:100AB00088272A81822B8093420190934301A0933F
:100AC0004401B09345010F900F900F90DF91CF91AB
:100AD0000895CF93DF9300D000D0CDB7DEB784EF79
:100AE0008C839E012C5F3F4F41E064EF8EEE0E94AD
:100AF000BC0323EA80EE90E0215080409040E1F773
:100B000000C000009E012F5F3F4F43E066EF8EEE76
:100B10000E94EB0329818A8190E0A0E0B0E0BA2F27
:100B2000A92F982F8827A22B2B81822B55E0B595D2
:100B3000A795979587955A95D1F780932E01909315
:100B40002F01A0933001B09331010F900F900F90BF
:100B50000F90DF91CF910895CF92DF92EF92FF92A5
:100B60000E94330580912C0190912D01209142012A
:100B7000309143014091440150914501281B390BAC
:100B800041095109A0913201B09133010E948509B8
:100B90006B017C016FE0F594E794D794C7946A9554
:100BA000D1F76091480170914901882777FD8095C0
:100BB000982FEBE0660F771F881F991FEA95D1F7F2
:100BC0002091280130912901442737FD4095542F69
:100BD0002C0D3D1D4E1D5F1D0E9457092C0D3D1D06
:100BE0004E1D5F1D20933401309335014093360133
:100BF00050933701CA01B901685F7F4F8F4F9F4FF4
:100C0000F4E09595879577956795FA95D1F7FF90DC
:100C1000EF90DF90CF9008954F925F926F927F9206
:100C20008F929F92AF92BF92CF92DF92EF92FF92FC
:100C30000F931F93CF93DF9300D000D0CDB7DEB7D3
:100C40000E9469058090340190903501A090360192
:100C5000B090370180EA881A8FE0980AA108B1089D
:100C6000A5019401C501B4010E9411092B013C01A9
:100C700000912A0110912B01A0913E01B0913F01FA
:100C80000E9490096B017C013DE0F594E794D794B4
:100C9000C7943A95D1F7A0914601B0914701A301BD
:100CA00092016CE055954795379527956A95D1F750
:100CB0000E949009BB2797FDB095AB2FC80ED91E97
:100CC000EA1EFB1E92E0C90ED11CE11CF11CF2E0F1
:100CD000F594E794D794C794FA95D1F7A0E8DA0E83
:100CE000E11CF11CA0913801B0913901A7019601D6
:100CF0000E948509DC01CB012FE0B695A795979559
:100D000087952A95D1F789839A83AB83BC83680141
:100D1000EE24D7FCE094FE2C32E0CC0CDD1CEE1C63
:100D2000FF1C3A95D1F7A0914001B0914101A30178
:100D300092010E9490092B013C0147E17594679450
:100D4000579447944A95D1F7A0913C01B0913D0149
:100D5000A50194010E9490095BE095958795779590
:100D600067955A95D1F7460E571E681E791EC40C1A
:100D7000D51CE61CF71CCC0CDD1CEE1CFF1C2091C6
:100D80002E0130912F0140913001509131012C19E9
:100D90003D094E095F09AAE6B8E10E94850997FD61
:100DA0000DC0660F771F881F991F29813A814B81DB
:100DB0005C810E94350949015A010CC029813A81A0
:100DC0004B815C810E94350949015A01880C991CAC
:100DD000AA1CBB1C9927B7FC9A958B2D7A2D692DDF
:100DE0009B01AC010E9411099B01AC01AEEDBBE07F
:100DF0000E9485096C01FF24D7FCF094EF2CA3E43A
:100E0000B3EEA50194010E949309BB2797FDB0950D
:100E1000AB2FC80ED91EEA1EFB1E9FECC90E9EE02A
:100E2000D91EE11CF11C04E0F594E794D794C79413
:100E30000A95D1F7C80CD91CEA1CFB1CC701B601E6
:100E40000F900F900F900F90DF91CF911F910F9106
:100E5000FF90EF90DF90CF90BF90AF909F908F90DA
:100E60007F906F905F904F900895CF92DF92EF92B6
:100E7000FF9260E080E00E943C0380E690E00E94E8
:100E80006E0260914C0170914D0180914E019091E4
:100E90004F012AE0C22ED12CE12CF12CA7019601A2
:100EA0000E945709C9010E949A0284E690E00E94BC
:100EB0006E0260914C0170914D0180914E019091B4
:100EC0004F01A70196010E945709CB010E949A0287
:100ED00086E690E00E946E0260E081E00E943C03A2
:100EE00088E690E00E946E02609153017091540177
:100EF000809155019091560134E6C32ED12CE12CFE
:100F0000F12CA70196010E945709C9010E949A027B
:100F100084E690E00E946E0260915301709154014A
:100F20008091550190915601A70196010E945709A1
:100F30006A3071058105910524F48CE690E00E94E9
:100F40006E0260915301709154018091550190910E
:100F5000560124E630E040E050E00E945709CB0102
:100F60000E949A028EE690E00E946E026AE080E0A3
:100F70000E943C0382E790E00E946E02809157013C
:100F8000909158010E949A0286E790E0FF90EF90BE
:100F9000DF90CF900C946E02CF92DF92EF92FF928F
:100FA00080E00E94600043E064E080E00E948A00EC
:100FB00060E081E00E94E10088E790E00E945C012F
:100FC00040E061E080E00E948A0067E082E00E94E9
:100FD000E1008CE990E00E945C0164E182E00E9403
:100FE000E10060914C0170914D0180914E01909112
:100FF0004F014AE0C42ED12CE12CF12CA70196011F
:101000000E9457096AE070E0C9010E94770184E6F6
:1010100090E00E945C0160914C0170914D018091C3
:101020004E0190914F01A70196010E945709DC01E2
:10103000CB016AE070E00E94770180EB0E944B01D7
:1010400083E40E944B0189EA90E00E945C0140E049
:1010500062E080E00E948A0067E083E00E94E10095
:101060008CEA90E00E945C0164E183E00E94E10070
:1010700060915301709154018091550190915601F6
:1010800054E6C52ED12CE12CF12CA70196010E942B
:1010900057096AE070E0C9010E94770184E690E098
:1010A0000E945C016091530170915401809155013F
:1010B00090915601A70196010E9457096A30710567
:1010C0008105910524F48CE690E00E945C0160911A
:1010D000530170915401809155019091560124E67D
:1010E00030E040E050E00E945709DC01CB016AE0AB
:1010F00070E00E9477018EE690E00E945C0140E083
:1011000064E080E00E948A0067E084E00E94E100E1
:1011100087EB90E00E945C0164E184E00E94E100C2
:101120006AE070E080915701909158010E94770128
:1011300085E20E944B0143E064E080E00E948A0067
:1011400060E085E00E94E10084EC90E00E945C0198
:1011500088EE90E00E945C01FF90EF90DF90CF90CE
:101160000C94FF008FEF91EA0197F1F700C00000A7
:101170000E9446030E944303D79ADF9A84E690E0D8
:101180000E948D03789485E090E00E9434010E94D3
:10119000AA040E9424040E94AC0560934C01709341
:1011A0004D0180934E0190934F010E940C06609375
:1011B00053017093540180935501909356010E94FE
:1011C00035070E94CC0760E571E083E00E946C0463
:1011D00020915101269526958091500130E0382BC1
:1011E00030935C0120935B01ADE7B0E00E9476098B
:1011F000BB2797FDB095AB2F0697A109B109809346
:10120000570190935801A0935901B0935A019FEF51
:101210002FED80E1915020408040E1F700C00000B8
:10122000BACFDB018F939F930E948509BF91AF9145
:10123000A29F800D911DA39F900DB29F900D112430
:101240000895AA1BBB1B51E107C0AA1FBB1FA6170D
:10125000B70710F0A61BB70B881F991F5A95A9F75F
:1012600080959095BC01CD010895A1E21A2EAA1B8C
:10127000BB1BFD010DC0AA1FBB1FEE1FFF1FA21746
:10128000B307E407F50720F0A21BB30BE40BF50B43
:10129000661F771F881F991F1A9469F760957095CC
:1012A000809590959B01AC01BD01CF010895052E5D
:1012B00097FB1EF400940E946E0957FD07D00E9410
:1012C000350907FC03D04EF40C946E0950954095F7
:1012D000309521953F4F4F4F5F4F089590958095E2
:1012E000709561957F4F8F4F9F4F0895A29FB001DA
:1012F000B39FC001A39F700D811D1124911DB29F4A
:10130000700D811D1124911D08950E947609A59FDD
:10131000900DB49F900DA49F800D911D11240895F0
:10132000B7FF0C9485090E948509821B930B0895D1
:101330004532510520F4423010F00C94A309FB0112
:101340001082CB010895BB274A3031F4992322F44F
:10135000BDE2909581959F4F0C94E009BB272A3000
:1013600051F4992342F4BDE2909580957095619572
:101370007F4F8F4F9F4F0C94BE09BB27FA01A62FBA
:101380006217710581059105330B30FB66F0AA27C2
:10139000660F771F881F991FAA1FA21710F0A21BA4
:1013A00063953850A9F7A05DAA3308F0A95DA19311
:1013B00036F7B111B1931082CA010C94010ABB2710
:1013C000FB015527AA27880F991FAA1FA41710F001
:1013D000A41B83955051B9F7A05DAA3308F0A95D0D
:1013E000A193009779F7B111B1931192CB010C94AD
:1013F000010AE199FECF9FBB8EBBE09A99278DB37E
:101400000895DC01FC01672F71917723E1F7329792
:1014100004C07C916D9370836291AE17BF07C8F3CF
:061420000895F894FFCFCF
:10142600543A20002E004300433A20003000685012
:101436006100573A2000250020202020202020206F
:1014460020202020204D204520542045204F2020BC
:1014560020202020202020202020200054656D7090
:10146600657261747572613A002009004369736E92
:1014760069656E69653A0057696C676F746E6F735C
:10148600633A200020202020202020202020202019
:101496002020202020202020202020202020202046
:0C14A60020202020202020000D0A000043
:00000001FF
